{
	"contracts/LipPart.sol": {
		"LibPart": {
			"abi": [
				{
					"inputs": [],
					"name": "TYPE_HASH",
					"outputs": [
						{
							"internalType": "bytes32",
							"name": "",
							"type": "bytes32"
						}
					],
					"stateMutability": "view",
					"type": "function"
				}
			],
			"devdoc": {
				"kind": "dev",
				"methods": {},
				"version": 1
			},
			"evm": {
				"assembly": "    /* \"contracts/LipPart.sol\":58:398  library LibPart {... */\n  dataSize(sub_0)\n  dataOffset(sub_0)\n  0x0b\n  dup3\n  dup3\n  dup3\n  codecopy\n  dup1\n  mload\n  0x00\n  byte\n  0x73\n  eq\n  tag_1\n  jumpi\n  mstore(0x00, shl(0xe0, 0x4e487b71))\n  mstore(0x04, 0x00)\n  revert(0x00, 0x24)\ntag_1:\n  mstore(0x00, address)\n  0x73\n  dup2\n  mstore8\n  dup3\n  dup2\n  return\nstop\n\nsub_0: assembly {\n        /* \"contracts/LipPart.sol\":58:398  library LibPart {... */\n      eq(address, deployTimeAddress())\n      mstore(0x40, 0x80)\n      jumpi(tag_1, lt(calldatasize, 0x04))\n      shr(0xe0, calldataload(0x00))\n      dup1\n      0x64d4c819\n      eq\n      tag_2\n      jumpi\n    tag_1:\n      0x00\n      dup1\n      revert\n        /* \"contracts/LipPart.sol\":80:163  bytes32 public constant TYPE_HASH = keccak256(\"Part(address account,uint96 value)\") */\n    tag_2:\n      tag_3\n        /* \"contracts/LipPart.sol\":116:163  keccak256(\"Part(address account,uint96 value)\") */\n      0x397e04204c1e1a60ee8724b71f8244e10ab5f2e9009854d80f602bda21b59ebb\n        /* \"contracts/LipPart.sol\":80:163  bytes32 public constant TYPE_HASH = keccak256(\"Part(address account,uint96 value)\") */\n      dup2\n      jump\n    tag_3:\n      mload(0x40)\n        /* \"#utility.yul\":168:193   */\n      swap1\n      dup2\n      mstore\n        /* \"#utility.yul\":156:158   */\n      0x20\n        /* \"#utility.yul\":141:159   */\n      add\n        /* \"contracts/LipPart.sol\":80:163  bytes32 public constant TYPE_HASH = keccak256(\"Part(address account,uint96 value)\") */\n      mload(0x40)\n      dup1\n      swap2\n      sub\n      swap1\n      return\n\n    auxdata: 0xa26469706673582212204a300aac8570bbd805674106a89233dbf5f1d9c09afffafe056dfbda757bdd0564736f6c63430008070033\n}\n",
				"bytecode": {
					"linkReferences": {},
					"object": "60a6610038600b82828239805160001a607314602b57634e487b7160e01b600052600060045260246000fd5b30600052607381538281f3fe730000000000000000000000000000000000000000301460806040526004361060335760003560e01c806364d4c819146038575b600080fd5b605e7f397e04204c1e1a60ee8724b71f8244e10ab5f2e9009854d80f602bda21b59ebb81565b60405190815260200160405180910390f3fea26469706673582212204a300aac8570bbd805674106a89233dbf5f1d9c09afffafe056dfbda757bdd0564736f6c63430008070033",
					"opcodes": "PUSH1 0xA6 PUSH2 0x38 PUSH1 0xB DUP3 DUP3 DUP3 CODECOPY DUP1 MLOAD PUSH1 0x0 BYTE PUSH1 0x73 EQ PUSH1 0x2B JUMPI PUSH4 0x4E487B71 PUSH1 0xE0 SHL PUSH1 0x0 MSTORE PUSH1 0x0 PUSH1 0x4 MSTORE PUSH1 0x24 PUSH1 0x0 REVERT JUMPDEST ADDRESS PUSH1 0x0 MSTORE PUSH1 0x73 DUP2 MSTORE8 DUP3 DUP2 RETURN INVALID PUSH20 0x0 ADDRESS EQ PUSH1 0x80 PUSH1 0x40 MSTORE PUSH1 0x4 CALLDATASIZE LT PUSH1 0x33 JUMPI PUSH1 0x0 CALLDATALOAD PUSH1 0xE0 SHR DUP1 PUSH4 0x64D4C819 EQ PUSH1 0x38 JUMPI JUMPDEST PUSH1 0x0 DUP1 REVERT JUMPDEST PUSH1 0x5E PUSH32 0x397E04204C1E1A60EE8724B71F8244E10AB5F2E9009854D80F602BDA21B59EBB DUP2 JUMP JUMPDEST PUSH1 0x40 MLOAD SWAP1 DUP2 MSTORE PUSH1 0x20 ADD PUSH1 0x40 MLOAD DUP1 SWAP2 SUB SWAP1 RETURN INVALID LOG2 PUSH5 0x6970667358 0x22 SLT KECCAK256 0x4A ADDRESS EXP 0xAC DUP6 PUSH17 0xBBD805674106A89233DBF5F1D9C09AFFFA INVALID SDIV PUSH14 0xFBDA757BDD0564736F6C63430008 SMOD STOP CALLER "
				},
				"gasEstimates": {
					"creation": {
						"codeDepositCost": "33200",
						"executionCost": "118",
						"totalCost": "33318"
					},
					"external": {
						"TYPE_HASH()": "145"
					},
					"internal": {
						"hash(struct LibPart.Part memory)": "infinite"
					}
				},
				"methodIdentifiers": {
					"TYPE_HASH()": "64d4c819"
				}
			},
			"storageLayout": {
				"storage": [],
				"types": null
			},
			"userdoc": {
				"kind": "user",
				"methods": {},
				"version": 1
			}
		}
	}
}