{
	"data": {
		"bytecode": {
			"linkReferences": {},
			"object": "6080604052600d805460ff191690556011805463ffffffff60601b1916600160701b1790553480156200003157600080fd5b50604051620047bc380380620047bc833981016040819052620000549162000227565b6040518060400160405280601a81526020017f544845204d494c4c494f4e20444f4c4c4152205745425349544500000000000081525060405180604001604052806004815260200163544d445760e01b8152508160009081620000b891906200038b565b506001620000c782826200038b565b505050620000e4620000de6200013e60201b60201c565b62000142565b600a805460ff60a01b19169055620000fc8162000194565b6200010a6103e88062000457565b600f556200011b6103e88062000457565b60105550601180546001600160601b0319166103e8179055600060145562000485565b3390565b600a80546001600160a01b038381166001600160a01b0319831681179093556040519116919082907f8be0079c531659141344cd1fd0a4f28419497f9722a3daafe3b4186f6b6457e090600090a35050565b6200019e620001b0565b6018620001ac82826200038b565b5050565b600a546001600160a01b031633146200020f5760405162461bcd60e51b815260206004820181905260248201527f4f776e61626c653a2063616c6c6572206973206e6f7420746865206f776e6572604482015260640160405180910390fd5b565b634e487b7160e01b600052604160045260246000fd5b600060208083850312156200023b57600080fd5b82516001600160401b03808211156200025357600080fd5b818501915085601f8301126200026857600080fd5b8151818111156200027d576200027d62000211565b604051601f8201601f19908116603f01168101908382118183101715620002a857620002a862000211565b816040528281528886848701011115620002c157600080fd5b600093505b82841015620002e55784840186015181850187015292850192620002c6565b600086848301015280965050505050505092915050565b600181811c908216806200031157607f821691505b6020821081036200033257634e487b7160e01b600052602260045260246000fd5b50919050565b601f8211156200038657600081815260208120601f850160051c81016020861015620003615750805b601f850160051c820191505b8181101562000382578281556001016200036d565b5050505b505050565b81516001600160401b03811115620003a757620003a762000211565b620003bf81620003b88454620002fc565b8462000338565b602080601f831160018114620003f75760008415620003de5750858301515b600019600386901b1c1916600185901b17855562000382565b600085815260208120601f198616915b82811015620004285788860151825594840194600190910190840162000407565b5085821015620004475787850151600019600388901b60f8161c191681555b5050505050600190811b01905550565b60008160001904831182151516156200048057634e487b7160e01b600052601160045260246000fd5b500290565b61432780620004956000396000f3fe60806040526004361061038c5760003560e01c8063853828b6116101dc578063b91052f211610102578063cfdb63ac116100a0578063e985e9c51161006f578063e985e9c514610a26578063eef6250814610a6f578063f0ea4bfc14610a8f578063f2fde38b14610aa257600080fd5b8063cfdb63ac146109a1578063d5abeb01146109d1578063d6f46336146109e6578063e43252d714610a0657600080fd5b8063c6a4cd73116100dc578063c6a4cd7314610920578063c87b56dd14610933578063cad96cca14610953578063cf8f6b001461098057600080fd5b8063b91052f2146108df578063baf65743146108f5578063bfdf9b6e1461090b57600080fd5b806395d89b411161017a578063a22cb46511610149578063a22cb4651461087d578063a769cba91461089d578063b88d4fde146108bf578063b8cb611d146108df57600080fd5b806395d89b41146107f657806396d74b981461080b57806399c4f9d61461082b578063a0fa8ede1461084c57600080fd5b80638e26d2aa116101b65780638e26d2aa146107865780638ef6a397146107a057806391b7f5ed146107b557806392ff0d31146107d557600080fd5b8063853828b6146107405780638ab1d681146107485780638da5cb5b1461076857600080fd5b806342842e0e116102c15780636352211e1161025f57806371c1fd701161022e57806371c1fd70146106d65780637501f741146106f657806377c2b2031461070b5780637e1e18a81461071e57600080fd5b80636352211e146106605780636ef5e0121461068057806370a08231146106a1578063715018a6146106c157600080fd5b806355dd574c1161029b57806355dd574c146105df57806355f804b3146105f45780635a733f91146106145780635c975abb1461064157600080fd5b806342842e0e1461057f57806342966c681461059f5780634f6ccce7146105bf57600080fd5b806318160ddd1161032e57806326a49e371161030857806326a49e37146104eb5780632a55205a1461050b5780632f745c591461054a57806334918dfd1461056a57600080fd5b806318160ddd1461049757806323848d5d146104b657806323b872dd146104cb57600080fd5b8063081812fc1161036a578063081812fc1461040a578063095ea7b3146104425780630c1c972a14610462578063143094db1461047757600080fd5b806301ffc9a71461039157806304869c1d146103c657806306fdde03146103e8575b600080fd5b34801561039d57600080fd5b506103b16103ac3660046138fd565b610ac2565b60405190151581526020015b60405180910390f35b3480156103d257600080fd5b506103e66103e136600461392f565b610b13565b005b3480156103f457600080fd5b506103fd610b39565b6040516103bd919061399a565b34801561041657600080fd5b5061042a6104253660046139ad565b610bcb565b6040516001600160a01b0390911681526020016103bd565b34801561044e57600080fd5b506103e661045d3660046139db565b610bf2565b34801561046e57600080fd5b506103e6610d0c565b34801561048357600080fd5b506103e6610492366004613a1e565b610d4d565b3480156104a357600080fd5b506008545b6040519081526020016103bd565b3480156104c257600080fd5b506103e6610e09565b3480156104d757600080fd5b506103e66104e6366004613a5c565b610e32565b3480156104f757600080fd5b506104a86105063660046139ad565b610e64565b34801561051757600080fd5b5061052b610526366004613a9d565b610e74565b604080516001600160a01b0390931683526020830191909152016103bd565b34801561055657600080fd5b506104a86105653660046139db565b610f7a565b34801561057657600080fd5b506103e6611010565b34801561058b57600080fd5b506103e661059a366004613a5c565b61102c565b3480156105ab57600080fd5b506103e66105ba3660046139ad565b611047565b3480156105cb57600080fd5b506104a86105da3660046139ad565b611078565b3480156105eb57600080fd5b506103e661110b565b34801561060057600080fd5b506103e661060f366004613b6b565b611132565b34801561062057600080fd5b5061063461062f3660046139ad565b61114a565b6040516103bd9190613be5565b34801561064d57600080fd5b50600a54600160a01b900460ff166103b1565b34801561066c57600080fd5b5061042a61067b3660046139ad565b61123c565b34801561068c57600080fd5b506011546103b190600160601b900460ff1681565b3480156106ad57600080fd5b506104a86106bc366004613bf8565b61129c565b3480156106cd57600080fd5b506103e6611322565b3480156106e257600080fd5b506103e66106f136600461392f565b611336565b34801561070257600080fd5b506010546104a8565b6103e6610719366004613c26565b61135c565b34801561072a57600080fd5b50610733611908565b6040516103bd9190613ca1565b6103e6611a88565b34801561075457600080fd5b506103e6610763366004613bf8565b611af3565b34801561077457600080fd5b50600a546001600160a01b031661042a565b34801561079257600080fd5b50600d546103b19060ff1681565b3480156107ac57600080fd5b506014546104a8565b3480156107c157600080fd5b506103e66107d03660046139ad565b611b1c565b3480156107e157600080fd5b506011546103b190600160781b900460ff1681565b34801561080257600080fd5b506103fd611b29565b34801561081757600080fd5b506103e6610826366004613d03565b611b38565b34801561083757600080fd5b506011546103b190600160701b900460ff1681565b34801561085857600080fd5b5061086c6108673660046139ad565b611b67565b6040516103bd959493929190613d1e565b34801561088957600080fd5b506103e6610898366004613d5c565b611c2a565b3480156108a957600080fd5b506108b2611c35565b6040516103bd9190613d91565b3480156108cb57600080fd5b506103e66108da366004613dd5565b611c8c565b3480156108eb57600080fd5b506104a86103e881565b34801561090157600080fd5b506104a860145481565b34801561091757600080fd5b50600f546104a8565b6104a861092e366004613e55565b611cbe565b34801561093f57600080fd5b506103fd61094e3660046139ad565b61216b565b34801561095f57600080fd5b5061097361096e3660046139ad565b6121d2565b6040516103bd9190613efb565b34801561098c57600080fd5b506011546103b190600160681b900460ff1681565b3480156109ad57600080fd5b506103b16109bc366004613bf8565b60166020526000908152604090205460ff1681565b3480156109dd57600080fd5b506104a8612261565b3480156109f257600080fd5b506103e6610a0136600461392f565b612274565b348015610a1257600080fd5b506103e6610a21366004613bf8565b61229a565b348015610a3257600080fd5b506103b1610a41366004613f0e565b6001600160a01b03918216600090815260056020908152604080832093909416825291909152205460ff1690565b348015610a7b57600080fd5b506108b2610a8a366004613bf8565b6122c6565b348015610a9b57600080fd5b50476104a8565b348015610aae57600080fd5b506103e6610abd366004613bf8565b612368565b6000631a93499b60e11b6001600160e01b0319831601610ae457506001919050565b636ad56fd360e11b6001600160e01b0319831601610b0457506001919050565b610b0d826123de565b92915050565b610b1b612403565b60118054911515600160781b0260ff60781b19909216919091179055565b606060008054610b4890613f47565b80601f0160208091040260200160405190810160405280929190818152602001828054610b7490613f47565b8015610bc15780601f10610b9657610100808354040283529160200191610bc1565b820191906000526020600020905b815481529060010190602001808311610ba457829003601f168201915b5050505050905090565b6000610bd68261245d565b506000908152600460205260409020546001600160a01b031690565b6000610bfd8261123c565b9050806001600160a01b0316836001600160a01b031603610c6f5760405162461bcd60e51b815260206004820152602160248201527f4552433732313a20617070726f76616c20746f2063757272656e74206f776e656044820152603960f91b60648201526084015b60405180910390fd5b336001600160a01b0382161480610c8b5750610c8b8133610a41565b610cfd5760405162461bcd60e51b815260206004820152603e60248201527f4552433732313a20617070726f76652063616c6c6572206973206e6f7420746f60448201527f6b656e206f776e6572206e6f7220617070726f76656420666f7220616c6c00006064820152608401610c66565b610d0783836124bc565b505050565b610d14612403565b6017805460ff19908116909155600d80549091166001179055610d396103e880613f91565b600f55610d486103e880613f91565b601055565b610d55612403565b604080516001808252818301909252600091816020015b6040805180820190915260008082526020820152815260200190600190039081610d6c5790505090508181600081518110610da957610da9613fb0565b6020026020010151602001906001600160601b031690816001600160601b0316815250508281600081518110610de157610de1613fb0565b60209081029190910101516001600160a01b039091169052610e03848261252a565b50505050565b610e11612403565b6011805460ff60701b198116600160701b9182900460ff1615909102179055565b610e3d335b82612743565b610e595760405162461bcd60e51b8152600401610c6690613fc6565b610d078383836127c1565b600e54600090610b0d9083612968565b6000828152600b60209081526040808320805482518185028101850190935280835284938493929190849084015b82821015610ef157600084815260209081902060408051808201909152908401546001600160a01b0381168252600160a01b90046001600160601b031681830152825260019092019101610ea2565b505050509050600081511115610f6a5780600081518110610f1457610f14613fb0565b60200260200101516000015161271082600081518110610f3657610f36613fb0565b6020026020010151602001516001600160601b031686610f569190613f91565b610f60919061402a565b9250925050610f73565b60008092509250505b9250929050565b6000610f858361129c565b8210610fe75760405162461bcd60e51b815260206004820152602b60248201527f455243373231456e756d657261626c653a206f776e657220696e646578206f7560448201526a74206f6620626f756e647360a81b6064820152608401610c66565b506001600160a01b03919091166000908152600660209081526040808320938352929052205490565b611018612403565b600d805460ff19811660ff90911615179055565b610d0783838360405180602001604052806000815250611c8c565b61105033610e37565b61106c5760405162461bcd60e51b8152600401610c6690613fc6565b61107581612974565b50565b600061108360085490565b82106110e65760405162461bcd60e51b815260206004820152602c60248201527f455243373231456e756d657261626c653a20676c6f62616c20696e646578206f60448201526b7574206f6620626f756e647360a01b6064820152608401610c66565b600882815481106110f9576110f9613fb0565b90600052602060002001549050919050565b611113612403565b60178054600160ff199182168117909255600d80549091169091179055565b61113a612403565b6018611146828261408c565b5050565b6111526138af565b600082815260156020908152604091829020825160a0810184528154815260018201549281019290925260028101549282019290925260038201546001600160a01b031660608201526004820180549192916080840191906111b390613f47565b80601f01602080910402602001604051908101604052809291908181526020018280546111df90613f47565b801561122c5780601f106112015761010080835404028352916020019161122c565b820191906000526020600020905b81548152906001019060200180831161120f57829003601f168201915b5050505050815250509050919050565b6000818152600260205260408120546001600160a01b031680610b0d5760405162461bcd60e51b8152602060048201526018602482015277115490cdcc8c4e881a5b9d985b1a59081d1bdad95b88125160421b6044820152606401610c66565b60006001600160a01b0382166113065760405162461bcd60e51b815260206004820152602960248201527f4552433732313a2061646472657373207a65726f206973206e6f7420612076616044820152683634b21037bbb732b960b91b6064820152608401610c66565b506001600160a01b031660009081526003602052604090205490565b61132a612403565b6113346000612a1b565b565b61133e612403565b60118054911515600160601b0260ff60601b19909216919091179055565b600a546001600160a01b031633146113e457600d5460ff1615156001146113e45760405162461bcd60e51b815260206004820152603660248201527f53414c45533a20506c656173652077616974206120626967206c6f6e676572206044820152756265666f726520627579696e67205175616473203b2960501b6064820152608401610c66565b6113f06103e880613f91565b6113f8612a6d565b11156114385760405162461bcd60e51b815260206004820152600f60248201526e14d0531154ce8814d85b1948195b99608a1b6044820152606401610c66565b600a546001600160a01b0316331461149757600a54600160a01b900460ff16156114975760405162461bcd60e51b815260206004820152601060248201526f14105554d05093114e8814185d5cd95960821b6044820152606401610c66565b83838360008260ff16116114e25760405162461bcd60e51b81526020600482015260126024820152710207769647468206d757374206265203e20360741b6044820152606401610c66565b60008160ff161161152b5760405162461bcd60e51b8152602060048201526013602482015272020686569676874206d757374206265203e203606c1b6044820152606401610c66565b6000611535612a6d565b90506000611543878961414c565b60ff169050600f548211156115b05760405162461bcd60e51b815260206004820152602d60248201527f4d494e543a20506c6561736520676f20746f20746865204f70656e736561207460448201526c3790313abc90309038bab0b21760991b6064820152608401610c66565b600081116116005760405162461bcd60e51b815260206004820152601b60248201527f4d4454503a20696e73756666696369656e74207175616e7469747900000000006044820152606401610c66565b601154600160601b900460ff1680611620575061161e898989612a78565b155b61166c5760405162461bcd60e51b815260206004820152601960248201527f43616e6e6f74206d696e742063656e74657220746f6b656e73000000000000006044820152606401610c66565b601154600160681b900460ff168061168c575061168a898989612b13565b155b6116d85760405162461bcd60e51b815260206004820152601c60248201527f4d6943616e6e6f74206d696e74207370656369616c20746f6b656e73000000006044820152606401610c66565b600a546001600160a01b038b8116911614611764576116f681610e64565b3410156117645760405162461bcd60e51b815260206004820152603660248201527f4d494e543a2043757272656e742076616c75652069732062656c6f7720746865604482015275081cd85b195cc81c1c9a58d9481bd98818481c5d585960521b6064820152608401610c66565b60005b8760ff168160ff16101561184d5760005b8960ff168160ff16101561183a5760008160ff168360ff166103e861179d9190613f91565b6117a7908e614175565b6117b19190614175565b60008181526012602052604090205490915060ff16156118275760405162461bcd60e51b815260206004820152602b60248201527f4d494e543a2054686f736520717561647320616c72656164792068617665206260448201526a19595b8818db185a5b595960aa1b6064820152608401610c66565b508061183281614188565b915050611778565b508061184581614188565b915050611767565b5060005b8760ff168160ff1610156118cd5760005b8960ff168160ff1610156118ba5760008160ff168360ff166103e86118879190613f91565b611891908e614175565b61189b9190614175565b90506118a78d82612ba3565b50806118b281614188565b915050611862565b50806118c581614188565b915050611851565b506118e18a8a8a60ff168a60ff168a612cc6565b6118fc6118f6600a546001600160a01b031690565b47612dc4565b50505050505050505050565b6060600060145467ffffffffffffffff81111561192757611927613abf565b60405190808252806020026020018201604052801561196057816020015b61194d6138af565b8152602001906001900390816119455790505b50905060005b601454811015611a8257600081815260156020908152604091829020825160a0810184528154815260018201549281019290925260028101549282019290925260038201546001600160a01b03166060820152600482018054839160808401916119cf90613f47565b80601f01602080910402602001604051908101604052809291908181526020018280546119fb90613f47565b8015611a485780601f10611a1d57610100808354040283529160200191611a48565b820191906000526020600020905b815481529060010190602001808311611a2b57829003601f168201915b505050505081525050838381518110611a6357611a63613fb0565b6020026020010181905250508080611a7a906141a7565b915050611966565b50919050565b611a90612403565b4780611ade5760405162461bcd60e51b815260206004820181905260248201527f57495448445241573a204e6f2062616c616e636520696e20636f6e74726163746044820152606401610c66565b6110756118f6600a546001600160a01b031690565b611afb612403565b6001600160a01b03166000908152601660205260409020805460ff19169055565b611b24612403565b600e55565b606060018054610b4890613f47565b611b40612403565b601180546bffffffffffffffffffffffff19166001600160601b0392909216919091179055565b601560205260009081526040902080546001820154600283015460038401546004850180549495939492936001600160a01b0390921692611ba790613f47565b80601f0160208091040260200160405190810160405280929190818152602001828054611bd390613f47565b8015611c205780601f10611bf557610100808354040283529160200191611c20565b820191906000526020600020905b815481529060010190602001808311611c0357829003601f168201915b5050505050905085565b611146338383612e67565b60606013805480602002602001604051908101604052809291908181526020018280548015610bc157602002820191906000526020600020905b815481526020019060010190808311611c6f575050505050905090565b611c963383612743565b611cb25760405162461bcd60e51b8152600401610c6690613fc6565b610e0384848484612f35565b6000848152601560205260408120600301546001600160a01b03163314611d1f5760405162461bcd60e51b81526020600482015260156024820152744f6e6c79206f776e65722063616e2075706461746560581b6044820152606401610c66565b600085815260156020526040812060018101546002909101543392611d466103e88a6141c0565b90506000611d566103e88b61402a565b60008b81526015602052604081205491925090611d76906103e8906141c0565b60008c81526015602052604081205491925090611d96906103e89061402a565b905060006014546001611da99190614175565b601154909150600160701b900460ff16151560010361214c578b87148015611dd057508a86145b15611e81576040518060a001604052808e81526020018d81526020018c8152602001896001600160a01b031681526020018b815250601560008f815260200190815260200160002060008201518160000155602082015181600101556040820151816002015560608201518160030160006101000a8154816001600160a01b0302191690836001600160a01b031602179055506080820151816004019081611e78919061408c565b50905050612159565b8b871480611e8e57508a86145b611f005760405162461bcd60e51b815260206004820152603860248201527f50617263656c2073706c697474696e672072657175697265732077696474682060448201527f6f722068656967687420746f206265207468652073616d6500000000000000006064820152608401610c66565b611f0d888e8e8e8e612cc6565b8b870361202f5783821115611feb576040518060a00160405280868d87611f3491906141d4565b611f40906103e8613f91565b611f4a9190614175565b8152602081018e9052604001611f608d896141d4565b8152602001896001600160a01b031681526020018b815250601560008f815260200190815260200160002060008201518160000155602082015181600101556040820151816002015560608201518160030160006101000a8154816001600160a01b0302191690836001600160a01b031602179055506080820151816004019081611e78919061408c565b6040518060a00160405280868d876120039190614175565b61200f906103e8613f91565b6120199190614175565b8152602081018e9052604001611f60888e6141d4565b8a8603612147578483111561210b576040518060a001604052808d8761205591906141d4565b612061876103e8613f91565b61206b9190614175565b815260200161207a8e8a6141d4565b81526020018c8152602001896001600160a01b031681526020018b815250601560008f815260200190815260200160002060008201518160000155602082015181600101556040820151816002015560608201518160030160006101000a8154816001600160a01b0302191690836001600160a01b031602179055506080820151816004019081611e78919061408c565b6040518060a001604052808d876121229190614175565b61212e876103e8613f91565b6121389190614175565b815260200161207a898f6141d4565b612159565b612159888e8e8e8e612cc6565b9750505050505050505b949350505050565b60606121768261245d565b6000612180612f68565b905060008151116121a057604051806020016040528060008152506121cb565b806121aa84612f77565b6040516020016121bb9291906141e7565b6040516020818303038152906040525b9392505050565b6060600b6000838152602001908152602001600020805480602002602001604051908101604052809291908181526020016000905b8282101561225657600084815260209081902060408051808201909152908401546001600160a01b0381168252600160a01b90046001600160601b031681830152825260019092019101612207565b505050509050919050565b600061226f6103e880613f91565b905090565b61227c612403565b60118054911515600160681b0260ff60681b19909216919091179055565b6122a2612403565b6001600160a01b03166000908152601660205260409020805460ff19166001179055565b606060006122d38361129c565b905060008167ffffffffffffffff8111156122f0576122f0613abf565b604051908082528060200260200182016040528015612319578160200160208202803683370190505b50905060005b82811015612360576123318582610f7a565b82828151811061234357612343613fb0565b602090810291909101015280612358816141a7565b91505061231f565b509392505050565b612370612403565b6001600160a01b0381166123d55760405162461bcd60e51b815260206004820152602660248201527f4f776e61626c653a206e6577206f776e657220697320746865207a65726f206160448201526564647265737360d01b6064820152608401610c66565b61107581612a1b565b60006001600160e01b0319821663780e9d6360e01b1480610b0d5750610b0d82613078565b600a546001600160a01b031633146113345760405162461bcd60e51b815260206004820181905260248201527f4f776e61626c653a2063616c6c6572206973206e6f7420746865206f776e65726044820152606401610c66565b6000818152600260205260409020546001600160a01b03166110755760405162461bcd60e51b8152602060048201526018602482015277115490cdcc8c4e881a5b9d985b1a59081d1bdad95b88125160421b6044820152606401610c66565b600081815260046020526040902080546001600160a01b0319166001600160a01b03841690811790915581906124f18261123c565b6001600160a01b03167f8c5be1e5ebec7d5bd14f71427d1e84f3dd0314c0f7b2291e5b200ac8c7c3b92560405160405180910390a45050565b6000805b82518110156126d95760006001600160a01b031683828151811061255457612554613fb0565b6020026020010151600001516001600160a01b0316036125b65760405162461bcd60e51b815260206004820152601b60248201527f526563697069656e742073686f756c642062652070726573656e7400000000006044820152606401610c66565b8281815181106125c8576125c8613fb0565b6020026020010151602001516001600160601b031660000361262c5760405162461bcd60e51b815260206004820181905260248201527f526f79616c74792076616c75652073686f756c6420626520706f7369746976656044820152606401610c66565b82818151811061263e5761263e613fb0565b6020026020010151602001516001600160601b03168261265e9190614175565b9150600b600085815260200190815260200160002083828151811061268557612685613fb0565b6020908102919091018101518254600181018455600093845292829020815191909201516001600160601b0316600160a01b026001600160a01b0390911617910155806126d1816141a7565b91505061252e565b5061271081106127395760405162461bcd60e51b815260206004820152602560248201527f526f79616c747920746f74616c2076616c75652073686f756c64206265203c20604482015264031303030360dc1b6064820152608401610c66565b610d0783836130c8565b60008061274f8361123c565b9050806001600160a01b0316846001600160a01b0316148061279657506001600160a01b0380821660009081526005602090815260408083209388168352929052205460ff165b806121635750836001600160a01b03166127af84610bcb565b6001600160a01b031614949350505050565b826001600160a01b03166127d48261123c565b6001600160a01b0316146128385760405162461bcd60e51b815260206004820152602560248201527f4552433732313a207472616e736665722066726f6d20696e636f72726563742060448201526437bbb732b960d91b6064820152608401610c66565b6001600160a01b03821661289a5760405162461bcd60e51b8152602060048201526024808201527f4552433732313a207472616e7366657220746f20746865207a65726f206164646044820152637265737360e01b6064820152608401610c66565b6128a5838383613105565b6128b06000826124bc565b6001600160a01b03831660009081526003602052604081208054600192906128d99084906141d4565b90915550506001600160a01b0382166000908152600360205260408120805460019290612907908490614175565b909155505060008181526002602052604080822080546001600160a01b0319166001600160a01b0386811691821790925591518493918716917fddf252ad1be2c89b69c2b068fc378daa952ba7f163c4a11628f55a4df523b3ef91a4505050565b60006121cb8284613f91565b600061297f8261123c565b905061298d81600084613105565b6129986000836124bc565b6001600160a01b03811660009081526003602052604081208054600192906129c19084906141d4565b909155505060008281526002602052604080822080546001600160a01b0319169055518391906001600160a01b038416907fddf252ad1be2c89b69c2b068fc378daa952ba7f163c4a11628f55a4df523b3ef908390a45050565b600a80546001600160a01b038381166001600160a01b0319831681179093556040519116919082907f8be0079c531659141344cd1fd0a4f28419497f9722a3daafe3b4186f6b6457e090600090a35050565b600061226f600c5490565b6000805b8260ff168160ff161015612b085760005b8460ff168160ff161015612af55760008160ff168360ff166103e8612ab29190613f91565b612abc9089614175565b612ac69190614175565b9050612ad181613110565b15612ae257600193505050506121cb565b5080612aed81614188565b915050612a8d565b5080612b0081614188565b915050612a7c565b506000949350505050565b6000805b8260ff168160ff161015612b085760005b8460ff168160ff161015612b905760008160ff168360ff166103e8612b4d9190613f91565b612b579089614175565b612b619190614175565b9050612b6c81613166565b15612b7d57600193505050506121cb565b5080612b8881614188565b915050612b28565b5080612b9b81614188565b915050612b17565b600081118015612bbe5750612bba6103e880613f91565b8111155b612bfc5760405162461bcd60e51b815260206004820152600f60248201526e1a5b9d985b1a59081d1bdad95b9259608a1b6044820152606401610c66565b6000612c10600a546001600160a01b031690565b905080612c21600c80546001019055565b612c2b8484613289565b6000838152601260205260408120805460ff191660019081179091556013805491820181559091527f66de8ffda797e3de9c05e8fc57b3bf0ec28a930d40b0d285d93c06501cf6a09001839055612c8283826132a3565b6040516001600160a01b038516815283907f3dc55d332b4921e9579a1712050fe88fba876902e781345e89ba2c1a3344a88c9060200160405180910390a250505050565b6040518060a00160405280858152602001848152602001838152602001866001600160a01b0316815260200182815250601560006014546001612d099190614175565b8152602080820192909252604090810160002083518155918301516001830155820151600282015560608201516003820180546001600160a01b0319166001600160a01b0390921691909117905560808201516004820190612d6b908261408c565b5050601454612d7c91506001614175565b6014556040516001600160a01b038616815284907f557009378aad27538e74de75f6bae05dc5be9b59b03c60432fefb16c4d906f3b9060200160405180910390a25050505050565b6000826001600160a01b03168260405160006040518083038185875af1925050503d8060008114612e11576040519150601f19603f3d011682016040523d82523d6000602084013e612e16565b606091505b5050905080610d075760405162461bcd60e51b815260206004820152601a60248201527f57495448445241573a205472616e73666572206661696c65642e0000000000006044820152606401610c66565b816001600160a01b0316836001600160a01b031603612ec85760405162461bcd60e51b815260206004820152601960248201527f4552433732313a20617070726f766520746f2063616c6c6572000000000000006044820152606401610c66565b6001600160a01b03838116600081815260056020908152604080832094871680845294825291829020805460ff191686151590811790915591519182527f17307eab39ab6107e8899845ad3d59bd9653f200f220920489ca2b5937696c31910160405180910390a3505050565b612f408484846127c1565b612f4c8484848461335d565b610e035760405162461bcd60e51b8152600401610c6690614216565b606060188054610b4890613f47565b606081600003612f9e5750506040805180820190915260018152600360fc1b602082015290565b8160005b8115612fc85780612fb2816141a7565b9150612fc19050600a8361402a565b9150612fa2565b60008167ffffffffffffffff811115612fe357612fe3613abf565b6040519080825280601f01601f19166020018201604052801561300d576020820181803683370190505b5090505b8415612163576130226001836141d4565b915061302f600a866141c0565b61303a906030614175565b60f81b81838151811061304f5761304f613fb0565b60200101906001600160f81b031916908160001a905350613071600a8661402a565b9450613011565b60006001600160e01b031982166380ac58cd60e01b14806130a957506001600160e01b03198216635b5e139f60e01b145b80610b0d57506301ffc9a760e01b6001600160e01b0319831614610b0d565b7f3fa96d7b6bcbfe71ef171666d84db3cf52fa2d1c8afdb1cc8e486177f208b7df82826040516130f9929190614268565b60405180910390a15050565b610d0783838361345b565b60008061311f6103e8846141c0565b9050600061312f6103e88561402a565b9050610178821015801561314557506102718211155b801561315357506101918110155b8015612163575061025810159392505050565b6000806131756103e8846141c0565b905060006131856103e88561402a565b905060006001831015801561319b575060fa8311155b80156131a8575060018210155b80156131b5575060c88211155b905060006102ef84101580156131cd57506103e88411155b80156131da575060018310155b80156131e7575060c88311155b90506000600185101580156131fd575060fa8511155b801561320b57506103218410155b801561321957506103e88411155b905060006102ef861015801561323157506103e88611155b801561323f57506103218510155b801561324d57506103e88511155b905083806132585750825b806132605750815b806132685750805b1561327b57506001979650505050505050565b506000979650505050505050565b6111468282604051806020016040528060008152506134e6565b604080516001808252818301909252600091816020015b60408051808201909152600080825260208201528152602001906001900390816132ba57505060115481519192506001600160601b031690829060009061330357613303613fb0565b6020026020010151602001906001600160601b031690816001600160601b031681525050818160008151811061333b5761333b613fb0565b60209081029190910101516001600160a01b039091169052610d07838261252a565b60006001600160a01b0384163b1561345357604051630a85bd0160e11b81526001600160a01b0385169063150b7a02906133a1903390899088908890600401614281565b6020604051808303816000875af19250505080156133dc575060408051601f3d908101601f191682019092526133d9918101906142be565b60015b613439573d80801561340a576040519150601f19603f3d011682016040523d82523d6000602084013e61340f565b606091505b5080516000036134315760405162461bcd60e51b8152600401610c6690614216565b805181602001fd5b6001600160e01b031916630a85bd0160e11b149050612163565b506001612163565b613466838383613519565b600a546001600160a01b03163314610d0757600a54600160a01b900460ff1615610d075760405162461bcd60e51b815260206004820152602b60248201527f4552433732315061757361626c653a20746f6b656e207472616e73666572207760448201526a1a1a5b19481c185d5cd95960aa1b6064820152608401610c66565b6134f083836135d1565b6134fd600084848461335d565b610d075760405162461bcd60e51b8152600401610c6690614216565b6001600160a01b0383166135745761356f81600880546000838152600960205260408120829055600182018355919091527ff3f7a9fe364faab93b216da50a3214154f22a0a2b415b23a84c8169e8b636ee30155565b613597565b816001600160a01b0316836001600160a01b03161461359757613597838261371f565b6001600160a01b0382166135ae57610d07816137bc565b826001600160a01b0316826001600160a01b031614610d0757610d07828261386b565b6001600160a01b0382166136275760405162461bcd60e51b815260206004820181905260248201527f4552433732313a206d696e7420746f20746865207a65726f20616464726573736044820152606401610c66565b6000818152600260205260409020546001600160a01b03161561368c5760405162461bcd60e51b815260206004820152601c60248201527f4552433732313a20746f6b656e20616c7265616479206d696e746564000000006044820152606401610c66565b61369860008383613105565b6001600160a01b03821660009081526003602052604081208054600192906136c1908490614175565b909155505060008181526002602052604080822080546001600160a01b0319166001600160a01b03861690811790915590518392907fddf252ad1be2c89b69c2b068fc378daa952ba7f163c4a11628f55a4df523b3ef908290a45050565b6000600161372c8461129c565b61373691906141d4565b600083815260076020526040902054909150808214613789576001600160a01b03841660009081526006602090815260408083208584528252808320548484528184208190558352600790915290208190555b5060009182526007602090815260408084208490556001600160a01b039094168352600681528383209183525290812055565b6008546000906137ce906001906141d4565b600083815260096020526040812054600880549394509092849081106137f6576137f6613fb0565b90600052602060002001549050806008838154811061381757613817613fb0565b600091825260208083209091019290925582815260099091526040808220849055858252812055600880548061384f5761384f6142db565b6001900381819060005260206000200160009055905550505050565b60006138768361129c565b6001600160a01b039093166000908152600660209081526040808320868452825280832085905593825260079052919091209190915550565b6040518060a0016040528060008152602001600081526020016000815260200160006001600160a01b03168152602001606081525090565b6001600160e01b03198116811461107557600080fd5b60006020828403121561390f57600080fd5b81356121cb816138e7565b8035801515811461392a57600080fd5b919050565b60006020828403121561394157600080fd5b6121cb8261391a565b60005b8381101561396557818101518382015260200161394d565b50506000910152565b6000815180845261398681602086016020860161394a565b601f01601f19169290920160200192915050565b6020815260006121cb602083018461396e565b6000602082840312156139bf57600080fd5b5035919050565b6001600160a01b038116811461107557600080fd5b600080604083850312156139ee57600080fd5b82356139f9816139c6565b946020939093013593505050565b80356001600160601b038116811461392a57600080fd5b600080600060608486031215613a3357600080fd5b833592506020840135613a45816139c6565b9150613a5360408501613a07565b90509250925092565b600080600060608486031215613a7157600080fd5b8335613a7c816139c6565b92506020840135613a8c816139c6565b929592945050506040919091013590565b60008060408385031215613ab057600080fd5b50508035926020909101359150565b634e487b7160e01b600052604160045260246000fd5b600067ffffffffffffffff80841115613af057613af0613abf565b604051601f8501601f19908116603f01168101908282118183101715613b1857613b18613abf565b81604052809350858152868686011115613b3157600080fd5b858560208301376000602087830101525050509392505050565b600082601f830112613b5c57600080fd5b6121cb83833560208501613ad5565b600060208284031215613b7d57600080fd5b813567ffffffffffffffff811115613b9457600080fd5b61216384828501613b4b565b80518252602081015160208301526040810151604083015260018060a01b0360608201511660608301526000608082015160a0608085015261216360a085018261396e565b6020815260006121cb6020830184613ba0565b600060208284031215613c0a57600080fd5b81356121cb816139c6565b803560ff8116811461392a57600080fd5b600080600080600060a08688031215613c3e57600080fd5b8535613c49816139c6565b945060208601359350613c5e60408701613c15565b9250613c6c60608701613c15565b9150608086013567ffffffffffffffff811115613c8857600080fd5b613c9488828901613b4b565b9150509295509295909350565b6000602080830181845280855180835260408601915060408160051b870101925083870160005b82811015613cf657603f19888603018452613ce4858351613ba0565b94509285019290850190600101613cc8565b5092979650505050505050565b600060208284031215613d1557600080fd5b6121cb82613a07565b85815284602082015283604082015260018060a01b038316606082015260a060808201526000613d5160a083018461396e565b979650505050505050565b60008060408385031215613d6f57600080fd5b8235613d7a816139c6565b9150613d886020840161391a565b90509250929050565b6020808252825182820181905260009190848201906040850190845b81811015613dc957835183529284019291840191600101613dad565b50909695505050505050565b60008060008060808587031215613deb57600080fd5b8435613df6816139c6565b93506020850135613e06816139c6565b925060408501359150606085013567ffffffffffffffff811115613e2957600080fd5b8501601f81018713613e3a57600080fd5b613e4987823560208401613ad5565b91505092959194509250565b60008060008060808587031215613e6b57600080fd5b843593506020850135925060408501359150606085013567ffffffffffffffff811115613e9757600080fd5b613e4987828801613b4b565b600081518084526020808501945080840160005b83811015613ef057815180516001600160a01b031688528301516001600160601b03168388015260409096019590820190600101613eb7565b509495945050505050565b6020815260006121cb6020830184613ea3565b60008060408385031215613f2157600080fd5b8235613f2c816139c6565b91506020830135613f3c816139c6565b809150509250929050565b600181811c90821680613f5b57607f821691505b602082108103611a8257634e487b7160e01b600052602260045260246000fd5b634e487b7160e01b600052601160045260246000fd5b6000816000190483118215151615613fab57613fab613f7b565b500290565b634e487b7160e01b600052603260045260246000fd5b6020808252602e908201527f4552433732313a2063616c6c6572206973206e6f7420746f6b656e206f776e6560408201526d1c881b9bdc88185c1c1c9bdd995960921b606082015260800190565b634e487b7160e01b600052601260045260246000fd5b60008261403957614039614014565b500490565b601f821115610d0757600081815260208120601f850160051c810160208610156140655750805b601f850160051c820191505b8181101561408457828155600101614071565b505050505050565b815167ffffffffffffffff8111156140a6576140a6613abf565b6140ba816140b48454613f47565b8461403e565b602080601f8311600181146140ef57600084156140d75750858301515b600019600386901b1c1916600185901b178555614084565b600085815260208120601f198616915b8281101561411e578886015182559484019460019091019084016140ff565b508582101561413c5787850151600019600388901b60f8161c191681555b5050505050600190811b01905550565b600060ff821660ff84168160ff048111821515161561416d5761416d613f7b565b029392505050565b80820180821115610b0d57610b0d613f7b565b600060ff821660ff810361419e5761419e613f7b565b60010192915050565b6000600182016141b9576141b9613f7b565b5060010190565b6000826141cf576141cf614014565b500690565b81810381811115610b0d57610b0d613f7b565b600083516141f981846020880161394a565b83519083019061420d81836020880161394a565b01949350505050565b60208082526032908201527f4552433732313a207472616e7366657220746f206e6f6e20455243373231526560408201527131b2b4bb32b91034b6b83632b6b2b73a32b960711b606082015260800190565b8281526040602082015260006121636040830184613ea3565b6001600160a01b03858116825284166020820152604081018390526080606082018190526000906142b49083018461396e565b9695505050505050565b6000602082840312156142d057600080fd5b81516121cb816138e7565b634e487b7160e01b600052603160045260246000fdfea2646970667358221220fff9ef9744ad0b9d67bdc7bf85b1025c413af396bffadaac438938b7ab7e03cd64736f6c63430008100033",
			"opcodes": "PUSH1 0x80 PUSH1 0x40 MSTORE PUSH1 0xD DUP1 SLOAD PUSH1 0xFF NOT AND SWAP1 SSTORE PUSH1 0x11 DUP1 SLOAD PUSH4 0xFFFFFFFF PUSH1 0x60 SHL NOT AND PUSH1 0x1 PUSH1 0x70 SHL OR SWAP1 SSTORE CALLVALUE DUP1 ISZERO PUSH3 0x31 JUMPI PUSH1 0x0 DUP1 REVERT JUMPDEST POP PUSH1 0x40 MLOAD PUSH3 0x47BC CODESIZE SUB DUP1 PUSH3 0x47BC DUP4 CODECOPY DUP2 ADD PUSH1 0x40 DUP2 SWAP1 MSTORE PUSH3 0x54 SWAP2 PUSH3 0x227 JUMP JUMPDEST PUSH1 0x40 MLOAD DUP1 PUSH1 0x40 ADD PUSH1 0x40 MSTORE DUP1 PUSH1 0x1A DUP2 MSTORE PUSH1 0x20 ADD PUSH32 0x544845204D494C4C494F4E20444F4C4C41522057454253495445000000000000 DUP2 MSTORE POP PUSH1 0x40 MLOAD DUP1 PUSH1 0x40 ADD PUSH1 0x40 MSTORE DUP1 PUSH1 0x4 DUP2 MSTORE PUSH1 0x20 ADD PUSH4 0x544D4457 PUSH1 0xE0 SHL DUP2 MSTORE POP DUP2 PUSH1 0x0 SWAP1 DUP2 PUSH3 0xB8 SWAP2 SWAP1 PUSH3 0x38B JUMP JUMPDEST POP PUSH1 0x1 PUSH3 0xC7 DUP3 DUP3 PUSH3 0x38B JUMP JUMPDEST POP POP POP PUSH3 0xE4 PUSH3 0xDE PUSH3 0x13E PUSH1 0x20 SHL PUSH1 0x20 SHR JUMP JUMPDEST PUSH3 0x142 JUMP JUMPDEST PUSH1 0xA DUP1 SLOAD PUSH1 0xFF PUSH1 0xA0 SHL NOT AND SWAP1 SSTORE PUSH3 0xFC DUP2 PUSH3 0x194 JUMP JUMPDEST PUSH3 0x10A PUSH2 0x3E8 DUP1 PUSH3 0x457 JUMP JUMPDEST PUSH1 0xF SSTORE PUSH3 0x11B PUSH2 0x3E8 DUP1 PUSH3 0x457 JUMP JUMPDEST PUSH1 0x10 SSTORE POP PUSH1 0x11 DUP1 SLOAD PUSH1 0x1 PUSH1 0x1 PUSH1 0x60 SHL SUB NOT AND PUSH2 0x3E8 OR SWAP1 SSTORE PUSH1 0x0 PUSH1 0x14 SSTORE PUSH3 0x485 JUMP JUMPDEST CALLER SWAP1 JUMP JUMPDEST PUSH1 0xA DUP1 SLOAD PUSH1 0x1 PUSH1 0x1 PUSH1 0xA0 SHL SUB DUP4 DUP2 AND PUSH1 0x1 PUSH1 0x1 PUSH1 0xA0 SHL SUB NOT DUP4 AND DUP2 OR SWAP1 SWAP4 SSTORE PUSH1 0x40 MLOAD SWAP2 AND SWAP2 SWAP1 DUP3 SWAP1 PUSH32 0x8BE0079C531659141344CD1FD0A4F28419497F9722A3DAAFE3B4186F6B6457E0 SWAP1 PUSH1 0x0 SWAP1 LOG3 POP POP JUMP JUMPDEST PUSH3 0x19E PUSH3 0x1B0 JUMP JUMPDEST PUSH1 0x18 PUSH3 0x1AC DUP3 DUP3 PUSH3 0x38B JUMP JUMPDEST POP POP JUMP JUMPDEST PUSH1 0xA SLOAD PUSH1 0x1 PUSH1 0x1 PUSH1 0xA0 SHL SUB AND CALLER EQ PUSH3 0x20F JUMPI PUSH1 0x40 MLOAD PUSH3 0x461BCD PUSH1 0xE5 SHL DUP2 MSTORE PUSH1 0x20 PUSH1 0x4 DUP3 ADD DUP2 SWAP1 MSTORE PUSH1 0x24 DUP3 ADD MSTORE PUSH32 0x4F776E61626C653A2063616C6C6572206973206E6F7420746865206F776E6572 PUSH1 0x44 DUP3 ADD MSTORE PUSH1 0x64 ADD PUSH1 0x40 MLOAD DUP1 SWAP2 SUB SWAP1 REVERT JUMPDEST JUMP JUMPDEST PUSH4 0x4E487B71 PUSH1 0xE0 SHL PUSH1 0x0 MSTORE PUSH1 0x41 PUSH1 0x4 MSTORE PUSH1 0x24 PUSH1 0x0 REVERT JUMPDEST PUSH1 0x0 PUSH1 0x20 DUP1 DUP4 DUP6 SUB SLT ISZERO PUSH3 0x23B JUMPI PUSH1 0x0 DUP1 REVERT JUMPDEST DUP3 MLOAD PUSH1 0x1 PUSH1 0x1 PUSH1 0x40 SHL SUB DUP1 DUP3 GT ISZERO PUSH3 0x253 JUMPI PUSH1 0x0 DUP1 REVERT JUMPDEST DUP2 DUP6 ADD SWAP2 POP DUP6 PUSH1 0x1F DUP4 ADD SLT PUSH3 0x268 JUMPI PUSH1 0x0 DUP1 REVERT JUMPDEST DUP2 MLOAD DUP2 DUP2 GT ISZERO PUSH3 0x27D JUMPI PUSH3 0x27D PUSH3 0x211 JUMP JUMPDEST PUSH1 0x40 MLOAD PUSH1 0x1F DUP3 ADD PUSH1 0x1F NOT SWAP1 DUP2 AND PUSH1 0x3F ADD AND DUP2 ADD SWAP1 DUP4 DUP3 GT DUP2 DUP4 LT OR ISZERO PUSH3 0x2A8 JUMPI PUSH3 0x2A8 PUSH3 0x211 JUMP JUMPDEST DUP2 PUSH1 0x40 MSTORE DUP3 DUP2 MSTORE DUP9 DUP7 DUP5 DUP8 ADD ADD GT ISZERO PUSH3 0x2C1 JUMPI PUSH1 0x0 DUP1 REVERT JUMPDEST PUSH1 0x0 SWAP4 POP JUMPDEST DUP3 DUP5 LT ISZERO PUSH3 0x2E5 JUMPI DUP5 DUP5 ADD DUP7 ADD MLOAD DUP2 DUP6 ADD DUP8 ADD MSTORE SWAP3 DUP6 ADD SWAP3 PUSH3 0x2C6 JUMP JUMPDEST PUSH1 0x0 DUP7 DUP5 DUP4 ADD ADD MSTORE DUP1 SWAP7 POP POP POP POP POP POP POP SWAP3 SWAP2 POP POP JUMP JUMPDEST PUSH1 0x1 DUP2 DUP2 SHR SWAP1 DUP3 AND DUP1 PUSH3 0x311 JUMPI PUSH1 0x7F DUP3 AND SWAP2 POP JUMPDEST PUSH1 0x20 DUP3 LT DUP2 SUB PUSH3 0x332 JUMPI PUSH4 0x4E487B71 PUSH1 0xE0 SHL PUSH1 0x0 MSTORE PUSH1 0x22 PUSH1 0x4 MSTORE PUSH1 0x24 PUSH1 0x0 REVERT JUMPDEST POP SWAP2 SWAP1 POP JUMP JUMPDEST PUSH1 0x1F DUP3 GT ISZERO PUSH3 0x386 JUMPI PUSH1 0x0 DUP2 DUP2 MSTORE PUSH1 0x20 DUP2 KECCAK256 PUSH1 0x1F DUP6 ADD PUSH1 0x5 SHR DUP2 ADD PUSH1 0x20 DUP7 LT ISZERO PUSH3 0x361 JUMPI POP DUP1 JUMPDEST PUSH1 0x1F DUP6 ADD PUSH1 0x5 SHR DUP3 ADD SWAP2 POP JUMPDEST DUP2 DUP2 LT ISZERO PUSH3 0x382 JUMPI DUP3 DUP2 SSTORE PUSH1 0x1 ADD PUSH3 0x36D JUMP JUMPDEST POP POP POP JUMPDEST POP POP POP JUMP JUMPDEST DUP2 MLOAD PUSH1 0x1 PUSH1 0x1 PUSH1 0x40 SHL SUB DUP2 GT ISZERO PUSH3 0x3A7 JUMPI PUSH3 0x3A7 PUSH3 0x211 JUMP JUMPDEST PUSH3 0x3BF DUP2 PUSH3 0x3B8 DUP5 SLOAD PUSH3 0x2FC JUMP JUMPDEST DUP5 PUSH3 0x338 JUMP JUMPDEST PUSH1 0x20 DUP1 PUSH1 0x1F DUP4 GT PUSH1 0x1 DUP2 EQ PUSH3 0x3F7 JUMPI PUSH1 0x0 DUP5 ISZERO PUSH3 0x3DE JUMPI POP DUP6 DUP4 ADD MLOAD JUMPDEST PUSH1 0x0 NOT PUSH1 0x3 DUP7 SWAP1 SHL SHR NOT AND PUSH1 0x1 DUP6 SWAP1 SHL OR DUP6 SSTORE PUSH3 0x382 JUMP JUMPDEST PUSH1 0x0 DUP6 DUP2 MSTORE PUSH1 0x20 DUP2 KECCAK256 PUSH1 0x1F NOT DUP7 AND SWAP2 JUMPDEST DUP3 DUP2 LT ISZERO PUSH3 0x428 JUMPI DUP9 DUP7 ADD MLOAD DUP3 SSTORE SWAP5 DUP5 ADD SWAP5 PUSH1 0x1 SWAP1 SWAP2 ADD SWAP1 DUP5 ADD PUSH3 0x407 JUMP JUMPDEST POP DUP6 DUP3 LT ISZERO PUSH3 0x447 JUMPI DUP8 DUP6 ADD MLOAD PUSH1 0x0 NOT PUSH1 0x3 DUP9 SWAP1 SHL PUSH1 0xF8 AND SHR NOT AND DUP2 SSTORE JUMPDEST POP POP POP POP POP PUSH1 0x1 SWAP1 DUP2 SHL ADD SWAP1 SSTORE POP JUMP JUMPDEST PUSH1 0x0 DUP2 PUSH1 0x0 NOT DIV DUP4 GT DUP3 ISZERO ISZERO AND ISZERO PUSH3 0x480 JUMPI PUSH4 0x4E487B71 PUSH1 0xE0 SHL PUSH1 0x0 MSTORE PUSH1 0x11 PUSH1 0x4 MSTORE PUSH1 0x24 PUSH1 0x0 REVERT JUMPDEST POP MUL SWAP1 JUMP JUMPDEST PUSH2 0x4327 DUP1 PUSH3 0x495 PUSH1 0x0 CODECOPY PUSH1 0x0 RETURN INVALID PUSH1 0x80 PUSH1 0x40 MSTORE PUSH1 0x4 CALLDATASIZE LT PUSH2 0x38C JUMPI PUSH1 0x0 CALLDATALOAD PUSH1 0xE0 SHR DUP1 PUSH4 0x853828B6 GT PUSH2 0x1DC JUMPI DUP1 PUSH4 0xB91052F2 GT PUSH2 0x102 JUMPI DUP1 PUSH4 0xCFDB63AC GT PUSH2 0xA0 JUMPI DUP1 PUSH4 0xE985E9C5 GT PUSH2 0x6F JUMPI DUP1 PUSH4 0xE985E9C5 EQ PUSH2 0xA26 JUMPI DUP1 PUSH4 0xEEF62508 EQ PUSH2 0xA6F JUMPI DUP1 PUSH4 0xF0EA4BFC EQ PUSH2 0xA8F JUMPI DUP1 PUSH4 0xF2FDE38B EQ PUSH2 0xAA2 JUMPI PUSH1 0x0 DUP1 REVERT JUMPDEST DUP1 PUSH4 0xCFDB63AC EQ PUSH2 0x9A1 JUMPI DUP1 PUSH4 0xD5ABEB01 EQ PUSH2 0x9D1 JUMPI DUP1 PUSH4 0xD6F46336 EQ PUSH2 0x9E6 JUMPI DUP1 PUSH4 0xE43252D7 EQ PUSH2 0xA06 JUMPI PUSH1 0x0 DUP1 REVERT JUMPDEST DUP1 PUSH4 0xC6A4CD73 GT PUSH2 0xDC JUMPI DUP1 PUSH4 0xC6A4CD73 EQ PUSH2 0x920 JUMPI DUP1 PUSH4 0xC87B56DD EQ PUSH2 0x933 JUMPI DUP1 PUSH4 0xCAD96CCA EQ PUSH2 0x953 JUMPI DUP1 PUSH4 0xCF8F6B00 EQ PUSH2 0x980 JUMPI PUSH1 0x0 DUP1 REVERT JUMPDEST DUP1 PUSH4 0xB91052F2 EQ PUSH2 0x8DF JUMPI DUP1 PUSH4 0xBAF65743 EQ PUSH2 0x8F5 JUMPI DUP1 PUSH4 0xBFDF9B6E EQ PUSH2 0x90B JUMPI PUSH1 0x0 DUP1 REVERT JUMPDEST DUP1 PUSH4 0x95D89B41 GT PUSH2 0x17A JUMPI DUP1 PUSH4 0xA22CB465 GT PUSH2 0x149 JUMPI DUP1 PUSH4 0xA22CB465 EQ PUSH2 0x87D JUMPI DUP1 PUSH4 0xA769CBA9 EQ PUSH2 0x89D JUMPI DUP1 PUSH4 0xB88D4FDE EQ PUSH2 0x8BF JUMPI DUP1 PUSH4 0xB8CB611D EQ PUSH2 0x8DF JUMPI PUSH1 0x0 DUP1 REVERT JUMPDEST DUP1 PUSH4 0x95D89B41 EQ PUSH2 0x7F6 JUMPI DUP1 PUSH4 0x96D74B98 EQ PUSH2 0x80B JUMPI DUP1 PUSH4 0x99C4F9D6 EQ PUSH2 0x82B JUMPI DUP1 PUSH4 0xA0FA8EDE EQ PUSH2 0x84C JUMPI PUSH1 0x0 DUP1 REVERT JUMPDEST DUP1 PUSH4 0x8E26D2AA GT PUSH2 0x1B6 JUMPI DUP1 PUSH4 0x8E26D2AA EQ PUSH2 0x786 JUMPI DUP1 PUSH4 0x8EF6A397 EQ PUSH2 0x7A0 JUMPI DUP1 PUSH4 0x91B7F5ED EQ PUSH2 0x7B5 JUMPI DUP1 PUSH4 0x92FF0D31 EQ PUSH2 0x7D5 JUMPI PUSH1 0x0 DUP1 REVERT JUMPDEST DUP1 PUSH4 0x853828B6 EQ PUSH2 0x740 JUMPI DUP1 PUSH4 0x8AB1D681 EQ PUSH2 0x748 JUMPI DUP1 PUSH4 0x8DA5CB5B EQ PUSH2 0x768 JUMPI PUSH1 0x0 DUP1 REVERT JUMPDEST DUP1 PUSH4 0x42842E0E GT PUSH2 0x2C1 JUMPI DUP1 PUSH4 0x6352211E GT PUSH2 0x25F JUMPI DUP1 PUSH4 0x71C1FD70 GT PUSH2 0x22E JUMPI DUP1 PUSH4 0x71C1FD70 EQ PUSH2 0x6D6 JUMPI DUP1 PUSH4 0x7501F741 EQ PUSH2 0x6F6 JUMPI DUP1 PUSH4 0x77C2B203 EQ PUSH2 0x70B JUMPI DUP1 PUSH4 0x7E1E18A8 EQ PUSH2 0x71E JUMPI PUSH1 0x0 DUP1 REVERT JUMPDEST DUP1 PUSH4 0x6352211E EQ PUSH2 0x660 JUMPI DUP1 PUSH4 0x6EF5E012 EQ PUSH2 0x680 JUMPI DUP1 PUSH4 0x70A08231 EQ PUSH2 0x6A1 JUMPI DUP1 PUSH4 0x715018A6 EQ PUSH2 0x6C1 JUMPI PUSH1 0x0 DUP1 REVERT JUMPDEST DUP1 PUSH4 0x55DD574C GT PUSH2 0x29B JUMPI DUP1 PUSH4 0x55DD574C EQ PUSH2 0x5DF JUMPI DUP1 PUSH4 0x55F804B3 EQ PUSH2 0x5F4 JUMPI DUP1 PUSH4 0x5A733F91 EQ PUSH2 0x614 JUMPI DUP1 PUSH4 0x5C975ABB EQ PUSH2 0x641 JUMPI PUSH1 0x0 DUP1 REVERT JUMPDEST DUP1 PUSH4 0x42842E0E EQ PUSH2 0x57F JUMPI DUP1 PUSH4 0x42966C68 EQ PUSH2 0x59F JUMPI DUP1 PUSH4 0x4F6CCCE7 EQ PUSH2 0x5BF JUMPI PUSH1 0x0 DUP1 REVERT JUMPDEST DUP1 PUSH4 0x18160DDD GT PUSH2 0x32E JUMPI DUP1 PUSH4 0x26A49E37 GT PUSH2 0x308 JUMPI DUP1 PUSH4 0x26A49E37 EQ PUSH2 0x4EB JUMPI DUP1 PUSH4 0x2A55205A EQ PUSH2 0x50B JUMPI DUP1 PUSH4 0x2F745C59 EQ PUSH2 0x54A JUMPI DUP1 PUSH4 0x34918DFD EQ PUSH2 0x56A JUMPI PUSH1 0x0 DUP1 REVERT JUMPDEST DUP1 PUSH4 0x18160DDD EQ PUSH2 0x497 JUMPI DUP1 PUSH4 0x23848D5D EQ PUSH2 0x4B6 JUMPI DUP1 PUSH4 0x23B872DD EQ PUSH2 0x4CB JUMPI PUSH1 0x0 DUP1 REVERT JUMPDEST DUP1 PUSH4 0x81812FC GT PUSH2 0x36A JUMPI DUP1 PUSH4 0x81812FC EQ PUSH2 0x40A JUMPI DUP1 PUSH4 0x95EA7B3 EQ PUSH2 0x442 JUMPI DUP1 PUSH4 0xC1C972A EQ PUSH2 0x462 JUMPI DUP1 PUSH4 0x143094DB EQ PUSH2 0x477 JUMPI PUSH1 0x0 DUP1 REVERT JUMPDEST DUP1 PUSH4 0x1FFC9A7 EQ PUSH2 0x391 JUMPI DUP1 PUSH4 0x4869C1D EQ PUSH2 0x3C6 JUMPI DUP1 PUSH4 0x6FDDE03 EQ PUSH2 0x3E8 JUMPI JUMPDEST PUSH1 0x0 DUP1 REVERT JUMPDEST CALLVALUE DUP1 ISZERO PUSH2 0x39D JUMPI PUSH1 0x0 DUP1 REVERT JUMPDEST POP PUSH2 0x3B1 PUSH2 0x3AC CALLDATASIZE PUSH1 0x4 PUSH2 0x38FD JUMP JUMPDEST PUSH2 0xAC2 JUMP JUMPDEST PUSH1 0x40 MLOAD SWAP1 ISZERO ISZERO DUP2 MSTORE PUSH1 0x20 ADD JUMPDEST PUSH1 0x40 MLOAD DUP1 SWAP2 SUB SWAP1 RETURN JUMPDEST CALLVALUE DUP1 ISZERO PUSH2 0x3D2 JUMPI PUSH1 0x0 DUP1 REVERT JUMPDEST POP PUSH2 0x3E6 PUSH2 0x3E1 CALLDATASIZE PUSH1 0x4 PUSH2 0x392F JUMP JUMPDEST PUSH2 0xB13 JUMP JUMPDEST STOP JUMPDEST CALLVALUE DUP1 ISZERO PUSH2 0x3F4 JUMPI PUSH1 0x0 DUP1 REVERT JUMPDEST POP PUSH2 0x3FD PUSH2 0xB39 JUMP JUMPDEST PUSH1 0x40 MLOAD PUSH2 0x3BD SWAP2 SWAP1 PUSH2 0x399A JUMP JUMPDEST CALLVALUE DUP1 ISZERO PUSH2 0x416 JUMPI PUSH1 0x0 DUP1 REVERT JUMPDEST POP PUSH2 0x42A PUSH2 0x425 CALLDATASIZE PUSH1 0x4 PUSH2 0x39AD JUMP JUMPDEST PUSH2 0xBCB JUMP JUMPDEST PUSH1 0x40 MLOAD PUSH1 0x1 PUSH1 0x1 PUSH1 0xA0 SHL SUB SWAP1 SWAP2 AND DUP2 MSTORE PUSH1 0x20 ADD PUSH2 0x3BD JUMP JUMPDEST CALLVALUE DUP1 ISZERO PUSH2 0x44E JUMPI PUSH1 0x0 DUP1 REVERT JUMPDEST POP PUSH2 0x3E6 PUSH2 0x45D CALLDATASIZE PUSH1 0x4 PUSH2 0x39DB JUMP JUMPDEST PUSH2 0xBF2 JUMP JUMPDEST CALLVALUE DUP1 ISZERO PUSH2 0x46E JUMPI PUSH1 0x0 DUP1 REVERT JUMPDEST POP PUSH2 0x3E6 PUSH2 0xD0C JUMP JUMPDEST CALLVALUE DUP1 ISZERO PUSH2 0x483 JUMPI PUSH1 0x0 DUP1 REVERT JUMPDEST POP PUSH2 0x3E6 PUSH2 0x492 CALLDATASIZE PUSH1 0x4 PUSH2 0x3A1E JUMP JUMPDEST PUSH2 0xD4D JUMP JUMPDEST CALLVALUE DUP1 ISZERO PUSH2 0x4A3 JUMPI PUSH1 0x0 DUP1 REVERT JUMPDEST POP PUSH1 0x8 SLOAD JUMPDEST PUSH1 0x40 MLOAD SWAP1 DUP2 MSTORE PUSH1 0x20 ADD PUSH2 0x3BD JUMP JUMPDEST CALLVALUE DUP1 ISZERO PUSH2 0x4C2 JUMPI PUSH1 0x0 DUP1 REVERT JUMPDEST POP PUSH2 0x3E6 PUSH2 0xE09 JUMP JUMPDEST CALLVALUE DUP1 ISZERO PUSH2 0x4D7 JUMPI PUSH1 0x0 DUP1 REVERT JUMPDEST POP PUSH2 0x3E6 PUSH2 0x4E6 CALLDATASIZE PUSH1 0x4 PUSH2 0x3A5C JUMP JUMPDEST PUSH2 0xE32 JUMP JUMPDEST CALLVALUE DUP1 ISZERO PUSH2 0x4F7 JUMPI PUSH1 0x0 DUP1 REVERT JUMPDEST POP PUSH2 0x4A8 PUSH2 0x506 CALLDATASIZE PUSH1 0x4 PUSH2 0x39AD JUMP JUMPDEST PUSH2 0xE64 JUMP JUMPDEST CALLVALUE DUP1 ISZERO PUSH2 0x517 JUMPI PUSH1 0x0 DUP1 REVERT JUMPDEST POP PUSH2 0x52B PUSH2 0x526 CALLDATASIZE PUSH1 0x4 PUSH2 0x3A9D JUMP JUMPDEST PUSH2 0xE74 JUMP JUMPDEST PUSH1 0x40 DUP1 MLOAD PUSH1 0x1 PUSH1 0x1 PUSH1 0xA0 SHL SUB SWAP1 SWAP4 AND DUP4 MSTORE PUSH1 0x20 DUP4 ADD SWAP2 SWAP1 SWAP2 MSTORE ADD PUSH2 0x3BD JUMP JUMPDEST CALLVALUE DUP1 ISZERO PUSH2 0x556 JUMPI PUSH1 0x0 DUP1 REVERT JUMPDEST POP PUSH2 0x4A8 PUSH2 0x565 CALLDATASIZE PUSH1 0x4 PUSH2 0x39DB JUMP JUMPDEST PUSH2 0xF7A JUMP JUMPDEST CALLVALUE DUP1 ISZERO PUSH2 0x576 JUMPI PUSH1 0x0 DUP1 REVERT JUMPDEST POP PUSH2 0x3E6 PUSH2 0x1010 JUMP JUMPDEST CALLVALUE DUP1 ISZERO PUSH2 0x58B JUMPI PUSH1 0x0 DUP1 REVERT JUMPDEST POP PUSH2 0x3E6 PUSH2 0x59A CALLDATASIZE PUSH1 0x4 PUSH2 0x3A5C JUMP JUMPDEST PUSH2 0x102C JUMP JUMPDEST CALLVALUE DUP1 ISZERO PUSH2 0x5AB JUMPI PUSH1 0x0 DUP1 REVERT JUMPDEST POP PUSH2 0x3E6 PUSH2 0x5BA CALLDATASIZE PUSH1 0x4 PUSH2 0x39AD JUMP JUMPDEST PUSH2 0x1047 JUMP JUMPDEST CALLVALUE DUP1 ISZERO PUSH2 0x5CB JUMPI PUSH1 0x0 DUP1 REVERT JUMPDEST POP PUSH2 0x4A8 PUSH2 0x5DA CALLDATASIZE PUSH1 0x4 PUSH2 0x39AD JUMP JUMPDEST PUSH2 0x1078 JUMP JUMPDEST CALLVALUE DUP1 ISZERO PUSH2 0x5EB JUMPI PUSH1 0x0 DUP1 REVERT JUMPDEST POP PUSH2 0x3E6 PUSH2 0x110B JUMP JUMPDEST CALLVALUE DUP1 ISZERO PUSH2 0x600 JUMPI PUSH1 0x0 DUP1 REVERT JUMPDEST POP PUSH2 0x3E6 PUSH2 0x60F CALLDATASIZE PUSH1 0x4 PUSH2 0x3B6B JUMP JUMPDEST PUSH2 0x1132 JUMP JUMPDEST CALLVALUE DUP1 ISZERO PUSH2 0x620 JUMPI PUSH1 0x0 DUP1 REVERT JUMPDEST POP PUSH2 0x634 PUSH2 0x62F CALLDATASIZE PUSH1 0x4 PUSH2 0x39AD JUMP JUMPDEST PUSH2 0x114A JUMP JUMPDEST PUSH1 0x40 MLOAD PUSH2 0x3BD SWAP2 SWAP1 PUSH2 0x3BE5 JUMP JUMPDEST CALLVALUE DUP1 ISZERO PUSH2 0x64D JUMPI PUSH1 0x0 DUP1 REVERT JUMPDEST POP PUSH1 0xA SLOAD PUSH1 0x1 PUSH1 0xA0 SHL SWAP1 DIV PUSH1 0xFF AND PUSH2 0x3B1 JUMP JUMPDEST CALLVALUE DUP1 ISZERO PUSH2 0x66C JUMPI PUSH1 0x0 DUP1 REVERT JUMPDEST POP PUSH2 0x42A PUSH2 0x67B CALLDATASIZE PUSH1 0x4 PUSH2 0x39AD JUMP JUMPDEST PUSH2 0x123C JUMP JUMPDEST CALLVALUE DUP1 ISZERO PUSH2 0x68C JUMPI PUSH1 0x0 DUP1 REVERT JUMPDEST POP PUSH1 0x11 SLOAD PUSH2 0x3B1 SWAP1 PUSH1 0x1 PUSH1 0x60 SHL SWAP1 DIV PUSH1 0xFF AND DUP2 JUMP JUMPDEST CALLVALUE DUP1 ISZERO PUSH2 0x6AD JUMPI PUSH1 0x0 DUP1 REVERT JUMPDEST POP PUSH2 0x4A8 PUSH2 0x6BC CALLDATASIZE PUSH1 0x4 PUSH2 0x3BF8 JUMP JUMPDEST PUSH2 0x129C JUMP JUMPDEST CALLVALUE DUP1 ISZERO PUSH2 0x6CD JUMPI PUSH1 0x0 DUP1 REVERT JUMPDEST POP PUSH2 0x3E6 PUSH2 0x1322 JUMP JUMPDEST CALLVALUE DUP1 ISZERO PUSH2 0x6E2 JUMPI PUSH1 0x0 DUP1 REVERT JUMPDEST POP PUSH2 0x3E6 PUSH2 0x6F1 CALLDATASIZE PUSH1 0x4 PUSH2 0x392F JUMP JUMPDEST PUSH2 0x1336 JUMP JUMPDEST CALLVALUE DUP1 ISZERO PUSH2 0x702 JUMPI PUSH1 0x0 DUP1 REVERT JUMPDEST POP PUSH1 0x10 SLOAD PUSH2 0x4A8 JUMP JUMPDEST PUSH2 0x3E6 PUSH2 0x719 CALLDATASIZE PUSH1 0x4 PUSH2 0x3C26 JUMP JUMPDEST PUSH2 0x135C JUMP JUMPDEST CALLVALUE DUP1 ISZERO PUSH2 0x72A JUMPI PUSH1 0x0 DUP1 REVERT JUMPDEST POP PUSH2 0x733 PUSH2 0x1908 JUMP JUMPDEST PUSH1 0x40 MLOAD PUSH2 0x3BD SWAP2 SWAP1 PUSH2 0x3CA1 JUMP JUMPDEST PUSH2 0x3E6 PUSH2 0x1A88 JUMP JUMPDEST CALLVALUE DUP1 ISZERO PUSH2 0x754 JUMPI PUSH1 0x0 DUP1 REVERT JUMPDEST POP PUSH2 0x3E6 PUSH2 0x763 CALLDATASIZE PUSH1 0x4 PUSH2 0x3BF8 JUMP JUMPDEST PUSH2 0x1AF3 JUMP JUMPDEST CALLVALUE DUP1 ISZERO PUSH2 0x774 JUMPI PUSH1 0x0 DUP1 REVERT JUMPDEST POP PUSH1 0xA SLOAD PUSH1 0x1 PUSH1 0x1 PUSH1 0xA0 SHL SUB AND PUSH2 0x42A JUMP JUMPDEST CALLVALUE DUP1 ISZERO PUSH2 0x792 JUMPI PUSH1 0x0 DUP1 REVERT JUMPDEST POP PUSH1 0xD SLOAD PUSH2 0x3B1 SWAP1 PUSH1 0xFF AND DUP2 JUMP JUMPDEST CALLVALUE DUP1 ISZERO PUSH2 0x7AC JUMPI PUSH1 0x0 DUP1 REVERT JUMPDEST POP PUSH1 0x14 SLOAD PUSH2 0x4A8 JUMP JUMPDEST CALLVALUE DUP1 ISZERO PUSH2 0x7C1 JUMPI PUSH1 0x0 DUP1 REVERT JUMPDEST POP PUSH2 0x3E6 PUSH2 0x7D0 CALLDATASIZE PUSH1 0x4 PUSH2 0x39AD JUMP JUMPDEST PUSH2 0x1B1C JUMP JUMPDEST CALLVALUE DUP1 ISZERO PUSH2 0x7E1 JUMPI PUSH1 0x0 DUP1 REVERT JUMPDEST POP PUSH1 0x11 SLOAD PUSH2 0x3B1 SWAP1 PUSH1 0x1 PUSH1 0x78 SHL SWAP1 DIV PUSH1 0xFF AND DUP2 JUMP JUMPDEST CALLVALUE DUP1 ISZERO PUSH2 0x802 JUMPI PUSH1 0x0 DUP1 REVERT JUMPDEST POP PUSH2 0x3FD PUSH2 0x1B29 JUMP JUMPDEST CALLVALUE DUP1 ISZERO PUSH2 0x817 JUMPI PUSH1 0x0 DUP1 REVERT JUMPDEST POP PUSH2 0x3E6 PUSH2 0x826 CALLDATASIZE PUSH1 0x4 PUSH2 0x3D03 JUMP JUMPDEST PUSH2 0x1B38 JUMP JUMPDEST CALLVALUE DUP1 ISZERO PUSH2 0x837 JUMPI PUSH1 0x0 DUP1 REVERT JUMPDEST POP PUSH1 0x11 SLOAD PUSH2 0x3B1 SWAP1 PUSH1 0x1 PUSH1 0x70 SHL SWAP1 DIV PUSH1 0xFF AND DUP2 JUMP JUMPDEST CALLVALUE DUP1 ISZERO PUSH2 0x858 JUMPI PUSH1 0x0 DUP1 REVERT JUMPDEST POP PUSH2 0x86C PUSH2 0x867 CALLDATASIZE PUSH1 0x4 PUSH2 0x39AD JUMP JUMPDEST PUSH2 0x1B67 JUMP JUMPDEST PUSH1 0x40 MLOAD PUSH2 0x3BD SWAP6 SWAP5 SWAP4 SWAP3 SWAP2 SWAP1 PUSH2 0x3D1E JUMP JUMPDEST CALLVALUE DUP1 ISZERO PUSH2 0x889 JUMPI PUSH1 0x0 DUP1 REVERT JUMPDEST POP PUSH2 0x3E6 PUSH2 0x898 CALLDATASIZE PUSH1 0x4 PUSH2 0x3D5C JUMP JUMPDEST PUSH2 0x1C2A JUMP JUMPDEST CALLVALUE DUP1 ISZERO PUSH2 0x8A9 JUMPI PUSH1 0x0 DUP1 REVERT JUMPDEST POP PUSH2 0x8B2 PUSH2 0x1C35 JUMP JUMPDEST PUSH1 0x40 MLOAD PUSH2 0x3BD SWAP2 SWAP1 PUSH2 0x3D91 JUMP JUMPDEST CALLVALUE DUP1 ISZERO PUSH2 0x8CB JUMPI PUSH1 0x0 DUP1 REVERT JUMPDEST POP PUSH2 0x3E6 PUSH2 0x8DA CALLDATASIZE PUSH1 0x4 PUSH2 0x3DD5 JUMP JUMPDEST PUSH2 0x1C8C JUMP JUMPDEST CALLVALUE DUP1 ISZERO PUSH2 0x8EB JUMPI PUSH1 0x0 DUP1 REVERT JUMPDEST POP PUSH2 0x4A8 PUSH2 0x3E8 DUP2 JUMP JUMPDEST CALLVALUE DUP1 ISZERO PUSH2 0x901 JUMPI PUSH1 0x0 DUP1 REVERT JUMPDEST POP PUSH2 0x4A8 PUSH1 0x14 SLOAD DUP2 JUMP JUMPDEST CALLVALUE DUP1 ISZERO PUSH2 0x917 JUMPI PUSH1 0x0 DUP1 REVERT JUMPDEST POP PUSH1 0xF SLOAD PUSH2 0x4A8 JUMP JUMPDEST PUSH2 0x4A8 PUSH2 0x92E CALLDATASIZE PUSH1 0x4 PUSH2 0x3E55 JUMP JUMPDEST PUSH2 0x1CBE JUMP JUMPDEST CALLVALUE DUP1 ISZERO PUSH2 0x93F JUMPI PUSH1 0x0 DUP1 REVERT JUMPDEST POP PUSH2 0x3FD PUSH2 0x94E CALLDATASIZE PUSH1 0x4 PUSH2 0x39AD JUMP JUMPDEST PUSH2 0x216B JUMP JUMPDEST CALLVALUE DUP1 ISZERO PUSH2 0x95F JUMPI PUSH1 0x0 DUP1 REVERT JUMPDEST POP PUSH2 0x973 PUSH2 0x96E CALLDATASIZE PUSH1 0x4 PUSH2 0x39AD JUMP JUMPDEST PUSH2 0x21D2 JUMP JUMPDEST PUSH1 0x40 MLOAD PUSH2 0x3BD SWAP2 SWAP1 PUSH2 0x3EFB JUMP JUMPDEST CALLVALUE DUP1 ISZERO PUSH2 0x98C JUMPI PUSH1 0x0 DUP1 REVERT JUMPDEST POP PUSH1 0x11 SLOAD PUSH2 0x3B1 SWAP1 PUSH1 0x1 PUSH1 0x68 SHL SWAP1 DIV PUSH1 0xFF AND DUP2 JUMP JUMPDEST CALLVALUE DUP1 ISZERO PUSH2 0x9AD JUMPI PUSH1 0x0 DUP1 REVERT JUMPDEST POP PUSH2 0x3B1 PUSH2 0x9BC CALLDATASIZE PUSH1 0x4 PUSH2 0x3BF8 JUMP JUMPDEST PUSH1 0x16 PUSH1 0x20 MSTORE PUSH1 0x0 SWAP1 DUP2 MSTORE PUSH1 0x40 SWAP1 KECCAK256 SLOAD PUSH1 0xFF AND DUP2 JUMP JUMPDEST CALLVALUE DUP1 ISZERO PUSH2 0x9DD JUMPI PUSH1 0x0 DUP1 REVERT JUMPDEST POP PUSH2 0x4A8 PUSH2 0x2261 JUMP JUMPDEST CALLVALUE DUP1 ISZERO PUSH2 0x9F2 JUMPI PUSH1 0x0 DUP1 REVERT JUMPDEST POP PUSH2 0x3E6 PUSH2 0xA01 CALLDATASIZE PUSH1 0x4 PUSH2 0x392F JUMP JUMPDEST PUSH2 0x2274 JUMP JUMPDEST CALLVALUE DUP1 ISZERO PUSH2 0xA12 JUMPI PUSH1 0x0 DUP1 REVERT JUMPDEST POP PUSH2 0x3E6 PUSH2 0xA21 CALLDATASIZE PUSH1 0x4 PUSH2 0x3BF8 JUMP JUMPDEST PUSH2 0x229A JUMP JUMPDEST CALLVALUE DUP1 ISZERO PUSH2 0xA32 JUMPI PUSH1 0x0 DUP1 REVERT JUMPDEST POP PUSH2 0x3B1 PUSH2 0xA41 CALLDATASIZE PUSH1 0x4 PUSH2 0x3F0E JUMP JUMPDEST PUSH1 0x1 PUSH1 0x1 PUSH1 0xA0 SHL SUB SWAP2 DUP3 AND PUSH1 0x0 SWAP1 DUP2 MSTORE PUSH1 0x5 PUSH1 0x20 SWAP1 DUP2 MSTORE PUSH1 0x40 DUP1 DUP4 KECCAK256 SWAP4 SWAP1 SWAP5 AND DUP3 MSTORE SWAP2 SWAP1 SWAP2 MSTORE KECCAK256 SLOAD PUSH1 0xFF AND SWAP1 JUMP JUMPDEST CALLVALUE DUP1 ISZERO PUSH2 0xA7B JUMPI PUSH1 0x0 DUP1 REVERT JUMPDEST POP PUSH2 0x8B2 PUSH2 0xA8A CALLDATASIZE PUSH1 0x4 PUSH2 0x3BF8 JUMP JUMPDEST PUSH2 0x22C6 JUMP JUMPDEST CALLVALUE DUP1 ISZERO PUSH2 0xA9B JUMPI PUSH1 0x0 DUP1 REVERT JUMPDEST POP SELFBALANCE PUSH2 0x4A8 JUMP JUMPDEST CALLVALUE DUP1 ISZERO PUSH2 0xAAE JUMPI PUSH1 0x0 DUP1 REVERT JUMPDEST POP PUSH2 0x3E6 PUSH2 0xABD CALLDATASIZE PUSH1 0x4 PUSH2 0x3BF8 JUMP JUMPDEST PUSH2 0x2368 JUMP JUMPDEST PUSH1 0x0 PUSH4 0x1A93499B PUSH1 0xE1 SHL PUSH1 0x1 PUSH1 0x1 PUSH1 0xE0 SHL SUB NOT DUP4 AND ADD PUSH2 0xAE4 JUMPI POP PUSH1 0x1 SWAP2 SWAP1 POP JUMP JUMPDEST PUSH4 0x6AD56FD3 PUSH1 0xE1 SHL PUSH1 0x1 PUSH1 0x1 PUSH1 0xE0 SHL SUB NOT DUP4 AND ADD PUSH2 0xB04 JUMPI POP PUSH1 0x1 SWAP2 SWAP1 POP JUMP JUMPDEST PUSH2 0xB0D DUP3 PUSH2 0x23DE JUMP JUMPDEST SWAP3 SWAP2 POP POP JUMP JUMPDEST PUSH2 0xB1B PUSH2 0x2403 JUMP JUMPDEST PUSH1 0x11 DUP1 SLOAD SWAP2 ISZERO ISZERO PUSH1 0x1 PUSH1 0x78 SHL MUL PUSH1 0xFF PUSH1 0x78 SHL NOT SWAP1 SWAP3 AND SWAP2 SWAP1 SWAP2 OR SWAP1 SSTORE JUMP JUMPDEST PUSH1 0x60 PUSH1 0x0 DUP1 SLOAD PUSH2 0xB48 SWAP1 PUSH2 0x3F47 JUMP JUMPDEST DUP1 PUSH1 0x1F ADD PUSH1 0x20 DUP1 SWAP2 DIV MUL PUSH1 0x20 ADD PUSH1 0x40 MLOAD SWAP1 DUP2 ADD PUSH1 0x40 MSTORE DUP1 SWAP3 SWAP2 SWAP1 DUP2 DUP2 MSTORE PUSH1 0x20 ADD DUP3 DUP1 SLOAD PUSH2 0xB74 SWAP1 PUSH2 0x3F47 JUMP JUMPDEST DUP1 ISZERO PUSH2 0xBC1 JUMPI DUP1 PUSH1 0x1F LT PUSH2 0xB96 JUMPI PUSH2 0x100 DUP1 DUP4 SLOAD DIV MUL DUP4 MSTORE SWAP2 PUSH1 0x20 ADD SWAP2 PUSH2 0xBC1 JUMP JUMPDEST DUP3 ADD SWAP2 SWAP1 PUSH1 0x0 MSTORE PUSH1 0x20 PUSH1 0x0 KECCAK256 SWAP1 JUMPDEST DUP2 SLOAD DUP2 MSTORE SWAP1 PUSH1 0x1 ADD SWAP1 PUSH1 0x20 ADD DUP1 DUP4 GT PUSH2 0xBA4 JUMPI DUP3 SWAP1 SUB PUSH1 0x1F AND DUP3 ADD SWAP2 JUMPDEST POP POP POP POP POP SWAP1 POP SWAP1 JUMP JUMPDEST PUSH1 0x0 PUSH2 0xBD6 DUP3 PUSH2 0x245D JUMP JUMPDEST POP PUSH1 0x0 SWAP1 DUP2 MSTORE PUSH1 0x4 PUSH1 0x20 MSTORE PUSH1 0x40 SWAP1 KECCAK256 SLOAD PUSH1 0x1 PUSH1 0x1 PUSH1 0xA0 SHL SUB AND SWAP1 JUMP JUMPDEST PUSH1 0x0 PUSH2 0xBFD DUP3 PUSH2 0x123C JUMP JUMPDEST SWAP1 POP DUP1 PUSH1 0x1 PUSH1 0x1 PUSH1 0xA0 SHL SUB AND DUP4 PUSH1 0x1 PUSH1 0x1 PUSH1 0xA0 SHL SUB AND SUB PUSH2 0xC6F JUMPI PUSH1 0x40 MLOAD PUSH3 0x461BCD PUSH1 0xE5 SHL DUP2 MSTORE PUSH1 0x20 PUSH1 0x4 DUP3 ADD MSTORE PUSH1 0x21 PUSH1 0x24 DUP3 ADD MSTORE PUSH32 0x4552433732313A20617070726F76616C20746F2063757272656E74206F776E65 PUSH1 0x44 DUP3 ADD MSTORE PUSH1 0x39 PUSH1 0xF9 SHL PUSH1 0x64 DUP3 ADD MSTORE PUSH1 0x84 ADD JUMPDEST PUSH1 0x40 MLOAD DUP1 SWAP2 SUB SWAP1 REVERT JUMPDEST CALLER PUSH1 0x1 PUSH1 0x1 PUSH1 0xA0 SHL SUB DUP3 AND EQ DUP1 PUSH2 0xC8B JUMPI POP PUSH2 0xC8B DUP2 CALLER PUSH2 0xA41 JUMP JUMPDEST PUSH2 0xCFD JUMPI PUSH1 0x40 MLOAD PUSH3 0x461BCD PUSH1 0xE5 SHL DUP2 MSTORE PUSH1 0x20 PUSH1 0x4 DUP3 ADD MSTORE PUSH1 0x3E PUSH1 0x24 DUP3 ADD MSTORE PUSH32 0x4552433732313A20617070726F76652063616C6C6572206973206E6F7420746F PUSH1 0x44 DUP3 ADD MSTORE PUSH32 0x6B656E206F776E6572206E6F7220617070726F76656420666F7220616C6C0000 PUSH1 0x64 DUP3 ADD MSTORE PUSH1 0x84 ADD PUSH2 0xC66 JUMP JUMPDEST PUSH2 0xD07 DUP4 DUP4 PUSH2 0x24BC JUMP JUMPDEST POP POP POP JUMP JUMPDEST PUSH2 0xD14 PUSH2 0x2403 JUMP JUMPDEST PUSH1 0x17 DUP1 SLOAD PUSH1 0xFF NOT SWAP1 DUP2 AND SWAP1 SWAP2 SSTORE PUSH1 0xD DUP1 SLOAD SWAP1 SWAP2 AND PUSH1 0x1 OR SWAP1 SSTORE PUSH2 0xD39 PUSH2 0x3E8 DUP1 PUSH2 0x3F91 JUMP JUMPDEST PUSH1 0xF SSTORE PUSH2 0xD48 PUSH2 0x3E8 DUP1 PUSH2 0x3F91 JUMP JUMPDEST PUSH1 0x10 SSTORE JUMP JUMPDEST PUSH2 0xD55 PUSH2 0x2403 JUMP JUMPDEST PUSH1 0x40 DUP1 MLOAD PUSH1 0x1 DUP1 DUP3 MSTORE DUP2 DUP4 ADD SWAP1 SWAP3 MSTORE PUSH1 0x0 SWAP2 DUP2 PUSH1 0x20 ADD JUMPDEST PUSH1 0x40 DUP1 MLOAD DUP1 DUP3 ADD SWAP1 SWAP2 MSTORE PUSH1 0x0 DUP1 DUP3 MSTORE PUSH1 0x20 DUP3 ADD MSTORE DUP2 MSTORE PUSH1 0x20 ADD SWAP1 PUSH1 0x1 SWAP1 SUB SWAP1 DUP2 PUSH2 0xD6C JUMPI SWAP1 POP POP SWAP1 POP DUP2 DUP2 PUSH1 0x0 DUP2 MLOAD DUP2 LT PUSH2 0xDA9 JUMPI PUSH2 0xDA9 PUSH2 0x3FB0 JUMP JUMPDEST PUSH1 0x20 MUL PUSH1 0x20 ADD ADD MLOAD PUSH1 0x20 ADD SWAP1 PUSH1 0x1 PUSH1 0x1 PUSH1 0x60 SHL SUB AND SWAP1 DUP2 PUSH1 0x1 PUSH1 0x1 PUSH1 0x60 SHL SUB AND DUP2 MSTORE POP POP DUP3 DUP2 PUSH1 0x0 DUP2 MLOAD DUP2 LT PUSH2 0xDE1 JUMPI PUSH2 0xDE1 PUSH2 0x3FB0 JUMP JUMPDEST PUSH1 0x20 SWAP1 DUP2 MUL SWAP2 SWAP1 SWAP2 ADD ADD MLOAD PUSH1 0x1 PUSH1 0x1 PUSH1 0xA0 SHL SUB SWAP1 SWAP2 AND SWAP1 MSTORE PUSH2 0xE03 DUP5 DUP3 PUSH2 0x252A JUMP JUMPDEST POP POP POP POP JUMP JUMPDEST PUSH2 0xE11 PUSH2 0x2403 JUMP JUMPDEST PUSH1 0x11 DUP1 SLOAD PUSH1 0xFF PUSH1 0x70 SHL NOT DUP2 AND PUSH1 0x1 PUSH1 0x70 SHL SWAP2 DUP3 SWAP1 DIV PUSH1 0xFF AND ISZERO SWAP1 SWAP2 MUL OR SWAP1 SSTORE JUMP JUMPDEST PUSH2 0xE3D CALLER JUMPDEST DUP3 PUSH2 0x2743 JUMP JUMPDEST PUSH2 0xE59 JUMPI PUSH1 0x40 MLOAD PUSH3 0x461BCD PUSH1 0xE5 SHL DUP2 MSTORE PUSH1 0x4 ADD PUSH2 0xC66 SWAP1 PUSH2 0x3FC6 JUMP JUMPDEST PUSH2 0xD07 DUP4 DUP4 DUP4 PUSH2 0x27C1 JUMP JUMPDEST PUSH1 0xE SLOAD PUSH1 0x0 SWAP1 PUSH2 0xB0D SWAP1 DUP4 PUSH2 0x2968 JUMP JUMPDEST PUSH1 0x0 DUP3 DUP2 MSTORE PUSH1 0xB PUSH1 0x20 SWAP1 DUP2 MSTORE PUSH1 0x40 DUP1 DUP4 KECCAK256 DUP1 SLOAD DUP3 MLOAD DUP2 DUP6 MUL DUP2 ADD DUP6 ADD SWAP1 SWAP4 MSTORE DUP1 DUP4 MSTORE DUP5 SWAP4 DUP5 SWAP4 SWAP3 SWAP2 SWAP1 DUP5 SWAP1 DUP5 ADD JUMPDEST DUP3 DUP3 LT ISZERO PUSH2 0xEF1 JUMPI PUSH1 0x0 DUP5 DUP2 MSTORE PUSH1 0x20 SWAP1 DUP2 SWAP1 KECCAK256 PUSH1 0x40 DUP1 MLOAD DUP1 DUP3 ADD SWAP1 SWAP2 MSTORE SWAP1 DUP5 ADD SLOAD PUSH1 0x1 PUSH1 0x1 PUSH1 0xA0 SHL SUB DUP2 AND DUP3 MSTORE PUSH1 0x1 PUSH1 0xA0 SHL SWAP1 DIV PUSH1 0x1 PUSH1 0x1 PUSH1 0x60 SHL SUB AND DUP2 DUP4 ADD MSTORE DUP3 MSTORE PUSH1 0x1 SWAP1 SWAP3 ADD SWAP2 ADD PUSH2 0xEA2 JUMP JUMPDEST POP POP POP POP SWAP1 POP PUSH1 0x0 DUP2 MLOAD GT ISZERO PUSH2 0xF6A JUMPI DUP1 PUSH1 0x0 DUP2 MLOAD DUP2 LT PUSH2 0xF14 JUMPI PUSH2 0xF14 PUSH2 0x3FB0 JUMP JUMPDEST PUSH1 0x20 MUL PUSH1 0x20 ADD ADD MLOAD PUSH1 0x0 ADD MLOAD PUSH2 0x2710 DUP3 PUSH1 0x0 DUP2 MLOAD DUP2 LT PUSH2 0xF36 JUMPI PUSH2 0xF36 PUSH2 0x3FB0 JUMP JUMPDEST PUSH1 0x20 MUL PUSH1 0x20 ADD ADD MLOAD PUSH1 0x20 ADD MLOAD PUSH1 0x1 PUSH1 0x1 PUSH1 0x60 SHL SUB AND DUP7 PUSH2 0xF56 SWAP2 SWAP1 PUSH2 0x3F91 JUMP JUMPDEST PUSH2 0xF60 SWAP2 SWAP1 PUSH2 0x402A JUMP JUMPDEST SWAP3 POP SWAP3 POP POP PUSH2 0xF73 JUMP JUMPDEST PUSH1 0x0 DUP1 SWAP3 POP SWAP3 POP POP JUMPDEST SWAP3 POP SWAP3 SWAP1 POP JUMP JUMPDEST PUSH1 0x0 PUSH2 0xF85 DUP4 PUSH2 0x129C JUMP JUMPDEST DUP3 LT PUSH2 0xFE7 JUMPI PUSH1 0x40 MLOAD PUSH3 0x461BCD PUSH1 0xE5 SHL DUP2 MSTORE PUSH1 0x20 PUSH1 0x4 DUP3 ADD MSTORE PUSH1 0x2B PUSH1 0x24 DUP3 ADD MSTORE PUSH32 0x455243373231456E756D657261626C653A206F776E657220696E646578206F75 PUSH1 0x44 DUP3 ADD MSTORE PUSH11 0x74206F6620626F756E6473 PUSH1 0xA8 SHL PUSH1 0x64 DUP3 ADD MSTORE PUSH1 0x84 ADD PUSH2 0xC66 JUMP JUMPDEST POP PUSH1 0x1 PUSH1 0x1 PUSH1 0xA0 SHL SUB SWAP2 SWAP1 SWAP2 AND PUSH1 0x0 SWAP1 DUP2 MSTORE PUSH1 0x6 PUSH1 0x20 SWAP1 DUP2 MSTORE PUSH1 0x40 DUP1 DUP4 KECCAK256 SWAP4 DUP4 MSTORE SWAP3 SWAP1 MSTORE KECCAK256 SLOAD SWAP1 JUMP JUMPDEST PUSH2 0x1018 PUSH2 0x2403 JUMP JUMPDEST PUSH1 0xD DUP1 SLOAD PUSH1 0xFF NOT DUP2 AND PUSH1 0xFF SWAP1 SWAP2 AND ISZERO OR SWAP1 SSTORE JUMP JUMPDEST PUSH2 0xD07 DUP4 DUP4 DUP4 PUSH1 0x40 MLOAD DUP1 PUSH1 0x20 ADD PUSH1 0x40 MSTORE DUP1 PUSH1 0x0 DUP2 MSTORE POP PUSH2 0x1C8C JUMP JUMPDEST PUSH2 0x1050 CALLER PUSH2 0xE37 JUMP JUMPDEST PUSH2 0x106C JUMPI PUSH1 0x40 MLOAD PUSH3 0x461BCD PUSH1 0xE5 SHL DUP2 MSTORE PUSH1 0x4 ADD PUSH2 0xC66 SWAP1 PUSH2 0x3FC6 JUMP JUMPDEST PUSH2 0x1075 DUP2 PUSH2 0x2974 JUMP JUMPDEST POP JUMP JUMPDEST PUSH1 0x0 PUSH2 0x1083 PUSH1 0x8 SLOAD SWAP1 JUMP JUMPDEST DUP3 LT PUSH2 0x10E6 JUMPI PUSH1 0x40 MLOAD PUSH3 0x461BCD PUSH1 0xE5 SHL DUP2 MSTORE PUSH1 0x20 PUSH1 0x4 DUP3 ADD MSTORE PUSH1 0x2C PUSH1 0x24 DUP3 ADD MSTORE PUSH32 0x455243373231456E756D657261626C653A20676C6F62616C20696E646578206F PUSH1 0x44 DUP3 ADD MSTORE PUSH12 0x7574206F6620626F756E6473 PUSH1 0xA0 SHL PUSH1 0x64 DUP3 ADD MSTORE PUSH1 0x84 ADD PUSH2 0xC66 JUMP JUMPDEST PUSH1 0x8 DUP3 DUP2 SLOAD DUP2 LT PUSH2 0x10F9 JUMPI PUSH2 0x10F9 PUSH2 0x3FB0 JUMP JUMPDEST SWAP1 PUSH1 0x0 MSTORE PUSH1 0x20 PUSH1 0x0 KECCAK256 ADD SLOAD SWAP1 POP SWAP2 SWAP1 POP JUMP JUMPDEST PUSH2 0x1113 PUSH2 0x2403 JUMP JUMPDEST PUSH1 0x17 DUP1 SLOAD PUSH1 0x1 PUSH1 0xFF NOT SWAP2 DUP3 AND DUP2 OR SWAP1 SWAP3 SSTORE PUSH1 0xD DUP1 SLOAD SWAP1 SWAP2 AND SWAP1 SWAP2 OR SWAP1 SSTORE JUMP JUMPDEST PUSH2 0x113A PUSH2 0x2403 JUMP JUMPDEST PUSH1 0x18 PUSH2 0x1146 DUP3 DUP3 PUSH2 0x408C JUMP JUMPDEST POP POP JUMP JUMPDEST PUSH2 0x1152 PUSH2 0x38AF JUMP JUMPDEST PUSH1 0x0 DUP3 DUP2 MSTORE PUSH1 0x15 PUSH1 0x20 SWAP1 DUP2 MSTORE PUSH1 0x40 SWAP2 DUP3 SWAP1 KECCAK256 DUP3 MLOAD PUSH1 0xA0 DUP2 ADD DUP5 MSTORE DUP2 SLOAD DUP2 MSTORE PUSH1 0x1 DUP3 ADD SLOAD SWAP3 DUP2 ADD SWAP3 SWAP1 SWAP3 MSTORE PUSH1 0x2 DUP2 ADD SLOAD SWAP3 DUP3 ADD SWAP3 SWAP1 SWAP3 MSTORE PUSH1 0x3 DUP3 ADD SLOAD PUSH1 0x1 PUSH1 0x1 PUSH1 0xA0 SHL SUB AND PUSH1 0x60 DUP3 ADD MSTORE PUSH1 0x4 DUP3 ADD DUP1 SLOAD SWAP2 SWAP3 SWAP2 PUSH1 0x80 DUP5 ADD SWAP2 SWAP1 PUSH2 0x11B3 SWAP1 PUSH2 0x3F47 JUMP JUMPDEST DUP1 PUSH1 0x1F ADD PUSH1 0x20 DUP1 SWAP2 DIV MUL PUSH1 0x20 ADD PUSH1 0x40 MLOAD SWAP1 DUP2 ADD PUSH1 0x40 MSTORE DUP1 SWAP3 SWAP2 SWAP1 DUP2 DUP2 MSTORE PUSH1 0x20 ADD DUP3 DUP1 SLOAD PUSH2 0x11DF SWAP1 PUSH2 0x3F47 JUMP JUMPDEST DUP1 ISZERO PUSH2 0x122C JUMPI DUP1 PUSH1 0x1F LT PUSH2 0x1201 JUMPI PUSH2 0x100 DUP1 DUP4 SLOAD DIV MUL DUP4 MSTORE SWAP2 PUSH1 0x20 ADD SWAP2 PUSH2 0x122C JUMP JUMPDEST DUP3 ADD SWAP2 SWAP1 PUSH1 0x0 MSTORE PUSH1 0x20 PUSH1 0x0 KECCAK256 SWAP1 JUMPDEST DUP2 SLOAD DUP2 MSTORE SWAP1 PUSH1 0x1 ADD SWAP1 PUSH1 0x20 ADD DUP1 DUP4 GT PUSH2 0x120F JUMPI DUP3 SWAP1 SUB PUSH1 0x1F AND DUP3 ADD SWAP2 JUMPDEST POP POP POP POP POP DUP2 MSTORE POP POP SWAP1 POP SWAP2 SWAP1 POP JUMP JUMPDEST PUSH1 0x0 DUP2 DUP2 MSTORE PUSH1 0x2 PUSH1 0x20 MSTORE PUSH1 0x40 DUP2 KECCAK256 SLOAD PUSH1 0x1 PUSH1 0x1 PUSH1 0xA0 SHL SUB AND DUP1 PUSH2 0xB0D JUMPI PUSH1 0x40 MLOAD PUSH3 0x461BCD PUSH1 0xE5 SHL DUP2 MSTORE PUSH1 0x20 PUSH1 0x4 DUP3 ADD MSTORE PUSH1 0x18 PUSH1 0x24 DUP3 ADD MSTORE PUSH24 0x115490CDCC8C4E881A5B9D985B1A59081D1BDAD95B881251 PUSH1 0x42 SHL PUSH1 0x44 DUP3 ADD MSTORE PUSH1 0x64 ADD PUSH2 0xC66 JUMP JUMPDEST PUSH1 0x0 PUSH1 0x1 PUSH1 0x1 PUSH1 0xA0 SHL SUB DUP3 AND PUSH2 0x1306 JUMPI PUSH1 0x40 MLOAD PUSH3 0x461BCD PUSH1 0xE5 SHL DUP2 MSTORE PUSH1 0x20 PUSH1 0x4 DUP3 ADD MSTORE PUSH1 0x29 PUSH1 0x24 DUP3 ADD MSTORE PUSH32 0x4552433732313A2061646472657373207A65726F206973206E6F742061207661 PUSH1 0x44 DUP3 ADD MSTORE PUSH9 0x3634B21037BBB732B9 PUSH1 0xB9 SHL PUSH1 0x64 DUP3 ADD MSTORE PUSH1 0x84 ADD PUSH2 0xC66 JUMP JUMPDEST POP PUSH1 0x1 PUSH1 0x1 PUSH1 0xA0 SHL SUB AND PUSH1 0x0 SWAP1 DUP2 MSTORE PUSH1 0x3 PUSH1 0x20 MSTORE PUSH1 0x40 SWAP1 KECCAK256 SLOAD SWAP1 JUMP JUMPDEST PUSH2 0x132A PUSH2 0x2403 JUMP JUMPDEST PUSH2 0x1334 PUSH1 0x0 PUSH2 0x2A1B JUMP JUMPDEST JUMP JUMPDEST PUSH2 0x133E PUSH2 0x2403 JUMP JUMPDEST PUSH1 0x11 DUP1 SLOAD SWAP2 ISZERO ISZERO PUSH1 0x1 PUSH1 0x60 SHL MUL PUSH1 0xFF PUSH1 0x60 SHL NOT SWAP1 SWAP3 AND SWAP2 SWAP1 SWAP2 OR SWAP1 SSTORE JUMP JUMPDEST PUSH1 0xA SLOAD PUSH1 0x1 PUSH1 0x1 PUSH1 0xA0 SHL SUB AND CALLER EQ PUSH2 0x13E4 JUMPI PUSH1 0xD SLOAD PUSH1 0xFF AND ISZERO ISZERO PUSH1 0x1 EQ PUSH2 0x13E4 JUMPI PUSH1 0x40 MLOAD PUSH3 0x461BCD PUSH1 0xE5 SHL DUP2 MSTORE PUSH1 0x20 PUSH1 0x4 DUP3 ADD MSTORE PUSH1 0x36 PUSH1 0x24 DUP3 ADD MSTORE PUSH32 0x53414C45533A20506C656173652077616974206120626967206C6F6E67657220 PUSH1 0x44 DUP3 ADD MSTORE PUSH22 0x6265666F726520627579696E67205175616473203B29 PUSH1 0x50 SHL PUSH1 0x64 DUP3 ADD MSTORE PUSH1 0x84 ADD PUSH2 0xC66 JUMP JUMPDEST PUSH2 0x13F0 PUSH2 0x3E8 DUP1 PUSH2 0x3F91 JUMP JUMPDEST PUSH2 0x13F8 PUSH2 0x2A6D JUMP JUMPDEST GT ISZERO PUSH2 0x1438 JUMPI PUSH1 0x40 MLOAD PUSH3 0x461BCD PUSH1 0xE5 SHL DUP2 MSTORE PUSH1 0x20 PUSH1 0x4 DUP3 ADD MSTORE PUSH1 0xF PUSH1 0x24 DUP3 ADD MSTORE PUSH15 0x14D0531154CE8814D85B1948195B99 PUSH1 0x8A SHL PUSH1 0x44 DUP3 ADD MSTORE PUSH1 0x64 ADD PUSH2 0xC66 JUMP JUMPDEST PUSH1 0xA SLOAD PUSH1 0x1 PUSH1 0x1 PUSH1 0xA0 SHL SUB AND CALLER EQ PUSH2 0x1497 JUMPI PUSH1 0xA SLOAD PUSH1 0x1 PUSH1 0xA0 SHL SWAP1 DIV PUSH1 0xFF AND ISZERO PUSH2 0x1497 JUMPI PUSH1 0x40 MLOAD PUSH3 0x461BCD PUSH1 0xE5 SHL DUP2 MSTORE PUSH1 0x20 PUSH1 0x4 DUP3 ADD MSTORE PUSH1 0x10 PUSH1 0x24 DUP3 ADD MSTORE PUSH16 0x14105554D05093114E8814185D5CD959 PUSH1 0x82 SHL PUSH1 0x44 DUP3 ADD MSTORE PUSH1 0x64 ADD PUSH2 0xC66 JUMP JUMPDEST DUP4 DUP4 DUP4 PUSH1 0x0 DUP3 PUSH1 0xFF AND GT PUSH2 0x14E2 JUMPI PUSH1 0x40 MLOAD PUSH3 0x461BCD PUSH1 0xE5 SHL DUP2 MSTORE PUSH1 0x20 PUSH1 0x4 DUP3 ADD MSTORE PUSH1 0x12 PUSH1 0x24 DUP3 ADD MSTORE PUSH18 0x207769647468206D757374206265203E203 PUSH1 0x74 SHL PUSH1 0x44 DUP3 ADD MSTORE PUSH1 0x64 ADD PUSH2 0xC66 JUMP JUMPDEST PUSH1 0x0 DUP2 PUSH1 0xFF AND GT PUSH2 0x152B JUMPI PUSH1 0x40 MLOAD PUSH3 0x461BCD PUSH1 0xE5 SHL DUP2 MSTORE PUSH1 0x20 PUSH1 0x4 DUP3 ADD MSTORE PUSH1 0x13 PUSH1 0x24 DUP3 ADD MSTORE PUSH19 0x20686569676874206D757374206265203E203 PUSH1 0x6C SHL PUSH1 0x44 DUP3 ADD MSTORE PUSH1 0x64 ADD PUSH2 0xC66 JUMP JUMPDEST PUSH1 0x0 PUSH2 0x1535 PUSH2 0x2A6D JUMP JUMPDEST SWAP1 POP PUSH1 0x0 PUSH2 0x1543 DUP8 DUP10 PUSH2 0x414C JUMP JUMPDEST PUSH1 0xFF AND SWAP1 POP PUSH1 0xF SLOAD DUP3 GT ISZERO PUSH2 0x15B0 JUMPI PUSH1 0x40 MLOAD PUSH3 0x461BCD PUSH1 0xE5 SHL DUP2 MSTORE PUSH1 0x20 PUSH1 0x4 DUP3 ADD MSTORE PUSH1 0x2D PUSH1 0x24 DUP3 ADD MSTORE PUSH32 0x4D494E543A20506C6561736520676F20746F20746865204F70656E7365612074 PUSH1 0x44 DUP3 ADD MSTORE PUSH13 0x3790313ABC90309038BAB0B217 PUSH1 0x99 SHL PUSH1 0x64 DUP3 ADD MSTORE PUSH1 0x84 ADD PUSH2 0xC66 JUMP JUMPDEST PUSH1 0x0 DUP2 GT PUSH2 0x1600 JUMPI PUSH1 0x40 MLOAD PUSH3 0x461BCD PUSH1 0xE5 SHL DUP2 MSTORE PUSH1 0x20 PUSH1 0x4 DUP3 ADD MSTORE PUSH1 0x1B PUSH1 0x24 DUP3 ADD MSTORE PUSH32 0x4D4454503A20696E73756666696369656E74207175616E746974790000000000 PUSH1 0x44 DUP3 ADD MSTORE PUSH1 0x64 ADD PUSH2 0xC66 JUMP JUMPDEST PUSH1 0x11 SLOAD PUSH1 0x1 PUSH1 0x60 SHL SWAP1 DIV PUSH1 0xFF AND DUP1 PUSH2 0x1620 JUMPI POP PUSH2 0x161E DUP10 DUP10 DUP10 PUSH2 0x2A78 JUMP JUMPDEST ISZERO JUMPDEST PUSH2 0x166C JUMPI PUSH1 0x40 MLOAD PUSH3 0x461BCD PUSH1 0xE5 SHL DUP2 MSTORE PUSH1 0x20 PUSH1 0x4 DUP3 ADD MSTORE PUSH1 0x19 PUSH1 0x24 DUP3 ADD MSTORE PUSH32 0x43616E6E6F74206D696E742063656E74657220746F6B656E7300000000000000 PUSH1 0x44 DUP3 ADD MSTORE PUSH1 0x64 ADD PUSH2 0xC66 JUMP JUMPDEST PUSH1 0x11 SLOAD PUSH1 0x1 PUSH1 0x68 SHL SWAP1 DIV PUSH1 0xFF AND DUP1 PUSH2 0x168C JUMPI POP PUSH2 0x168A DUP10 DUP10 DUP10 PUSH2 0x2B13 JUMP JUMPDEST ISZERO JUMPDEST PUSH2 0x16D8 JUMPI PUSH1 0x40 MLOAD PUSH3 0x461BCD PUSH1 0xE5 SHL DUP2 MSTORE PUSH1 0x20 PUSH1 0x4 DUP3 ADD MSTORE PUSH1 0x1C PUSH1 0x24 DUP3 ADD MSTORE PUSH32 0x4D6943616E6E6F74206D696E74207370656369616C20746F6B656E7300000000 PUSH1 0x44 DUP3 ADD MSTORE PUSH1 0x64 ADD PUSH2 0xC66 JUMP JUMPDEST PUSH1 0xA SLOAD PUSH1 0x1 PUSH1 0x1 PUSH1 0xA0 SHL SUB DUP12 DUP2 AND SWAP2 AND EQ PUSH2 0x1764 JUMPI PUSH2 0x16F6 DUP2 PUSH2 0xE64 JUMP JUMPDEST CALLVALUE LT ISZERO PUSH2 0x1764 JUMPI PUSH1 0x40 MLOAD PUSH3 0x461BCD PUSH1 0xE5 SHL DUP2 MSTORE PUSH1 0x20 PUSH1 0x4 DUP3 ADD MSTORE PUSH1 0x36 PUSH1 0x24 DUP3 ADD MSTORE PUSH32 0x4D494E543A2043757272656E742076616C75652069732062656C6F7720746865 PUSH1 0x44 DUP3 ADD MSTORE PUSH22 0x81CD85B195CC81C1C9A58D9481BD98818481C5D5859 PUSH1 0x52 SHL PUSH1 0x64 DUP3 ADD MSTORE PUSH1 0x84 ADD PUSH2 0xC66 JUMP JUMPDEST PUSH1 0x0 JUMPDEST DUP8 PUSH1 0xFF AND DUP2 PUSH1 0xFF AND LT ISZERO PUSH2 0x184D JUMPI PUSH1 0x0 JUMPDEST DUP10 PUSH1 0xFF AND DUP2 PUSH1 0xFF AND LT ISZERO PUSH2 0x183A JUMPI PUSH1 0x0 DUP2 PUSH1 0xFF AND DUP4 PUSH1 0xFF AND PUSH2 0x3E8 PUSH2 0x179D SWAP2 SWAP1 PUSH2 0x3F91 JUMP JUMPDEST PUSH2 0x17A7 SWAP1 DUP15 PUSH2 0x4175 JUMP JUMPDEST PUSH2 0x17B1 SWAP2 SWAP1 PUSH2 0x4175 JUMP JUMPDEST PUSH1 0x0 DUP2 DUP2 MSTORE PUSH1 0x12 PUSH1 0x20 MSTORE PUSH1 0x40 SWAP1 KECCAK256 SLOAD SWAP1 SWAP2 POP PUSH1 0xFF AND ISZERO PUSH2 0x1827 JUMPI PUSH1 0x40 MLOAD PUSH3 0x461BCD PUSH1 0xE5 SHL DUP2 MSTORE PUSH1 0x20 PUSH1 0x4 DUP3 ADD MSTORE PUSH1 0x2B PUSH1 0x24 DUP3 ADD MSTORE PUSH32 0x4D494E543A2054686F736520717561647320616C726561647920686176652062 PUSH1 0x44 DUP3 ADD MSTORE PUSH11 0x19595B8818DB185A5B5959 PUSH1 0xAA SHL PUSH1 0x64 DUP3 ADD MSTORE PUSH1 0x84 ADD PUSH2 0xC66 JUMP JUMPDEST POP DUP1 PUSH2 0x1832 DUP2 PUSH2 0x4188 JUMP JUMPDEST SWAP2 POP POP PUSH2 0x1778 JUMP JUMPDEST POP DUP1 PUSH2 0x1845 DUP2 PUSH2 0x4188 JUMP JUMPDEST SWAP2 POP POP PUSH2 0x1767 JUMP JUMPDEST POP PUSH1 0x0 JUMPDEST DUP8 PUSH1 0xFF AND DUP2 PUSH1 0xFF AND LT ISZERO PUSH2 0x18CD JUMPI PUSH1 0x0 JUMPDEST DUP10 PUSH1 0xFF AND DUP2 PUSH1 0xFF AND LT ISZERO PUSH2 0x18BA JUMPI PUSH1 0x0 DUP2 PUSH1 0xFF AND DUP4 PUSH1 0xFF AND PUSH2 0x3E8 PUSH2 0x1887 SWAP2 SWAP1 PUSH2 0x3F91 JUMP JUMPDEST PUSH2 0x1891 SWAP1 DUP15 PUSH2 0x4175 JUMP JUMPDEST PUSH2 0x189B SWAP2 SWAP1 PUSH2 0x4175 JUMP JUMPDEST SWAP1 POP PUSH2 0x18A7 DUP14 DUP3 PUSH2 0x2BA3 JUMP JUMPDEST POP DUP1 PUSH2 0x18B2 DUP2 PUSH2 0x4188 JUMP JUMPDEST SWAP2 POP POP PUSH2 0x1862 JUMP JUMPDEST POP DUP1 PUSH2 0x18C5 DUP2 PUSH2 0x4188 JUMP JUMPDEST SWAP2 POP POP PUSH2 0x1851 JUMP JUMPDEST POP PUSH2 0x18E1 DUP11 DUP11 DUP11 PUSH1 0xFF AND DUP11 PUSH1 0xFF AND DUP11 PUSH2 0x2CC6 JUMP JUMPDEST PUSH2 0x18FC PUSH2 0x18F6 PUSH1 0xA SLOAD PUSH1 0x1 PUSH1 0x1 PUSH1 0xA0 SHL SUB AND SWAP1 JUMP JUMPDEST SELFBALANCE PUSH2 0x2DC4 JUMP JUMPDEST POP POP POP POP POP POP POP POP POP POP JUMP JUMPDEST PUSH1 0x60 PUSH1 0x0 PUSH1 0x14 SLOAD PUSH8 0xFFFFFFFFFFFFFFFF DUP2 GT ISZERO PUSH2 0x1927 JUMPI PUSH2 0x1927 PUSH2 0x3ABF JUMP JUMPDEST PUSH1 0x40 MLOAD SWAP1 DUP1 DUP3 MSTORE DUP1 PUSH1 0x20 MUL PUSH1 0x20 ADD DUP3 ADD PUSH1 0x40 MSTORE DUP1 ISZERO PUSH2 0x1960 JUMPI DUP2 PUSH1 0x20 ADD JUMPDEST PUSH2 0x194D PUSH2 0x38AF JUMP JUMPDEST DUP2 MSTORE PUSH1 0x20 ADD SWAP1 PUSH1 0x1 SWAP1 SUB SWAP1 DUP2 PUSH2 0x1945 JUMPI SWAP1 POP JUMPDEST POP SWAP1 POP PUSH1 0x0 JUMPDEST PUSH1 0x14 SLOAD DUP2 LT ISZERO PUSH2 0x1A82 JUMPI PUSH1 0x0 DUP2 DUP2 MSTORE PUSH1 0x15 PUSH1 0x20 SWAP1 DUP2 MSTORE PUSH1 0x40 SWAP2 DUP3 SWAP1 KECCAK256 DUP3 MLOAD PUSH1 0xA0 DUP2 ADD DUP5 MSTORE DUP2 SLOAD DUP2 MSTORE PUSH1 0x1 DUP3 ADD SLOAD SWAP3 DUP2 ADD SWAP3 SWAP1 SWAP3 MSTORE PUSH1 0x2 DUP2 ADD SLOAD SWAP3 DUP3 ADD SWAP3 SWAP1 SWAP3 MSTORE PUSH1 0x3 DUP3 ADD SLOAD PUSH1 0x1 PUSH1 0x1 PUSH1 0xA0 SHL SUB AND PUSH1 0x60 DUP3 ADD MSTORE PUSH1 0x4 DUP3 ADD DUP1 SLOAD DUP4 SWAP2 PUSH1 0x80 DUP5 ADD SWAP2 PUSH2 0x19CF SWAP1 PUSH2 0x3F47 JUMP JUMPDEST DUP1 PUSH1 0x1F ADD PUSH1 0x20 DUP1 SWAP2 DIV MUL PUSH1 0x20 ADD PUSH1 0x40 MLOAD SWAP1 DUP2 ADD PUSH1 0x40 MSTORE DUP1 SWAP3 SWAP2 SWAP1 DUP2 DUP2 MSTORE PUSH1 0x20 ADD DUP3 DUP1 SLOAD PUSH2 0x19FB SWAP1 PUSH2 0x3F47 JUMP JUMPDEST DUP1 ISZERO PUSH2 0x1A48 JUMPI DUP1 PUSH1 0x1F LT PUSH2 0x1A1D JUMPI PUSH2 0x100 DUP1 DUP4 SLOAD DIV MUL DUP4 MSTORE SWAP2 PUSH1 0x20 ADD SWAP2 PUSH2 0x1A48 JUMP JUMPDEST DUP3 ADD SWAP2 SWAP1 PUSH1 0x0 MSTORE PUSH1 0x20 PUSH1 0x0 KECCAK256 SWAP1 JUMPDEST DUP2 SLOAD DUP2 MSTORE SWAP1 PUSH1 0x1 ADD SWAP1 PUSH1 0x20 ADD DUP1 DUP4 GT PUSH2 0x1A2B JUMPI DUP3 SWAP1 SUB PUSH1 0x1F AND DUP3 ADD SWAP2 JUMPDEST POP POP POP POP POP DUP2 MSTORE POP POP DUP4 DUP4 DUP2 MLOAD DUP2 LT PUSH2 0x1A63 JUMPI PUSH2 0x1A63 PUSH2 0x3FB0 JUMP JUMPDEST PUSH1 0x20 MUL PUSH1 0x20 ADD ADD DUP2 SWAP1 MSTORE POP POP DUP1 DUP1 PUSH2 0x1A7A SWAP1 PUSH2 0x41A7 JUMP JUMPDEST SWAP2 POP POP PUSH2 0x1966 JUMP JUMPDEST POP SWAP2 SWAP1 POP JUMP JUMPDEST PUSH2 0x1A90 PUSH2 0x2403 JUMP JUMPDEST SELFBALANCE DUP1 PUSH2 0x1ADE JUMPI PUSH1 0x40 MLOAD PUSH3 0x461BCD PUSH1 0xE5 SHL DUP2 MSTORE PUSH1 0x20 PUSH1 0x4 DUP3 ADD DUP2 SWAP1 MSTORE PUSH1 0x24 DUP3 ADD MSTORE PUSH32 0x57495448445241573A204E6F2062616C616E636520696E20636F6E7472616374 PUSH1 0x44 DUP3 ADD MSTORE PUSH1 0x64 ADD PUSH2 0xC66 JUMP JUMPDEST PUSH2 0x1075 PUSH2 0x18F6 PUSH1 0xA SLOAD PUSH1 0x1 PUSH1 0x1 PUSH1 0xA0 SHL SUB AND SWAP1 JUMP JUMPDEST PUSH2 0x1AFB PUSH2 0x2403 JUMP JUMPDEST PUSH1 0x1 PUSH1 0x1 PUSH1 0xA0 SHL SUB AND PUSH1 0x0 SWAP1 DUP2 MSTORE PUSH1 0x16 PUSH1 0x20 MSTORE PUSH1 0x40 SWAP1 KECCAK256 DUP1 SLOAD PUSH1 0xFF NOT AND SWAP1 SSTORE JUMP JUMPDEST PUSH2 0x1B24 PUSH2 0x2403 JUMP JUMPDEST PUSH1 0xE SSTORE JUMP JUMPDEST PUSH1 0x60 PUSH1 0x1 DUP1 SLOAD PUSH2 0xB48 SWAP1 PUSH2 0x3F47 JUMP JUMPDEST PUSH2 0x1B40 PUSH2 0x2403 JUMP JUMPDEST PUSH1 0x11 DUP1 SLOAD PUSH12 0xFFFFFFFFFFFFFFFFFFFFFFFF NOT AND PUSH1 0x1 PUSH1 0x1 PUSH1 0x60 SHL SUB SWAP3 SWAP1 SWAP3 AND SWAP2 SWAP1 SWAP2 OR SWAP1 SSTORE JUMP JUMPDEST PUSH1 0x15 PUSH1 0x20 MSTORE PUSH1 0x0 SWAP1 DUP2 MSTORE PUSH1 0x40 SWAP1 KECCAK256 DUP1 SLOAD PUSH1 0x1 DUP3 ADD SLOAD PUSH1 0x2 DUP4 ADD SLOAD PUSH1 0x3 DUP5 ADD SLOAD PUSH1 0x4 DUP6 ADD DUP1 SLOAD SWAP5 SWAP6 SWAP4 SWAP5 SWAP3 SWAP4 PUSH1 0x1 PUSH1 0x1 PUSH1 0xA0 SHL SUB SWAP1 SWAP3 AND SWAP3 PUSH2 0x1BA7 SWAP1 PUSH2 0x3F47 JUMP JUMPDEST DUP1 PUSH1 0x1F ADD PUSH1 0x20 DUP1 SWAP2 DIV MUL PUSH1 0x20 ADD PUSH1 0x40 MLOAD SWAP1 DUP2 ADD PUSH1 0x40 MSTORE DUP1 SWAP3 SWAP2 SWAP1 DUP2 DUP2 MSTORE PUSH1 0x20 ADD DUP3 DUP1 SLOAD PUSH2 0x1BD3 SWAP1 PUSH2 0x3F47 JUMP JUMPDEST DUP1 ISZERO PUSH2 0x1C20 JUMPI DUP1 PUSH1 0x1F LT PUSH2 0x1BF5 JUMPI PUSH2 0x100 DUP1 DUP4 SLOAD DIV MUL DUP4 MSTORE SWAP2 PUSH1 0x20 ADD SWAP2 PUSH2 0x1C20 JUMP JUMPDEST DUP3 ADD SWAP2 SWAP1 PUSH1 0x0 MSTORE PUSH1 0x20 PUSH1 0x0 KECCAK256 SWAP1 JUMPDEST DUP2 SLOAD DUP2 MSTORE SWAP1 PUSH1 0x1 ADD SWAP1 PUSH1 0x20 ADD DUP1 DUP4 GT PUSH2 0x1C03 JUMPI DUP3 SWAP1 SUB PUSH1 0x1F AND DUP3 ADD SWAP2 JUMPDEST POP POP POP POP POP SWAP1 POP DUP6 JUMP JUMPDEST PUSH2 0x1146 CALLER DUP4 DUP4 PUSH2 0x2E67 JUMP JUMPDEST PUSH1 0x60 PUSH1 0x13 DUP1 SLOAD DUP1 PUSH1 0x20 MUL PUSH1 0x20 ADD PUSH1 0x40 MLOAD SWAP1 DUP2 ADD PUSH1 0x40 MSTORE DUP1 SWAP3 SWAP2 SWAP1 DUP2 DUP2 MSTORE PUSH1 0x20 ADD DUP3 DUP1 SLOAD DUP1 ISZERO PUSH2 0xBC1 JUMPI PUSH1 0x20 MUL DUP3 ADD SWAP2 SWAP1 PUSH1 0x0 MSTORE PUSH1 0x20 PUSH1 0x0 KECCAK256 SWAP1 JUMPDEST DUP2 SLOAD DUP2 MSTORE PUSH1 0x20 ADD SWAP1 PUSH1 0x1 ADD SWAP1 DUP1 DUP4 GT PUSH2 0x1C6F JUMPI POP POP POP POP POP SWAP1 POP SWAP1 JUMP JUMPDEST PUSH2 0x1C96 CALLER DUP4 PUSH2 0x2743 JUMP JUMPDEST PUSH2 0x1CB2 JUMPI PUSH1 0x40 MLOAD PUSH3 0x461BCD PUSH1 0xE5 SHL DUP2 MSTORE PUSH1 0x4 ADD PUSH2 0xC66 SWAP1 PUSH2 0x3FC6 JUMP JUMPDEST PUSH2 0xE03 DUP5 DUP5 DUP5 DUP5 PUSH2 0x2F35 JUMP JUMPDEST PUSH1 0x0 DUP5 DUP2 MSTORE PUSH1 0x15 PUSH1 0x20 MSTORE PUSH1 0x40 DUP2 KECCAK256 PUSH1 0x3 ADD SLOAD PUSH1 0x1 PUSH1 0x1 PUSH1 0xA0 SHL SUB AND CALLER EQ PUSH2 0x1D1F JUMPI PUSH1 0x40 MLOAD PUSH3 0x461BCD PUSH1 0xE5 SHL DUP2 MSTORE PUSH1 0x20 PUSH1 0x4 DUP3 ADD MSTORE PUSH1 0x15 PUSH1 0x24 DUP3 ADD MSTORE PUSH21 0x4F6E6C79206F776E65722063616E20757064617465 PUSH1 0x58 SHL PUSH1 0x44 DUP3 ADD MSTORE PUSH1 0x64 ADD PUSH2 0xC66 JUMP JUMPDEST PUSH1 0x0 DUP6 DUP2 MSTORE PUSH1 0x15 PUSH1 0x20 MSTORE PUSH1 0x40 DUP2 KECCAK256 PUSH1 0x1 DUP2 ADD SLOAD PUSH1 0x2 SWAP1 SWAP2 ADD SLOAD CALLER SWAP3 PUSH2 0x1D46 PUSH2 0x3E8 DUP11 PUSH2 0x41C0 JUMP JUMPDEST SWAP1 POP PUSH1 0x0 PUSH2 0x1D56 PUSH2 0x3E8 DUP12 PUSH2 0x402A JUMP JUMPDEST PUSH1 0x0 DUP12 DUP2 MSTORE PUSH1 0x15 PUSH1 0x20 MSTORE PUSH1 0x40 DUP2 KECCAK256 SLOAD SWAP2 SWAP3 POP SWAP1 PUSH2 0x1D76 SWAP1 PUSH2 0x3E8 SWAP1 PUSH2 0x41C0 JUMP JUMPDEST PUSH1 0x0 DUP13 DUP2 MSTORE PUSH1 0x15 PUSH1 0x20 MSTORE PUSH1 0x40 DUP2 KECCAK256 SLOAD SWAP2 SWAP3 POP SWAP1 PUSH2 0x1D96 SWAP1 PUSH2 0x3E8 SWAP1 PUSH2 0x402A JUMP JUMPDEST SWAP1 POP PUSH1 0x0 PUSH1 0x14 SLOAD PUSH1 0x1 PUSH2 0x1DA9 SWAP2 SWAP1 PUSH2 0x4175 JUMP JUMPDEST PUSH1 0x11 SLOAD SWAP1 SWAP2 POP PUSH1 0x1 PUSH1 0x70 SHL SWAP1 DIV PUSH1 0xFF AND ISZERO ISZERO PUSH1 0x1 SUB PUSH2 0x214C JUMPI DUP12 DUP8 EQ DUP1 ISZERO PUSH2 0x1DD0 JUMPI POP DUP11 DUP7 EQ JUMPDEST ISZERO PUSH2 0x1E81 JUMPI PUSH1 0x40 MLOAD DUP1 PUSH1 0xA0 ADD PUSH1 0x40 MSTORE DUP1 DUP15 DUP2 MSTORE PUSH1 0x20 ADD DUP14 DUP2 MSTORE PUSH1 0x20 ADD DUP13 DUP2 MSTORE PUSH1 0x20 ADD DUP10 PUSH1 0x1 PUSH1 0x1 PUSH1 0xA0 SHL SUB AND DUP2 MSTORE PUSH1 0x20 ADD DUP12 DUP2 MSTORE POP PUSH1 0x15 PUSH1 0x0 DUP16 DUP2 MSTORE PUSH1 0x20 ADD SWAP1 DUP2 MSTORE PUSH1 0x20 ADD PUSH1 0x0 KECCAK256 PUSH1 0x0 DUP3 ADD MLOAD DUP2 PUSH1 0x0 ADD SSTORE PUSH1 0x20 DUP3 ADD MLOAD DUP2 PUSH1 0x1 ADD SSTORE PUSH1 0x40 DUP3 ADD MLOAD DUP2 PUSH1 0x2 ADD SSTORE PUSH1 0x60 DUP3 ADD MLOAD DUP2 PUSH1 0x3 ADD PUSH1 0x0 PUSH2 0x100 EXP DUP2 SLOAD DUP2 PUSH1 0x1 PUSH1 0x1 PUSH1 0xA0 SHL SUB MUL NOT AND SWAP1 DUP4 PUSH1 0x1 PUSH1 0x1 PUSH1 0xA0 SHL SUB AND MUL OR SWAP1 SSTORE POP PUSH1 0x80 DUP3 ADD MLOAD DUP2 PUSH1 0x4 ADD SWAP1 DUP2 PUSH2 0x1E78 SWAP2 SWAP1 PUSH2 0x408C JUMP JUMPDEST POP SWAP1 POP POP PUSH2 0x2159 JUMP JUMPDEST DUP12 DUP8 EQ DUP1 PUSH2 0x1E8E JUMPI POP DUP11 DUP7 EQ JUMPDEST PUSH2 0x1F00 JUMPI PUSH1 0x40 MLOAD PUSH3 0x461BCD PUSH1 0xE5 SHL DUP2 MSTORE PUSH1 0x20 PUSH1 0x4 DUP3 ADD MSTORE PUSH1 0x38 PUSH1 0x24 DUP3 ADD MSTORE PUSH32 0x50617263656C2073706C697474696E6720726571756972657320776964746820 PUSH1 0x44 DUP3 ADD MSTORE PUSH32 0x6F722068656967687420746F206265207468652073616D650000000000000000 PUSH1 0x64 DUP3 ADD MSTORE PUSH1 0x84 ADD PUSH2 0xC66 JUMP JUMPDEST PUSH2 0x1F0D DUP9 DUP15 DUP15 DUP15 DUP15 PUSH2 0x2CC6 JUMP JUMPDEST DUP12 DUP8 SUB PUSH2 0x202F JUMPI DUP4 DUP3 GT ISZERO PUSH2 0x1FEB JUMPI PUSH1 0x40 MLOAD DUP1 PUSH1 0xA0 ADD PUSH1 0x40 MSTORE DUP1 DUP7 DUP14 DUP8 PUSH2 0x1F34 SWAP2 SWAP1 PUSH2 0x41D4 JUMP JUMPDEST PUSH2 0x1F40 SWAP1 PUSH2 0x3E8 PUSH2 0x3F91 JUMP JUMPDEST PUSH2 0x1F4A SWAP2 SWAP1 PUSH2 0x4175 JUMP JUMPDEST DUP2 MSTORE PUSH1 0x20 DUP2 ADD DUP15 SWAP1 MSTORE PUSH1 0x40 ADD PUSH2 0x1F60 DUP14 DUP10 PUSH2 0x41D4 JUMP JUMPDEST DUP2 MSTORE PUSH1 0x20 ADD DUP10 PUSH1 0x1 PUSH1 0x1 PUSH1 0xA0 SHL SUB AND DUP2 MSTORE PUSH1 0x20 ADD DUP12 DUP2 MSTORE POP PUSH1 0x15 PUSH1 0x0 DUP16 DUP2 MSTORE PUSH1 0x20 ADD SWAP1 DUP2 MSTORE PUSH1 0x20 ADD PUSH1 0x0 KECCAK256 PUSH1 0x0 DUP3 ADD MLOAD DUP2 PUSH1 0x0 ADD SSTORE PUSH1 0x20 DUP3 ADD MLOAD DUP2 PUSH1 0x1 ADD SSTORE PUSH1 0x40 DUP3 ADD MLOAD DUP2 PUSH1 0x2 ADD SSTORE PUSH1 0x60 DUP3 ADD MLOAD DUP2 PUSH1 0x3 ADD PUSH1 0x0 PUSH2 0x100 EXP DUP2 SLOAD DUP2 PUSH1 0x1 PUSH1 0x1 PUSH1 0xA0 SHL SUB MUL NOT AND SWAP1 DUP4 PUSH1 0x1 PUSH1 0x1 PUSH1 0xA0 SHL SUB AND MUL OR SWAP1 SSTORE POP PUSH1 0x80 DUP3 ADD MLOAD DUP2 PUSH1 0x4 ADD SWAP1 DUP2 PUSH2 0x1E78 SWAP2 SWAP1 PUSH2 0x408C JUMP JUMPDEST PUSH1 0x40 MLOAD DUP1 PUSH1 0xA0 ADD PUSH1 0x40 MSTORE DUP1 DUP7 DUP14 DUP8 PUSH2 0x2003 SWAP2 SWAP1 PUSH2 0x4175 JUMP JUMPDEST PUSH2 0x200F SWAP1 PUSH2 0x3E8 PUSH2 0x3F91 JUMP JUMPDEST PUSH2 0x2019 SWAP2 SWAP1 PUSH2 0x4175 JUMP JUMPDEST DUP2 MSTORE PUSH1 0x20 DUP2 ADD DUP15 SWAP1 MSTORE PUSH1 0x40 ADD PUSH2 0x1F60 DUP9 DUP15 PUSH2 0x41D4 JUMP JUMPDEST DUP11 DUP7 SUB PUSH2 0x2147 JUMPI DUP5 DUP4 GT ISZERO PUSH2 0x210B JUMPI PUSH1 0x40 MLOAD DUP1 PUSH1 0xA0 ADD PUSH1 0x40 MSTORE DUP1 DUP14 DUP8 PUSH2 0x2055 SWAP2 SWAP1 PUSH2 0x41D4 JUMP JUMPDEST PUSH2 0x2061 DUP8 PUSH2 0x3E8 PUSH2 0x3F91 JUMP JUMPDEST PUSH2 0x206B SWAP2 SWAP1 PUSH2 0x4175 JUMP JUMPDEST DUP2 MSTORE PUSH1 0x20 ADD PUSH2 0x207A DUP15 DUP11 PUSH2 0x41D4 JUMP JUMPDEST DUP2 MSTORE PUSH1 0x20 ADD DUP13 DUP2 MSTORE PUSH1 0x20 ADD DUP10 PUSH1 0x1 PUSH1 0x1 PUSH1 0xA0 SHL SUB AND DUP2 MSTORE PUSH1 0x20 ADD DUP12 DUP2 MSTORE POP PUSH1 0x15 PUSH1 0x0 DUP16 DUP2 MSTORE PUSH1 0x20 ADD SWAP1 DUP2 MSTORE PUSH1 0x20 ADD PUSH1 0x0 KECCAK256 PUSH1 0x0 DUP3 ADD MLOAD DUP2 PUSH1 0x0 ADD SSTORE PUSH1 0x20 DUP3 ADD MLOAD DUP2 PUSH1 0x1 ADD SSTORE PUSH1 0x40 DUP3 ADD MLOAD DUP2 PUSH1 0x2 ADD SSTORE PUSH1 0x60 DUP3 ADD MLOAD DUP2 PUSH1 0x3 ADD PUSH1 0x0 PUSH2 0x100 EXP DUP2 SLOAD DUP2 PUSH1 0x1 PUSH1 0x1 PUSH1 0xA0 SHL SUB MUL NOT AND SWAP1 DUP4 PUSH1 0x1 PUSH1 0x1 PUSH1 0xA0 SHL SUB AND MUL OR SWAP1 SSTORE POP PUSH1 0x80 DUP3 ADD MLOAD DUP2 PUSH1 0x4 ADD SWAP1 DUP2 PUSH2 0x1E78 SWAP2 SWAP1 PUSH2 0x408C JUMP JUMPDEST PUSH1 0x40 MLOAD DUP1 PUSH1 0xA0 ADD PUSH1 0x40 MSTORE DUP1 DUP14 DUP8 PUSH2 0x2122 SWAP2 SWAP1 PUSH2 0x4175 JUMP JUMPDEST PUSH2 0x212E DUP8 PUSH2 0x3E8 PUSH2 0x3F91 JUMP JUMPDEST PUSH2 0x2138 SWAP2 SWAP1 PUSH2 0x4175 JUMP JUMPDEST DUP2 MSTORE PUSH1 0x20 ADD PUSH2 0x207A DUP10 DUP16 PUSH2 0x41D4 JUMP JUMPDEST PUSH2 0x2159 JUMP JUMPDEST PUSH2 0x2159 DUP9 DUP15 DUP15 DUP15 DUP15 PUSH2 0x2CC6 JUMP JUMPDEST SWAP8 POP POP POP POP POP POP POP POP JUMPDEST SWAP5 SWAP4 POP POP POP POP JUMP JUMPDEST PUSH1 0x60 PUSH2 0x2176 DUP3 PUSH2 0x245D JUMP JUMPDEST PUSH1 0x0 PUSH2 0x2180 PUSH2 0x2F68 JUMP JUMPDEST SWAP1 POP PUSH1 0x0 DUP2 MLOAD GT PUSH2 0x21A0 JUMPI PUSH1 0x40 MLOAD DUP1 PUSH1 0x20 ADD PUSH1 0x40 MSTORE DUP1 PUSH1 0x0 DUP2 MSTORE POP PUSH2 0x21CB JUMP JUMPDEST DUP1 PUSH2 0x21AA DUP5 PUSH2 0x2F77 JUMP JUMPDEST PUSH1 0x40 MLOAD PUSH1 0x20 ADD PUSH2 0x21BB SWAP3 SWAP2 SWAP1 PUSH2 0x41E7 JUMP JUMPDEST PUSH1 0x40 MLOAD PUSH1 0x20 DUP2 DUP4 SUB SUB DUP2 MSTORE SWAP1 PUSH1 0x40 MSTORE JUMPDEST SWAP4 SWAP3 POP POP POP JUMP JUMPDEST PUSH1 0x60 PUSH1 0xB PUSH1 0x0 DUP4 DUP2 MSTORE PUSH1 0x20 ADD SWAP1 DUP2 MSTORE PUSH1 0x20 ADD PUSH1 0x0 KECCAK256 DUP1 SLOAD DUP1 PUSH1 0x20 MUL PUSH1 0x20 ADD PUSH1 0x40 MLOAD SWAP1 DUP2 ADD PUSH1 0x40 MSTORE DUP1 SWAP3 SWAP2 SWAP1 DUP2 DUP2 MSTORE PUSH1 0x20 ADD PUSH1 0x0 SWAP1 JUMPDEST DUP3 DUP3 LT ISZERO PUSH2 0x2256 JUMPI PUSH1 0x0 DUP5 DUP2 MSTORE PUSH1 0x20 SWAP1 DUP2 SWAP1 KECCAK256 PUSH1 0x40 DUP1 MLOAD DUP1 DUP3 ADD SWAP1 SWAP2 MSTORE SWAP1 DUP5 ADD SLOAD PUSH1 0x1 PUSH1 0x1 PUSH1 0xA0 SHL SUB DUP2 AND DUP3 MSTORE PUSH1 0x1 PUSH1 0xA0 SHL SWAP1 DIV PUSH1 0x1 PUSH1 0x1 PUSH1 0x60 SHL SUB AND DUP2 DUP4 ADD MSTORE DUP3 MSTORE PUSH1 0x1 SWAP1 SWAP3 ADD SWAP2 ADD PUSH2 0x2207 JUMP JUMPDEST POP POP POP POP SWAP1 POP SWAP2 SWAP1 POP JUMP JUMPDEST PUSH1 0x0 PUSH2 0x226F PUSH2 0x3E8 DUP1 PUSH2 0x3F91 JUMP JUMPDEST SWAP1 POP SWAP1 JUMP JUMPDEST PUSH2 0x227C PUSH2 0x2403 JUMP JUMPDEST PUSH1 0x11 DUP1 SLOAD SWAP2 ISZERO ISZERO PUSH1 0x1 PUSH1 0x68 SHL MUL PUSH1 0xFF PUSH1 0x68 SHL NOT SWAP1 SWAP3 AND SWAP2 SWAP1 SWAP2 OR SWAP1 SSTORE JUMP JUMPDEST PUSH2 0x22A2 PUSH2 0x2403 JUMP JUMPDEST PUSH1 0x1 PUSH1 0x1 PUSH1 0xA0 SHL SUB AND PUSH1 0x0 SWAP1 DUP2 MSTORE PUSH1 0x16 PUSH1 0x20 MSTORE PUSH1 0x40 SWAP1 KECCAK256 DUP1 SLOAD PUSH1 0xFF NOT AND PUSH1 0x1 OR SWAP1 SSTORE JUMP JUMPDEST PUSH1 0x60 PUSH1 0x0 PUSH2 0x22D3 DUP4 PUSH2 0x129C JUMP JUMPDEST SWAP1 POP PUSH1 0x0 DUP2 PUSH8 0xFFFFFFFFFFFFFFFF DUP2 GT ISZERO PUSH2 0x22F0 JUMPI PUSH2 0x22F0 PUSH2 0x3ABF JUMP JUMPDEST PUSH1 0x40 MLOAD SWAP1 DUP1 DUP3 MSTORE DUP1 PUSH1 0x20 MUL PUSH1 0x20 ADD DUP3 ADD PUSH1 0x40 MSTORE DUP1 ISZERO PUSH2 0x2319 JUMPI DUP2 PUSH1 0x20 ADD PUSH1 0x20 DUP3 MUL DUP1 CALLDATASIZE DUP4 CALLDATACOPY ADD SWAP1 POP JUMPDEST POP SWAP1 POP PUSH1 0x0 JUMPDEST DUP3 DUP2 LT ISZERO PUSH2 0x2360 JUMPI PUSH2 0x2331 DUP6 DUP3 PUSH2 0xF7A JUMP JUMPDEST DUP3 DUP3 DUP2 MLOAD DUP2 LT PUSH2 0x2343 JUMPI PUSH2 0x2343 PUSH2 0x3FB0 JUMP JUMPDEST PUSH1 0x20 SWAP1 DUP2 MUL SWAP2 SWAP1 SWAP2 ADD ADD MSTORE DUP1 PUSH2 0x2358 DUP2 PUSH2 0x41A7 JUMP JUMPDEST SWAP2 POP POP PUSH2 0x231F JUMP JUMPDEST POP SWAP4 SWAP3 POP POP POP JUMP JUMPDEST PUSH2 0x2370 PUSH2 0x2403 JUMP JUMPDEST PUSH1 0x1 PUSH1 0x1 PUSH1 0xA0 SHL SUB DUP2 AND PUSH2 0x23D5 JUMPI PUSH1 0x40 MLOAD PUSH3 0x461BCD PUSH1 0xE5 SHL DUP2 MSTORE PUSH1 0x20 PUSH1 0x4 DUP3 ADD MSTORE PUSH1 0x26 PUSH1 0x24 DUP3 ADD MSTORE PUSH32 0x4F776E61626C653A206E6577206F776E657220697320746865207A65726F2061 PUSH1 0x44 DUP3 ADD MSTORE PUSH6 0x646472657373 PUSH1 0xD0 SHL PUSH1 0x64 DUP3 ADD MSTORE PUSH1 0x84 ADD PUSH2 0xC66 JUMP JUMPDEST PUSH2 0x1075 DUP2 PUSH2 0x2A1B JUMP JUMPDEST PUSH1 0x0 PUSH1 0x1 PUSH1 0x1 PUSH1 0xE0 SHL SUB NOT DUP3 AND PUSH4 0x780E9D63 PUSH1 0xE0 SHL EQ DUP1 PUSH2 0xB0D JUMPI POP PUSH2 0xB0D DUP3 PUSH2 0x3078 JUMP JUMPDEST PUSH1 0xA SLOAD PUSH1 0x1 PUSH1 0x1 PUSH1 0xA0 SHL SUB AND CALLER EQ PUSH2 0x1334 JUMPI PUSH1 0x40 MLOAD PUSH3 0x461BCD PUSH1 0xE5 SHL DUP2 MSTORE PUSH1 0x20 PUSH1 0x4 DUP3 ADD DUP2 SWAP1 MSTORE PUSH1 0x24 DUP3 ADD MSTORE PUSH32 0x4F776E61626C653A2063616C6C6572206973206E6F7420746865206F776E6572 PUSH1 0x44 DUP3 ADD MSTORE PUSH1 0x64 ADD PUSH2 0xC66 JUMP JUMPDEST PUSH1 0x0 DUP2 DUP2 MSTORE PUSH1 0x2 PUSH1 0x20 MSTORE PUSH1 0x40 SWAP1 KECCAK256 SLOAD PUSH1 0x1 PUSH1 0x1 PUSH1 0xA0 SHL SUB AND PUSH2 0x1075 JUMPI PUSH1 0x40 MLOAD PUSH3 0x461BCD PUSH1 0xE5 SHL DUP2 MSTORE PUSH1 0x20 PUSH1 0x4 DUP3 ADD MSTORE PUSH1 0x18 PUSH1 0x24 DUP3 ADD MSTORE PUSH24 0x115490CDCC8C4E881A5B9D985B1A59081D1BDAD95B881251 PUSH1 0x42 SHL PUSH1 0x44 DUP3 ADD MSTORE PUSH1 0x64 ADD PUSH2 0xC66 JUMP JUMPDEST PUSH1 0x0 DUP2 DUP2 MSTORE PUSH1 0x4 PUSH1 0x20 MSTORE PUSH1 0x40 SWAP1 KECCAK256 DUP1 SLOAD PUSH1 0x1 PUSH1 0x1 PUSH1 0xA0 SHL SUB NOT AND PUSH1 0x1 PUSH1 0x1 PUSH1 0xA0 SHL SUB DUP5 AND SWAP1 DUP2 OR SWAP1 SWAP2 SSTORE DUP2 SWAP1 PUSH2 0x24F1 DUP3 PUSH2 0x123C JUMP JUMPDEST PUSH1 0x1 PUSH1 0x1 PUSH1 0xA0 SHL SUB AND PUSH32 0x8C5BE1E5EBEC7D5BD14F71427D1E84F3DD0314C0F7B2291E5B200AC8C7C3B925 PUSH1 0x40 MLOAD PUSH1 0x40 MLOAD DUP1 SWAP2 SUB SWAP1 LOG4 POP POP JUMP JUMPDEST PUSH1 0x0 DUP1 JUMPDEST DUP3 MLOAD DUP2 LT ISZERO PUSH2 0x26D9 JUMPI PUSH1 0x0 PUSH1 0x1 PUSH1 0x1 PUSH1 0xA0 SHL SUB AND DUP4 DUP3 DUP2 MLOAD DUP2 LT PUSH2 0x2554 JUMPI PUSH2 0x2554 PUSH2 0x3FB0 JUMP JUMPDEST PUSH1 0x20 MUL PUSH1 0x20 ADD ADD MLOAD PUSH1 0x0 ADD MLOAD PUSH1 0x1 PUSH1 0x1 PUSH1 0xA0 SHL SUB AND SUB PUSH2 0x25B6 JUMPI PUSH1 0x40 MLOAD PUSH3 0x461BCD PUSH1 0xE5 SHL DUP2 MSTORE PUSH1 0x20 PUSH1 0x4 DUP3 ADD MSTORE PUSH1 0x1B PUSH1 0x24 DUP3 ADD MSTORE PUSH32 0x526563697069656E742073686F756C642062652070726573656E740000000000 PUSH1 0x44 DUP3 ADD MSTORE PUSH1 0x64 ADD PUSH2 0xC66 JUMP JUMPDEST DUP3 DUP2 DUP2 MLOAD DUP2 LT PUSH2 0x25C8 JUMPI PUSH2 0x25C8 PUSH2 0x3FB0 JUMP JUMPDEST PUSH1 0x20 MUL PUSH1 0x20 ADD ADD MLOAD PUSH1 0x20 ADD MLOAD PUSH1 0x1 PUSH1 0x1 PUSH1 0x60 SHL SUB AND PUSH1 0x0 SUB PUSH2 0x262C JUMPI PUSH1 0x40 MLOAD PUSH3 0x461BCD PUSH1 0xE5 SHL DUP2 MSTORE PUSH1 0x20 PUSH1 0x4 DUP3 ADD DUP2 SWAP1 MSTORE PUSH1 0x24 DUP3 ADD MSTORE PUSH32 0x526F79616C74792076616C75652073686F756C6420626520706F736974697665 PUSH1 0x44 DUP3 ADD MSTORE PUSH1 0x64 ADD PUSH2 0xC66 JUMP JUMPDEST DUP3 DUP2 DUP2 MLOAD DUP2 LT PUSH2 0x263E JUMPI PUSH2 0x263E PUSH2 0x3FB0 JUMP JUMPDEST PUSH1 0x20 MUL PUSH1 0x20 ADD ADD MLOAD PUSH1 0x20 ADD MLOAD PUSH1 0x1 PUSH1 0x1 PUSH1 0x60 SHL SUB AND DUP3 PUSH2 0x265E SWAP2 SWAP1 PUSH2 0x4175 JUMP JUMPDEST SWAP2 POP PUSH1 0xB PUSH1 0x0 DUP6 DUP2 MSTORE PUSH1 0x20 ADD SWAP1 DUP2 MSTORE PUSH1 0x20 ADD PUSH1 0x0 KECCAK256 DUP4 DUP3 DUP2 MLOAD DUP2 LT PUSH2 0x2685 JUMPI PUSH2 0x2685 PUSH2 0x3FB0 JUMP JUMPDEST PUSH1 0x20 SWAP1 DUP2 MUL SWAP2 SWAP1 SWAP2 ADD DUP2 ADD MLOAD DUP3 SLOAD PUSH1 0x1 DUP2 ADD DUP5 SSTORE PUSH1 0x0 SWAP4 DUP5 MSTORE SWAP3 DUP3 SWAP1 KECCAK256 DUP2 MLOAD SWAP2 SWAP1 SWAP3 ADD MLOAD PUSH1 0x1 PUSH1 0x1 PUSH1 0x60 SHL SUB AND PUSH1 0x1 PUSH1 0xA0 SHL MUL PUSH1 0x1 PUSH1 0x1 PUSH1 0xA0 SHL SUB SWAP1 SWAP2 AND OR SWAP2 ADD SSTORE DUP1 PUSH2 0x26D1 DUP2 PUSH2 0x41A7 JUMP JUMPDEST SWAP2 POP POP PUSH2 0x252E JUMP JUMPDEST POP PUSH2 0x2710 DUP2 LT PUSH2 0x2739 JUMPI PUSH1 0x40 MLOAD PUSH3 0x461BCD PUSH1 0xE5 SHL DUP2 MSTORE PUSH1 0x20 PUSH1 0x4 DUP3 ADD MSTORE PUSH1 0x25 PUSH1 0x24 DUP3 ADD MSTORE PUSH32 0x526F79616C747920746F74616C2076616C75652073686F756C64206265203C20 PUSH1 0x44 DUP3 ADD MSTORE PUSH5 0x313030303 PUSH1 0xDC SHL PUSH1 0x64 DUP3 ADD MSTORE PUSH1 0x84 ADD PUSH2 0xC66 JUMP JUMPDEST PUSH2 0xD07 DUP4 DUP4 PUSH2 0x30C8 JUMP JUMPDEST PUSH1 0x0 DUP1 PUSH2 0x274F DUP4 PUSH2 0x123C JUMP JUMPDEST SWAP1 POP DUP1 PUSH1 0x1 PUSH1 0x1 PUSH1 0xA0 SHL SUB AND DUP5 PUSH1 0x1 PUSH1 0x1 PUSH1 0xA0 SHL SUB AND EQ DUP1 PUSH2 0x2796 JUMPI POP PUSH1 0x1 PUSH1 0x1 PUSH1 0xA0 SHL SUB DUP1 DUP3 AND PUSH1 0x0 SWAP1 DUP2 MSTORE PUSH1 0x5 PUSH1 0x20 SWAP1 DUP2 MSTORE PUSH1 0x40 DUP1 DUP4 KECCAK256 SWAP4 DUP9 AND DUP4 MSTORE SWAP3 SWAP1 MSTORE KECCAK256 SLOAD PUSH1 0xFF AND JUMPDEST DUP1 PUSH2 0x2163 JUMPI POP DUP4 PUSH1 0x1 PUSH1 0x1 PUSH1 0xA0 SHL SUB AND PUSH2 0x27AF DUP5 PUSH2 0xBCB JUMP JUMPDEST PUSH1 0x1 PUSH1 0x1 PUSH1 0xA0 SHL SUB AND EQ SWAP5 SWAP4 POP POP POP POP JUMP JUMPDEST DUP3 PUSH1 0x1 PUSH1 0x1 PUSH1 0xA0 SHL SUB AND PUSH2 0x27D4 DUP3 PUSH2 0x123C JUMP JUMPDEST PUSH1 0x1 PUSH1 0x1 PUSH1 0xA0 SHL SUB AND EQ PUSH2 0x2838 JUMPI PUSH1 0x40 MLOAD PUSH3 0x461BCD PUSH1 0xE5 SHL DUP2 MSTORE PUSH1 0x20 PUSH1 0x4 DUP3 ADD MSTORE PUSH1 0x25 PUSH1 0x24 DUP3 ADD MSTORE PUSH32 0x4552433732313A207472616E736665722066726F6D20696E636F727265637420 PUSH1 0x44 DUP3 ADD MSTORE PUSH5 0x37BBB732B9 PUSH1 0xD9 SHL PUSH1 0x64 DUP3 ADD MSTORE PUSH1 0x84 ADD PUSH2 0xC66 JUMP JUMPDEST PUSH1 0x1 PUSH1 0x1 PUSH1 0xA0 SHL SUB DUP3 AND PUSH2 0x289A JUMPI PUSH1 0x40 MLOAD PUSH3 0x461BCD PUSH1 0xE5 SHL DUP2 MSTORE PUSH1 0x20 PUSH1 0x4 DUP3 ADD MSTORE PUSH1 0x24 DUP1 DUP3 ADD MSTORE PUSH32 0x4552433732313A207472616E7366657220746F20746865207A65726F20616464 PUSH1 0x44 DUP3 ADD MSTORE PUSH4 0x72657373 PUSH1 0xE0 SHL PUSH1 0x64 DUP3 ADD MSTORE PUSH1 0x84 ADD PUSH2 0xC66 JUMP JUMPDEST PUSH2 0x28A5 DUP4 DUP4 DUP4 PUSH2 0x3105 JUMP JUMPDEST PUSH2 0x28B0 PUSH1 0x0 DUP3 PUSH2 0x24BC JUMP JUMPDEST PUSH1 0x1 PUSH1 0x1 PUSH1 0xA0 SHL SUB DUP4 AND PUSH1 0x0 SWAP1 DUP2 MSTORE PUSH1 0x3 PUSH1 0x20 MSTORE PUSH1 0x40 DUP2 KECCAK256 DUP1 SLOAD PUSH1 0x1 SWAP3 SWAP1 PUSH2 0x28D9 SWAP1 DUP5 SWAP1 PUSH2 0x41D4 JUMP JUMPDEST SWAP1 SWAP2 SSTORE POP POP PUSH1 0x1 PUSH1 0x1 PUSH1 0xA0 SHL SUB DUP3 AND PUSH1 0x0 SWAP1 DUP2 MSTORE PUSH1 0x3 PUSH1 0x20 MSTORE PUSH1 0x40 DUP2 KECCAK256 DUP1 SLOAD PUSH1 0x1 SWAP3 SWAP1 PUSH2 0x2907 SWAP1 DUP5 SWAP1 PUSH2 0x4175 JUMP JUMPDEST SWAP1 SWAP2 SSTORE POP POP PUSH1 0x0 DUP2 DUP2 MSTORE PUSH1 0x2 PUSH1 0x20 MSTORE PUSH1 0x40 DUP1 DUP3 KECCAK256 DUP1 SLOAD PUSH1 0x1 PUSH1 0x1 PUSH1 0xA0 SHL SUB NOT AND PUSH1 0x1 PUSH1 0x1 PUSH1 0xA0 SHL SUB DUP7 DUP2 AND SWAP2 DUP3 OR SWAP1 SWAP3 SSTORE SWAP2 MLOAD DUP5 SWAP4 SWAP2 DUP8 AND SWAP2 PUSH32 0xDDF252AD1BE2C89B69C2B068FC378DAA952BA7F163C4A11628F55A4DF523B3EF SWAP2 LOG4 POP POP POP JUMP JUMPDEST PUSH1 0x0 PUSH2 0x21CB DUP3 DUP5 PUSH2 0x3F91 JUMP JUMPDEST PUSH1 0x0 PUSH2 0x297F DUP3 PUSH2 0x123C JUMP JUMPDEST SWAP1 POP PUSH2 0x298D DUP2 PUSH1 0x0 DUP5 PUSH2 0x3105 JUMP JUMPDEST PUSH2 0x2998 PUSH1 0x0 DUP4 PUSH2 0x24BC JUMP JUMPDEST PUSH1 0x1 PUSH1 0x1 PUSH1 0xA0 SHL SUB DUP2 AND PUSH1 0x0 SWAP1 DUP2 MSTORE PUSH1 0x3 PUSH1 0x20 MSTORE PUSH1 0x40 DUP2 KECCAK256 DUP1 SLOAD PUSH1 0x1 SWAP3 SWAP1 PUSH2 0x29C1 SWAP1 DUP5 SWAP1 PUSH2 0x41D4 JUMP JUMPDEST SWAP1 SWAP2 SSTORE POP POP PUSH1 0x0 DUP3 DUP2 MSTORE PUSH1 0x2 PUSH1 0x20 MSTORE PUSH1 0x40 DUP1 DUP3 KECCAK256 DUP1 SLOAD PUSH1 0x1 PUSH1 0x1 PUSH1 0xA0 SHL SUB NOT AND SWAP1 SSTORE MLOAD DUP4 SWAP2 SWAP1 PUSH1 0x1 PUSH1 0x1 PUSH1 0xA0 SHL SUB DUP5 AND SWAP1 PUSH32 0xDDF252AD1BE2C89B69C2B068FC378DAA952BA7F163C4A11628F55A4DF523B3EF SWAP1 DUP4 SWAP1 LOG4 POP POP JUMP JUMPDEST PUSH1 0xA DUP1 SLOAD PUSH1 0x1 PUSH1 0x1 PUSH1 0xA0 SHL SUB DUP4 DUP2 AND PUSH1 0x1 PUSH1 0x1 PUSH1 0xA0 SHL SUB NOT DUP4 AND DUP2 OR SWAP1 SWAP4 SSTORE PUSH1 0x40 MLOAD SWAP2 AND SWAP2 SWAP1 DUP3 SWAP1 PUSH32 0x8BE0079C531659141344CD1FD0A4F28419497F9722A3DAAFE3B4186F6B6457E0 SWAP1 PUSH1 0x0 SWAP1 LOG3 POP POP JUMP JUMPDEST PUSH1 0x0 PUSH2 0x226F PUSH1 0xC SLOAD SWAP1 JUMP JUMPDEST PUSH1 0x0 DUP1 JUMPDEST DUP3 PUSH1 0xFF AND DUP2 PUSH1 0xFF AND LT ISZERO PUSH2 0x2B08 JUMPI PUSH1 0x0 JUMPDEST DUP5 PUSH1 0xFF AND DUP2 PUSH1 0xFF AND LT ISZERO PUSH2 0x2AF5 JUMPI PUSH1 0x0 DUP2 PUSH1 0xFF AND DUP4 PUSH1 0xFF AND PUSH2 0x3E8 PUSH2 0x2AB2 SWAP2 SWAP1 PUSH2 0x3F91 JUMP JUMPDEST PUSH2 0x2ABC SWAP1 DUP10 PUSH2 0x4175 JUMP JUMPDEST PUSH2 0x2AC6 SWAP2 SWAP1 PUSH2 0x4175 JUMP JUMPDEST SWAP1 POP PUSH2 0x2AD1 DUP2 PUSH2 0x3110 JUMP JUMPDEST ISZERO PUSH2 0x2AE2 JUMPI PUSH1 0x1 SWAP4 POP POP POP POP PUSH2 0x21CB JUMP JUMPDEST POP DUP1 PUSH2 0x2AED DUP2 PUSH2 0x4188 JUMP JUMPDEST SWAP2 POP POP PUSH2 0x2A8D JUMP JUMPDEST POP DUP1 PUSH2 0x2B00 DUP2 PUSH2 0x4188 JUMP JUMPDEST SWAP2 POP POP PUSH2 0x2A7C JUMP JUMPDEST POP PUSH1 0x0 SWAP5 SWAP4 POP POP POP POP JUMP JUMPDEST PUSH1 0x0 DUP1 JUMPDEST DUP3 PUSH1 0xFF AND DUP2 PUSH1 0xFF AND LT ISZERO PUSH2 0x2B08 JUMPI PUSH1 0x0 JUMPDEST DUP5 PUSH1 0xFF AND DUP2 PUSH1 0xFF AND LT ISZERO PUSH2 0x2B90 JUMPI PUSH1 0x0 DUP2 PUSH1 0xFF AND DUP4 PUSH1 0xFF AND PUSH2 0x3E8 PUSH2 0x2B4D SWAP2 SWAP1 PUSH2 0x3F91 JUMP JUMPDEST PUSH2 0x2B57 SWAP1 DUP10 PUSH2 0x4175 JUMP JUMPDEST PUSH2 0x2B61 SWAP2 SWAP1 PUSH2 0x4175 JUMP JUMPDEST SWAP1 POP PUSH2 0x2B6C DUP2 PUSH2 0x3166 JUMP JUMPDEST ISZERO PUSH2 0x2B7D JUMPI PUSH1 0x1 SWAP4 POP POP POP POP PUSH2 0x21CB JUMP JUMPDEST POP DUP1 PUSH2 0x2B88 DUP2 PUSH2 0x4188 JUMP JUMPDEST SWAP2 POP POP PUSH2 0x2B28 JUMP JUMPDEST POP DUP1 PUSH2 0x2B9B DUP2 PUSH2 0x4188 JUMP JUMPDEST SWAP2 POP POP PUSH2 0x2B17 JUMP JUMPDEST PUSH1 0x0 DUP2 GT DUP1 ISZERO PUSH2 0x2BBE JUMPI POP PUSH2 0x2BBA PUSH2 0x3E8 DUP1 PUSH2 0x3F91 JUMP JUMPDEST DUP2 GT ISZERO JUMPDEST PUSH2 0x2BFC JUMPI PUSH1 0x40 MLOAD PUSH3 0x461BCD PUSH1 0xE5 SHL DUP2 MSTORE PUSH1 0x20 PUSH1 0x4 DUP3 ADD MSTORE PUSH1 0xF PUSH1 0x24 DUP3 ADD MSTORE PUSH15 0x1A5B9D985B1A59081D1BDAD95B9259 PUSH1 0x8A SHL PUSH1 0x44 DUP3 ADD MSTORE PUSH1 0x64 ADD PUSH2 0xC66 JUMP JUMPDEST PUSH1 0x0 PUSH2 0x2C10 PUSH1 0xA SLOAD PUSH1 0x1 PUSH1 0x1 PUSH1 0xA0 SHL SUB AND SWAP1 JUMP JUMPDEST SWAP1 POP DUP1 PUSH2 0x2C21 PUSH1 0xC DUP1 SLOAD PUSH1 0x1 ADD SWAP1 SSTORE JUMP JUMPDEST PUSH2 0x2C2B DUP5 DUP5 PUSH2 0x3289 JUMP JUMPDEST PUSH1 0x0 DUP4 DUP2 MSTORE PUSH1 0x12 PUSH1 0x20 MSTORE PUSH1 0x40 DUP2 KECCAK256 DUP1 SLOAD PUSH1 0xFF NOT AND PUSH1 0x1 SWAP1 DUP2 OR SWAP1 SWAP2 SSTORE PUSH1 0x13 DUP1 SLOAD SWAP2 DUP3 ADD DUP2 SSTORE SWAP1 SWAP2 MSTORE PUSH32 0x66DE8FFDA797E3DE9C05E8FC57B3BF0EC28A930D40B0D285D93C06501CF6A090 ADD DUP4 SWAP1 SSTORE PUSH2 0x2C82 DUP4 DUP3 PUSH2 0x32A3 JUMP JUMPDEST PUSH1 0x40 MLOAD PUSH1 0x1 PUSH1 0x1 PUSH1 0xA0 SHL SUB DUP6 AND DUP2 MSTORE DUP4 SWAP1 PUSH32 0x3DC55D332B4921E9579A1712050FE88FBA876902E781345E89BA2C1A3344A88C SWAP1 PUSH1 0x20 ADD PUSH1 0x40 MLOAD DUP1 SWAP2 SUB SWAP1 LOG2 POP POP POP POP JUMP JUMPDEST PUSH1 0x40 MLOAD DUP1 PUSH1 0xA0 ADD PUSH1 0x40 MSTORE DUP1 DUP6 DUP2 MSTORE PUSH1 0x20 ADD DUP5 DUP2 MSTORE PUSH1 0x20 ADD DUP4 DUP2 MSTORE PUSH1 0x20 ADD DUP7 PUSH1 0x1 PUSH1 0x1 PUSH1 0xA0 SHL SUB AND DUP2 MSTORE PUSH1 0x20 ADD DUP3 DUP2 MSTORE POP PUSH1 0x15 PUSH1 0x0 PUSH1 0x14 SLOAD PUSH1 0x1 PUSH2 0x2D09 SWAP2 SWAP1 PUSH2 0x4175 JUMP JUMPDEST DUP2 MSTORE PUSH1 0x20 DUP1 DUP3 ADD SWAP3 SWAP1 SWAP3 MSTORE PUSH1 0x40 SWAP1 DUP2 ADD PUSH1 0x0 KECCAK256 DUP4 MLOAD DUP2 SSTORE SWAP2 DUP4 ADD MLOAD PUSH1 0x1 DUP4 ADD SSTORE DUP3 ADD MLOAD PUSH1 0x2 DUP3 ADD SSTORE PUSH1 0x60 DUP3 ADD MLOAD PUSH1 0x3 DUP3 ADD DUP1 SLOAD PUSH1 0x1 PUSH1 0x1 PUSH1 0xA0 SHL SUB NOT AND PUSH1 0x1 PUSH1 0x1 PUSH1 0xA0 SHL SUB SWAP1 SWAP3 AND SWAP2 SWAP1 SWAP2 OR SWAP1 SSTORE PUSH1 0x80 DUP3 ADD MLOAD PUSH1 0x4 DUP3 ADD SWAP1 PUSH2 0x2D6B SWAP1 DUP3 PUSH2 0x408C JUMP JUMPDEST POP POP PUSH1 0x14 SLOAD PUSH2 0x2D7C SWAP2 POP PUSH1 0x1 PUSH2 0x4175 JUMP JUMPDEST PUSH1 0x14 SSTORE PUSH1 0x40 MLOAD PUSH1 0x1 PUSH1 0x1 PUSH1 0xA0 SHL SUB DUP7 AND DUP2 MSTORE DUP5 SWAP1 PUSH32 0x557009378AAD27538E74DE75F6BAE05DC5BE9B59B03C60432FEFB16C4D906F3B SWAP1 PUSH1 0x20 ADD PUSH1 0x40 MLOAD DUP1 SWAP2 SUB SWAP1 LOG2 POP POP POP POP POP JUMP JUMPDEST PUSH1 0x0 DUP3 PUSH1 0x1 PUSH1 0x1 PUSH1 0xA0 SHL SUB AND DUP3 PUSH1 0x40 MLOAD PUSH1 0x0 PUSH1 0x40 MLOAD DUP1 DUP4 SUB DUP2 DUP6 DUP8 GAS CALL SWAP3 POP POP POP RETURNDATASIZE DUP1 PUSH1 0x0 DUP2 EQ PUSH2 0x2E11 JUMPI PUSH1 0x40 MLOAD SWAP2 POP PUSH1 0x1F NOT PUSH1 0x3F RETURNDATASIZE ADD AND DUP3 ADD PUSH1 0x40 MSTORE RETURNDATASIZE DUP3 MSTORE RETURNDATASIZE PUSH1 0x0 PUSH1 0x20 DUP5 ADD RETURNDATACOPY PUSH2 0x2E16 JUMP JUMPDEST PUSH1 0x60 SWAP2 POP JUMPDEST POP POP SWAP1 POP DUP1 PUSH2 0xD07 JUMPI PUSH1 0x40 MLOAD PUSH3 0x461BCD PUSH1 0xE5 SHL DUP2 MSTORE PUSH1 0x20 PUSH1 0x4 DUP3 ADD MSTORE PUSH1 0x1A PUSH1 0x24 DUP3 ADD MSTORE PUSH32 0x57495448445241573A205472616E73666572206661696C65642E000000000000 PUSH1 0x44 DUP3 ADD MSTORE PUSH1 0x64 ADD PUSH2 0xC66 JUMP JUMPDEST DUP2 PUSH1 0x1 PUSH1 0x1 PUSH1 0xA0 SHL SUB AND DUP4 PUSH1 0x1 PUSH1 0x1 PUSH1 0xA0 SHL SUB AND SUB PUSH2 0x2EC8 JUMPI PUSH1 0x40 MLOAD PUSH3 0x461BCD PUSH1 0xE5 SHL DUP2 MSTORE PUSH1 0x20 PUSH1 0x4 DUP3 ADD MSTORE PUSH1 0x19 PUSH1 0x24 DUP3 ADD MSTORE PUSH32 0x4552433732313A20617070726F766520746F2063616C6C657200000000000000 PUSH1 0x44 DUP3 ADD MSTORE PUSH1 0x64 ADD PUSH2 0xC66 JUMP JUMPDEST PUSH1 0x1 PUSH1 0x1 PUSH1 0xA0 SHL SUB DUP4 DUP2 AND PUSH1 0x0 DUP2 DUP2 MSTORE PUSH1 0x5 PUSH1 0x20 SWAP1 DUP2 MSTORE PUSH1 0x40 DUP1 DUP4 KECCAK256 SWAP5 DUP8 AND DUP1 DUP5 MSTORE SWAP5 DUP3 MSTORE SWAP2 DUP3 SWAP1 KECCAK256 DUP1 SLOAD PUSH1 0xFF NOT AND DUP7 ISZERO ISZERO SWAP1 DUP2 OR SWAP1 SWAP2 SSTORE SWAP2 MLOAD SWAP2 DUP3 MSTORE PUSH32 0x17307EAB39AB6107E8899845AD3D59BD9653F200F220920489CA2B5937696C31 SWAP2 ADD PUSH1 0x40 MLOAD DUP1 SWAP2 SUB SWAP1 LOG3 POP POP POP JUMP JUMPDEST PUSH2 0x2F40 DUP5 DUP5 DUP5 PUSH2 0x27C1 JUMP JUMPDEST PUSH2 0x2F4C DUP5 DUP5 DUP5 DUP5 PUSH2 0x335D JUMP JUMPDEST PUSH2 0xE03 JUMPI PUSH1 0x40 MLOAD PUSH3 0x461BCD PUSH1 0xE5 SHL DUP2 MSTORE PUSH1 0x4 ADD PUSH2 0xC66 SWAP1 PUSH2 0x4216 JUMP JUMPDEST PUSH1 0x60 PUSH1 0x18 DUP1 SLOAD PUSH2 0xB48 SWAP1 PUSH2 0x3F47 JUMP JUMPDEST PUSH1 0x60 DUP2 PUSH1 0x0 SUB PUSH2 0x2F9E JUMPI POP POP PUSH1 0x40 DUP1 MLOAD DUP1 DUP3 ADD SWAP1 SWAP2 MSTORE PUSH1 0x1 DUP2 MSTORE PUSH1 0x3 PUSH1 0xFC SHL PUSH1 0x20 DUP3 ADD MSTORE SWAP1 JUMP JUMPDEST DUP2 PUSH1 0x0 JUMPDEST DUP2 ISZERO PUSH2 0x2FC8 JUMPI DUP1 PUSH2 0x2FB2 DUP2 PUSH2 0x41A7 JUMP JUMPDEST SWAP2 POP PUSH2 0x2FC1 SWAP1 POP PUSH1 0xA DUP4 PUSH2 0x402A JUMP JUMPDEST SWAP2 POP PUSH2 0x2FA2 JUMP JUMPDEST PUSH1 0x0 DUP2 PUSH8 0xFFFFFFFFFFFFFFFF DUP2 GT ISZERO PUSH2 0x2FE3 JUMPI PUSH2 0x2FE3 PUSH2 0x3ABF JUMP JUMPDEST PUSH1 0x40 MLOAD SWAP1 DUP1 DUP3 MSTORE DUP1 PUSH1 0x1F ADD PUSH1 0x1F NOT AND PUSH1 0x20 ADD DUP3 ADD PUSH1 0x40 MSTORE DUP1 ISZERO PUSH2 0x300D JUMPI PUSH1 0x20 DUP3 ADD DUP2 DUP1 CALLDATASIZE DUP4 CALLDATACOPY ADD SWAP1 POP JUMPDEST POP SWAP1 POP JUMPDEST DUP5 ISZERO PUSH2 0x2163 JUMPI PUSH2 0x3022 PUSH1 0x1 DUP4 PUSH2 0x41D4 JUMP JUMPDEST SWAP2 POP PUSH2 0x302F PUSH1 0xA DUP7 PUSH2 0x41C0 JUMP JUMPDEST PUSH2 0x303A SWAP1 PUSH1 0x30 PUSH2 0x4175 JUMP JUMPDEST PUSH1 0xF8 SHL DUP2 DUP4 DUP2 MLOAD DUP2 LT PUSH2 0x304F JUMPI PUSH2 0x304F PUSH2 0x3FB0 JUMP JUMPDEST PUSH1 0x20 ADD ADD SWAP1 PUSH1 0x1 PUSH1 0x1 PUSH1 0xF8 SHL SUB NOT AND SWAP1 DUP2 PUSH1 0x0 BYTE SWAP1 MSTORE8 POP PUSH2 0x3071 PUSH1 0xA DUP7 PUSH2 0x402A JUMP JUMPDEST SWAP5 POP PUSH2 0x3011 JUMP JUMPDEST PUSH1 0x0 PUSH1 0x1 PUSH1 0x1 PUSH1 0xE0 SHL SUB NOT DUP3 AND PUSH4 0x80AC58CD PUSH1 0xE0 SHL EQ DUP1 PUSH2 0x30A9 JUMPI POP PUSH1 0x1 PUSH1 0x1 PUSH1 0xE0 SHL SUB NOT DUP3 AND PUSH4 0x5B5E139F PUSH1 0xE0 SHL EQ JUMPDEST DUP1 PUSH2 0xB0D JUMPI POP PUSH4 0x1FFC9A7 PUSH1 0xE0 SHL PUSH1 0x1 PUSH1 0x1 PUSH1 0xE0 SHL SUB NOT DUP4 AND EQ PUSH2 0xB0D JUMP JUMPDEST PUSH32 0x3FA96D7B6BCBFE71EF171666D84DB3CF52FA2D1C8AFDB1CC8E486177F208B7DF DUP3 DUP3 PUSH1 0x40 MLOAD PUSH2 0x30F9 SWAP3 SWAP2 SWAP1 PUSH2 0x4268 JUMP JUMPDEST PUSH1 0x40 MLOAD DUP1 SWAP2 SUB SWAP1 LOG1 POP POP JUMP JUMPDEST PUSH2 0xD07 DUP4 DUP4 DUP4 PUSH2 0x345B JUMP JUMPDEST PUSH1 0x0 DUP1 PUSH2 0x311F PUSH2 0x3E8 DUP5 PUSH2 0x41C0 JUMP JUMPDEST SWAP1 POP PUSH1 0x0 PUSH2 0x312F PUSH2 0x3E8 DUP6 PUSH2 0x402A JUMP JUMPDEST SWAP1 POP PUSH2 0x178 DUP3 LT ISZERO DUP1 ISZERO PUSH2 0x3145 JUMPI POP PUSH2 0x271 DUP3 GT ISZERO JUMPDEST DUP1 ISZERO PUSH2 0x3153 JUMPI POP PUSH2 0x191 DUP2 LT ISZERO JUMPDEST DUP1 ISZERO PUSH2 0x2163 JUMPI POP PUSH2 0x258 LT ISZERO SWAP4 SWAP3 POP POP POP JUMP JUMPDEST PUSH1 0x0 DUP1 PUSH2 0x3175 PUSH2 0x3E8 DUP5 PUSH2 0x41C0 JUMP JUMPDEST SWAP1 POP PUSH1 0x0 PUSH2 0x3185 PUSH2 0x3E8 DUP6 PUSH2 0x402A JUMP JUMPDEST SWAP1 POP PUSH1 0x0 PUSH1 0x1 DUP4 LT ISZERO DUP1 ISZERO PUSH2 0x319B JUMPI POP PUSH1 0xFA DUP4 GT ISZERO JUMPDEST DUP1 ISZERO PUSH2 0x31A8 JUMPI POP PUSH1 0x1 DUP3 LT ISZERO JUMPDEST DUP1 ISZERO PUSH2 0x31B5 JUMPI POP PUSH1 0xC8 DUP3 GT ISZERO JUMPDEST SWAP1 POP PUSH1 0x0 PUSH2 0x2EF DUP5 LT ISZERO DUP1 ISZERO PUSH2 0x31CD JUMPI POP PUSH2 0x3E8 DUP5 GT ISZERO JUMPDEST DUP1 ISZERO PUSH2 0x31DA JUMPI POP PUSH1 0x1 DUP4 LT ISZERO JUMPDEST DUP1 ISZERO PUSH2 0x31E7 JUMPI POP PUSH1 0xC8 DUP4 GT ISZERO JUMPDEST SWAP1 POP PUSH1 0x0 PUSH1 0x1 DUP6 LT ISZERO DUP1 ISZERO PUSH2 0x31FD JUMPI POP PUSH1 0xFA DUP6 GT ISZERO JUMPDEST DUP1 ISZERO PUSH2 0x320B JUMPI POP PUSH2 0x321 DUP5 LT ISZERO JUMPDEST DUP1 ISZERO PUSH2 0x3219 JUMPI POP PUSH2 0x3E8 DUP5 GT ISZERO JUMPDEST SWAP1 POP PUSH1 0x0 PUSH2 0x2EF DUP7 LT ISZERO DUP1 ISZERO PUSH2 0x3231 JUMPI POP PUSH2 0x3E8 DUP7 GT ISZERO JUMPDEST DUP1 ISZERO PUSH2 0x323F JUMPI POP PUSH2 0x321 DUP6 LT ISZERO JUMPDEST DUP1 ISZERO PUSH2 0x324D JUMPI POP PUSH2 0x3E8 DUP6 GT ISZERO JUMPDEST SWAP1 POP DUP4 DUP1 PUSH2 0x3258 JUMPI POP DUP3 JUMPDEST DUP1 PUSH2 0x3260 JUMPI POP DUP2 JUMPDEST DUP1 PUSH2 0x3268 JUMPI POP DUP1 JUMPDEST ISZERO PUSH2 0x327B JUMPI POP PUSH1 0x1 SWAP8 SWAP7 POP POP POP POP POP POP POP JUMP JUMPDEST POP PUSH1 0x0 SWAP8 SWAP7 POP POP POP POP POP POP POP JUMP JUMPDEST PUSH2 0x1146 DUP3 DUP3 PUSH1 0x40 MLOAD DUP1 PUSH1 0x20 ADD PUSH1 0x40 MSTORE DUP1 PUSH1 0x0 DUP2 MSTORE POP PUSH2 0x34E6 JUMP JUMPDEST PUSH1 0x40 DUP1 MLOAD PUSH1 0x1 DUP1 DUP3 MSTORE DUP2 DUP4 ADD SWAP1 SWAP3 MSTORE PUSH1 0x0 SWAP2 DUP2 PUSH1 0x20 ADD JUMPDEST PUSH1 0x40 DUP1 MLOAD DUP1 DUP3 ADD SWAP1 SWAP2 MSTORE PUSH1 0x0 DUP1 DUP3 MSTORE PUSH1 0x20 DUP3 ADD MSTORE DUP2 MSTORE PUSH1 0x20 ADD SWAP1 PUSH1 0x1 SWAP1 SUB SWAP1 DUP2 PUSH2 0x32BA JUMPI POP POP PUSH1 0x11 SLOAD DUP2 MLOAD SWAP2 SWAP3 POP PUSH1 0x1 PUSH1 0x1 PUSH1 0x60 SHL SUB AND SWAP1 DUP3 SWAP1 PUSH1 0x0 SWAP1 PUSH2 0x3303 JUMPI PUSH2 0x3303 PUSH2 0x3FB0 JUMP JUMPDEST PUSH1 0x20 MUL PUSH1 0x20 ADD ADD MLOAD PUSH1 0x20 ADD SWAP1 PUSH1 0x1 PUSH1 0x1 PUSH1 0x60 SHL SUB AND SWAP1 DUP2 PUSH1 0x1 PUSH1 0x1 PUSH1 0x60 SHL SUB AND DUP2 MSTORE POP POP DUP2 DUP2 PUSH1 0x0 DUP2 MLOAD DUP2 LT PUSH2 0x333B JUMPI PUSH2 0x333B PUSH2 0x3FB0 JUMP JUMPDEST PUSH1 0x20 SWAP1 DUP2 MUL SWAP2 SWAP1 SWAP2 ADD ADD MLOAD PUSH1 0x1 PUSH1 0x1 PUSH1 0xA0 SHL SUB SWAP1 SWAP2 AND SWAP1 MSTORE PUSH2 0xD07 DUP4 DUP3 PUSH2 0x252A JUMP JUMPDEST PUSH1 0x0 PUSH1 0x1 PUSH1 0x1 PUSH1 0xA0 SHL SUB DUP5 AND EXTCODESIZE ISZERO PUSH2 0x3453 JUMPI PUSH1 0x40 MLOAD PUSH4 0xA85BD01 PUSH1 0xE1 SHL DUP2 MSTORE PUSH1 0x1 PUSH1 0x1 PUSH1 0xA0 SHL SUB DUP6 AND SWAP1 PUSH4 0x150B7A02 SWAP1 PUSH2 0x33A1 SWAP1 CALLER SWAP1 DUP10 SWAP1 DUP9 SWAP1 DUP9 SWAP1 PUSH1 0x4 ADD PUSH2 0x4281 JUMP JUMPDEST PUSH1 0x20 PUSH1 0x40 MLOAD DUP1 DUP4 SUB DUP2 PUSH1 0x0 DUP8 GAS CALL SWAP3 POP POP POP DUP1 ISZERO PUSH2 0x33DC JUMPI POP PUSH1 0x40 DUP1 MLOAD PUSH1 0x1F RETURNDATASIZE SWAP1 DUP2 ADD PUSH1 0x1F NOT AND DUP3 ADD SWAP1 SWAP3 MSTORE PUSH2 0x33D9 SWAP2 DUP2 ADD SWAP1 PUSH2 0x42BE JUMP JUMPDEST PUSH1 0x1 JUMPDEST PUSH2 0x3439 JUMPI RETURNDATASIZE DUP1 DUP1 ISZERO PUSH2 0x340A JUMPI PUSH1 0x40 MLOAD SWAP2 POP PUSH1 0x1F NOT PUSH1 0x3F RETURNDATASIZE ADD AND DUP3 ADD PUSH1 0x40 MSTORE RETURNDATASIZE DUP3 MSTORE RETURNDATASIZE PUSH1 0x0 PUSH1 0x20 DUP5 ADD RETURNDATACOPY PUSH2 0x340F JUMP JUMPDEST PUSH1 0x60 SWAP2 POP JUMPDEST POP DUP1 MLOAD PUSH1 0x0 SUB PUSH2 0x3431 JUMPI PUSH1 0x40 MLOAD PUSH3 0x461BCD PUSH1 0xE5 SHL DUP2 MSTORE PUSH1 0x4 ADD PUSH2 0xC66 SWAP1 PUSH2 0x4216 JUMP JUMPDEST DUP1 MLOAD DUP2 PUSH1 0x20 ADD REVERT JUMPDEST PUSH1 0x1 PUSH1 0x1 PUSH1 0xE0 SHL SUB NOT AND PUSH4 0xA85BD01 PUSH1 0xE1 SHL EQ SWAP1 POP PUSH2 0x2163 JUMP JUMPDEST POP PUSH1 0x1 PUSH2 0x2163 JUMP JUMPDEST PUSH2 0x3466 DUP4 DUP4 DUP4 PUSH2 0x3519 JUMP JUMPDEST PUSH1 0xA SLOAD PUSH1 0x1 PUSH1 0x1 PUSH1 0xA0 SHL SUB AND CALLER EQ PUSH2 0xD07 JUMPI PUSH1 0xA SLOAD PUSH1 0x1 PUSH1 0xA0 SHL SWAP1 DIV PUSH1 0xFF AND ISZERO PUSH2 0xD07 JUMPI PUSH1 0x40 MLOAD PUSH3 0x461BCD PUSH1 0xE5 SHL DUP2 MSTORE PUSH1 0x20 PUSH1 0x4 DUP3 ADD MSTORE PUSH1 0x2B PUSH1 0x24 DUP3 ADD MSTORE PUSH32 0x4552433732315061757361626C653A20746F6B656E207472616E736665722077 PUSH1 0x44 DUP3 ADD MSTORE PUSH11 0x1A1A5B19481C185D5CD959 PUSH1 0xAA SHL PUSH1 0x64 DUP3 ADD MSTORE PUSH1 0x84 ADD PUSH2 0xC66 JUMP JUMPDEST PUSH2 0x34F0 DUP4 DUP4 PUSH2 0x35D1 JUMP JUMPDEST PUSH2 0x34FD PUSH1 0x0 DUP5 DUP5 DUP5 PUSH2 0x335D JUMP JUMPDEST PUSH2 0xD07 JUMPI PUSH1 0x40 MLOAD PUSH3 0x461BCD PUSH1 0xE5 SHL DUP2 MSTORE PUSH1 0x4 ADD PUSH2 0xC66 SWAP1 PUSH2 0x4216 JUMP JUMPDEST PUSH1 0x1 PUSH1 0x1 PUSH1 0xA0 SHL SUB DUP4 AND PUSH2 0x3574 JUMPI PUSH2 0x356F DUP2 PUSH1 0x8 DUP1 SLOAD PUSH1 0x0 DUP4 DUP2 MSTORE PUSH1 0x9 PUSH1 0x20 MSTORE PUSH1 0x40 DUP2 KECCAK256 DUP3 SWAP1 SSTORE PUSH1 0x1 DUP3 ADD DUP4 SSTORE SWAP2 SWAP1 SWAP2 MSTORE PUSH32 0xF3F7A9FE364FAAB93B216DA50A3214154F22A0A2B415B23A84C8169E8B636EE3 ADD SSTORE JUMP JUMPDEST PUSH2 0x3597 JUMP JUMPDEST DUP2 PUSH1 0x1 PUSH1 0x1 PUSH1 0xA0 SHL SUB AND DUP4 PUSH1 0x1 PUSH1 0x1 PUSH1 0xA0 SHL SUB AND EQ PUSH2 0x3597 JUMPI PUSH2 0x3597 DUP4 DUP3 PUSH2 0x371F JUMP JUMPDEST PUSH1 0x1 PUSH1 0x1 PUSH1 0xA0 SHL SUB DUP3 AND PUSH2 0x35AE JUMPI PUSH2 0xD07 DUP2 PUSH2 0x37BC JUMP JUMPDEST DUP3 PUSH1 0x1 PUSH1 0x1 PUSH1 0xA0 SHL SUB AND DUP3 PUSH1 0x1 PUSH1 0x1 PUSH1 0xA0 SHL SUB AND EQ PUSH2 0xD07 JUMPI PUSH2 0xD07 DUP3 DUP3 PUSH2 0x386B JUMP JUMPDEST PUSH1 0x1 PUSH1 0x1 PUSH1 0xA0 SHL SUB DUP3 AND PUSH2 0x3627 JUMPI PUSH1 0x40 MLOAD PUSH3 0x461BCD PUSH1 0xE5 SHL DUP2 MSTORE PUSH1 0x20 PUSH1 0x4 DUP3 ADD DUP2 SWAP1 MSTORE PUSH1 0x24 DUP3 ADD MSTORE PUSH32 0x4552433732313A206D696E7420746F20746865207A65726F2061646472657373 PUSH1 0x44 DUP3 ADD MSTORE PUSH1 0x64 ADD PUSH2 0xC66 JUMP JUMPDEST PUSH1 0x0 DUP2 DUP2 MSTORE PUSH1 0x2 PUSH1 0x20 MSTORE PUSH1 0x40 SWAP1 KECCAK256 SLOAD PUSH1 0x1 PUSH1 0x1 PUSH1 0xA0 SHL SUB AND ISZERO PUSH2 0x368C JUMPI PUSH1 0x40 MLOAD PUSH3 0x461BCD PUSH1 0xE5 SHL DUP2 MSTORE PUSH1 0x20 PUSH1 0x4 DUP3 ADD MSTORE PUSH1 0x1C PUSH1 0x24 DUP3 ADD MSTORE PUSH32 0x4552433732313A20746F6B656E20616C7265616479206D696E74656400000000 PUSH1 0x44 DUP3 ADD MSTORE PUSH1 0x64 ADD PUSH2 0xC66 JUMP JUMPDEST PUSH2 0x3698 PUSH1 0x0 DUP4 DUP4 PUSH2 0x3105 JUMP JUMPDEST PUSH1 0x1 PUSH1 0x1 PUSH1 0xA0 SHL SUB DUP3 AND PUSH1 0x0 SWAP1 DUP2 MSTORE PUSH1 0x3 PUSH1 0x20 MSTORE PUSH1 0x40 DUP2 KECCAK256 DUP1 SLOAD PUSH1 0x1 SWAP3 SWAP1 PUSH2 0x36C1 SWAP1 DUP5 SWAP1 PUSH2 0x4175 JUMP JUMPDEST SWAP1 SWAP2 SSTORE POP POP PUSH1 0x0 DUP2 DUP2 MSTORE PUSH1 0x2 PUSH1 0x20 MSTORE PUSH1 0x40 DUP1 DUP3 KECCAK256 DUP1 SLOAD PUSH1 0x1 PUSH1 0x1 PUSH1 0xA0 SHL SUB NOT AND PUSH1 0x1 PUSH1 0x1 PUSH1 0xA0 SHL SUB DUP7 AND SWAP1 DUP2 OR SWAP1 SWAP2 SSTORE SWAP1 MLOAD DUP4 SWAP3 SWAP1 PUSH32 0xDDF252AD1BE2C89B69C2B068FC378DAA952BA7F163C4A11628F55A4DF523B3EF SWAP1 DUP3 SWAP1 LOG4 POP POP JUMP JUMPDEST PUSH1 0x0 PUSH1 0x1 PUSH2 0x372C DUP5 PUSH2 0x129C JUMP JUMPDEST PUSH2 0x3736 SWAP2 SWAP1 PUSH2 0x41D4 JUMP JUMPDEST PUSH1 0x0 DUP4 DUP2 MSTORE PUSH1 0x7 PUSH1 0x20 MSTORE PUSH1 0x40 SWAP1 KECCAK256 SLOAD SWAP1 SWAP2 POP DUP1 DUP3 EQ PUSH2 0x3789 JUMPI PUSH1 0x1 PUSH1 0x1 PUSH1 0xA0 SHL SUB DUP5 AND PUSH1 0x0 SWAP1 DUP2 MSTORE PUSH1 0x6 PUSH1 0x20 SWAP1 DUP2 MSTORE PUSH1 0x40 DUP1 DUP4 KECCAK256 DUP6 DUP5 MSTORE DUP3 MSTORE DUP1 DUP4 KECCAK256 SLOAD DUP5 DUP5 MSTORE DUP2 DUP5 KECCAK256 DUP2 SWAP1 SSTORE DUP4 MSTORE PUSH1 0x7 SWAP1 SWAP2 MSTORE SWAP1 KECCAK256 DUP2 SWAP1 SSTORE JUMPDEST POP PUSH1 0x0 SWAP2 DUP3 MSTORE PUSH1 0x7 PUSH1 0x20 SWAP1 DUP2 MSTORE PUSH1 0x40 DUP1 DUP5 KECCAK256 DUP5 SWAP1 SSTORE PUSH1 0x1 PUSH1 0x1 PUSH1 0xA0 SHL SUB SWAP1 SWAP5 AND DUP4 MSTORE PUSH1 0x6 DUP2 MSTORE DUP4 DUP4 KECCAK256 SWAP2 DUP4 MSTORE MSTORE SWAP1 DUP2 KECCAK256 SSTORE JUMP JUMPDEST PUSH1 0x8 SLOAD PUSH1 0x0 SWAP1 PUSH2 0x37CE SWAP1 PUSH1 0x1 SWAP1 PUSH2 0x41D4 JUMP JUMPDEST PUSH1 0x0 DUP4 DUP2 MSTORE PUSH1 0x9 PUSH1 0x20 MSTORE PUSH1 0x40 DUP2 KECCAK256 SLOAD PUSH1 0x8 DUP1 SLOAD SWAP4 SWAP5 POP SWAP1 SWAP3 DUP5 SWAP1 DUP2 LT PUSH2 0x37F6 JUMPI PUSH2 0x37F6 PUSH2 0x3FB0 JUMP JUMPDEST SWAP1 PUSH1 0x0 MSTORE PUSH1 0x20 PUSH1 0x0 KECCAK256 ADD SLOAD SWAP1 POP DUP1 PUSH1 0x8 DUP4 DUP2 SLOAD DUP2 LT PUSH2 0x3817 JUMPI PUSH2 0x3817 PUSH2 0x3FB0 JUMP JUMPDEST PUSH1 0x0 SWAP2 DUP3 MSTORE PUSH1 0x20 DUP1 DUP4 KECCAK256 SWAP1 SWAP2 ADD SWAP3 SWAP1 SWAP3 SSTORE DUP3 DUP2 MSTORE PUSH1 0x9 SWAP1 SWAP2 MSTORE PUSH1 0x40 DUP1 DUP3 KECCAK256 DUP5 SWAP1 SSTORE DUP6 DUP3 MSTORE DUP2 KECCAK256 SSTORE PUSH1 0x8 DUP1 SLOAD DUP1 PUSH2 0x384F JUMPI PUSH2 0x384F PUSH2 0x42DB JUMP JUMPDEST PUSH1 0x1 SWAP1 SUB DUP2 DUP2 SWAP1 PUSH1 0x0 MSTORE PUSH1 0x20 PUSH1 0x0 KECCAK256 ADD PUSH1 0x0 SWAP1 SSTORE SWAP1 SSTORE POP POP POP POP JUMP JUMPDEST PUSH1 0x0 PUSH2 0x3876 DUP4 PUSH2 0x129C JUMP JUMPDEST PUSH1 0x1 PUSH1 0x1 PUSH1 0xA0 SHL SUB SWAP1 SWAP4 AND PUSH1 0x0 SWAP1 DUP2 MSTORE PUSH1 0x6 PUSH1 0x20 SWAP1 DUP2 MSTORE PUSH1 0x40 DUP1 DUP4 KECCAK256 DUP7 DUP5 MSTORE DUP3 MSTORE DUP1 DUP4 KECCAK256 DUP6 SWAP1 SSTORE SWAP4 DUP3 MSTORE PUSH1 0x7 SWAP1 MSTORE SWAP2 SWAP1 SWAP2 KECCAK256 SWAP2 SWAP1 SWAP2 SSTORE POP JUMP JUMPDEST PUSH1 0x40 MLOAD DUP1 PUSH1 0xA0 ADD PUSH1 0x40 MSTORE DUP1 PUSH1 0x0 DUP2 MSTORE PUSH1 0x20 ADD PUSH1 0x0 DUP2 MSTORE PUSH1 0x20 ADD PUSH1 0x0 DUP2 MSTORE PUSH1 0x20 ADD PUSH1 0x0 PUSH1 0x1 PUSH1 0x1 PUSH1 0xA0 SHL SUB AND DUP2 MSTORE PUSH1 0x20 ADD PUSH1 0x60 DUP2 MSTORE POP SWAP1 JUMP JUMPDEST PUSH1 0x1 PUSH1 0x1 PUSH1 0xE0 SHL SUB NOT DUP2 AND DUP2 EQ PUSH2 0x1075 JUMPI PUSH1 0x0 DUP1 REVERT JUMPDEST PUSH1 0x0 PUSH1 0x20 DUP3 DUP5 SUB SLT ISZERO PUSH2 0x390F JUMPI PUSH1 0x0 DUP1 REVERT JUMPDEST DUP2 CALLDATALOAD PUSH2 0x21CB DUP2 PUSH2 0x38E7 JUMP JUMPDEST DUP1 CALLDATALOAD DUP1 ISZERO ISZERO DUP2 EQ PUSH2 0x392A JUMPI PUSH1 0x0 DUP1 REVERT JUMPDEST SWAP2 SWAP1 POP JUMP JUMPDEST PUSH1 0x0 PUSH1 0x20 DUP3 DUP5 SUB SLT ISZERO PUSH2 0x3941 JUMPI PUSH1 0x0 DUP1 REVERT JUMPDEST PUSH2 0x21CB DUP3 PUSH2 0x391A JUMP JUMPDEST PUSH1 0x0 JUMPDEST DUP4 DUP2 LT ISZERO PUSH2 0x3965 JUMPI DUP2 DUP2 ADD MLOAD DUP4 DUP3 ADD MSTORE PUSH1 0x20 ADD PUSH2 0x394D JUMP JUMPDEST POP POP PUSH1 0x0 SWAP2 ADD MSTORE JUMP JUMPDEST PUSH1 0x0 DUP2 MLOAD DUP1 DUP5 MSTORE PUSH2 0x3986 DUP2 PUSH1 0x20 DUP7 ADD PUSH1 0x20 DUP7 ADD PUSH2 0x394A JUMP JUMPDEST PUSH1 0x1F ADD PUSH1 0x1F NOT AND SWAP3 SWAP1 SWAP3 ADD PUSH1 0x20 ADD SWAP3 SWAP2 POP POP JUMP JUMPDEST PUSH1 0x20 DUP2 MSTORE PUSH1 0x0 PUSH2 0x21CB PUSH1 0x20 DUP4 ADD DUP5 PUSH2 0x396E JUMP JUMPDEST PUSH1 0x0 PUSH1 0x20 DUP3 DUP5 SUB SLT ISZERO PUSH2 0x39BF JUMPI PUSH1 0x0 DUP1 REVERT JUMPDEST POP CALLDATALOAD SWAP2 SWAP1 POP JUMP JUMPDEST PUSH1 0x1 PUSH1 0x1 PUSH1 0xA0 SHL SUB DUP2 AND DUP2 EQ PUSH2 0x1075 JUMPI PUSH1 0x0 DUP1 REVERT JUMPDEST PUSH1 0x0 DUP1 PUSH1 0x40 DUP4 DUP6 SUB SLT ISZERO PUSH2 0x39EE JUMPI PUSH1 0x0 DUP1 REVERT JUMPDEST DUP3 CALLDATALOAD PUSH2 0x39F9 DUP2 PUSH2 0x39C6 JUMP JUMPDEST SWAP5 PUSH1 0x20 SWAP4 SWAP1 SWAP4 ADD CALLDATALOAD SWAP4 POP POP POP JUMP JUMPDEST DUP1 CALLDATALOAD PUSH1 0x1 PUSH1 0x1 PUSH1 0x60 SHL SUB DUP2 AND DUP2 EQ PUSH2 0x392A JUMPI PUSH1 0x0 DUP1 REVERT JUMPDEST PUSH1 0x0 DUP1 PUSH1 0x0 PUSH1 0x60 DUP5 DUP7 SUB SLT ISZERO PUSH2 0x3A33 JUMPI PUSH1 0x0 DUP1 REVERT JUMPDEST DUP4 CALLDATALOAD SWAP3 POP PUSH1 0x20 DUP5 ADD CALLDATALOAD PUSH2 0x3A45 DUP2 PUSH2 0x39C6 JUMP JUMPDEST SWAP2 POP PUSH2 0x3A53 PUSH1 0x40 DUP6 ADD PUSH2 0x3A07 JUMP JUMPDEST SWAP1 POP SWAP3 POP SWAP3 POP SWAP3 JUMP JUMPDEST PUSH1 0x0 DUP1 PUSH1 0x0 PUSH1 0x60 DUP5 DUP7 SUB SLT ISZERO PUSH2 0x3A71 JUMPI PUSH1 0x0 DUP1 REVERT JUMPDEST DUP4 CALLDATALOAD PUSH2 0x3A7C DUP2 PUSH2 0x39C6 JUMP JUMPDEST SWAP3 POP PUSH1 0x20 DUP5 ADD CALLDATALOAD PUSH2 0x3A8C DUP2 PUSH2 0x39C6 JUMP JUMPDEST SWAP3 SWAP6 SWAP3 SWAP5 POP POP POP PUSH1 0x40 SWAP2 SWAP1 SWAP2 ADD CALLDATALOAD SWAP1 JUMP JUMPDEST PUSH1 0x0 DUP1 PUSH1 0x40 DUP4 DUP6 SUB SLT ISZERO PUSH2 0x3AB0 JUMPI PUSH1 0x0 DUP1 REVERT JUMPDEST POP POP DUP1 CALLDATALOAD SWAP3 PUSH1 0x20 SWAP1 SWAP2 ADD CALLDATALOAD SWAP2 POP JUMP JUMPDEST PUSH4 0x4E487B71 PUSH1 0xE0 SHL PUSH1 0x0 MSTORE PUSH1 0x41 PUSH1 0x4 MSTORE PUSH1 0x24 PUSH1 0x0 REVERT JUMPDEST PUSH1 0x0 PUSH8 0xFFFFFFFFFFFFFFFF DUP1 DUP5 GT ISZERO PUSH2 0x3AF0 JUMPI PUSH2 0x3AF0 PUSH2 0x3ABF JUMP JUMPDEST PUSH1 0x40 MLOAD PUSH1 0x1F DUP6 ADD PUSH1 0x1F NOT SWAP1 DUP2 AND PUSH1 0x3F ADD AND DUP2 ADD SWAP1 DUP3 DUP3 GT DUP2 DUP4 LT OR ISZERO PUSH2 0x3B18 JUMPI PUSH2 0x3B18 PUSH2 0x3ABF JUMP JUMPDEST DUP2 PUSH1 0x40 MSTORE DUP1 SWAP4 POP DUP6 DUP2 MSTORE DUP7 DUP7 DUP7 ADD GT ISZERO PUSH2 0x3B31 JUMPI PUSH1 0x0 DUP1 REVERT JUMPDEST DUP6 DUP6 PUSH1 0x20 DUP4 ADD CALLDATACOPY PUSH1 0x0 PUSH1 0x20 DUP8 DUP4 ADD ADD MSTORE POP POP POP SWAP4 SWAP3 POP POP POP JUMP JUMPDEST PUSH1 0x0 DUP3 PUSH1 0x1F DUP4 ADD SLT PUSH2 0x3B5C JUMPI PUSH1 0x0 DUP1 REVERT JUMPDEST PUSH2 0x21CB DUP4 DUP4 CALLDATALOAD PUSH1 0x20 DUP6 ADD PUSH2 0x3AD5 JUMP JUMPDEST PUSH1 0x0 PUSH1 0x20 DUP3 DUP5 SUB SLT ISZERO PUSH2 0x3B7D JUMPI PUSH1 0x0 DUP1 REVERT JUMPDEST DUP2 CALLDATALOAD PUSH8 0xFFFFFFFFFFFFFFFF DUP2 GT ISZERO PUSH2 0x3B94 JUMPI PUSH1 0x0 DUP1 REVERT JUMPDEST PUSH2 0x2163 DUP5 DUP3 DUP6 ADD PUSH2 0x3B4B JUMP JUMPDEST DUP1 MLOAD DUP3 MSTORE PUSH1 0x20 DUP2 ADD MLOAD PUSH1 0x20 DUP4 ADD MSTORE PUSH1 0x40 DUP2 ADD MLOAD PUSH1 0x40 DUP4 ADD MSTORE PUSH1 0x1 DUP1 PUSH1 0xA0 SHL SUB PUSH1 0x60 DUP3 ADD MLOAD AND PUSH1 0x60 DUP4 ADD MSTORE PUSH1 0x0 PUSH1 0x80 DUP3 ADD MLOAD PUSH1 0xA0 PUSH1 0x80 DUP6 ADD MSTORE PUSH2 0x2163 PUSH1 0xA0 DUP6 ADD DUP3 PUSH2 0x396E JUMP JUMPDEST PUSH1 0x20 DUP2 MSTORE PUSH1 0x0 PUSH2 0x21CB PUSH1 0x20 DUP4 ADD DUP5 PUSH2 0x3BA0 JUMP JUMPDEST PUSH1 0x0 PUSH1 0x20 DUP3 DUP5 SUB SLT ISZERO PUSH2 0x3C0A JUMPI PUSH1 0x0 DUP1 REVERT JUMPDEST DUP2 CALLDATALOAD PUSH2 0x21CB DUP2 PUSH2 0x39C6 JUMP JUMPDEST DUP1 CALLDATALOAD PUSH1 0xFF DUP2 AND DUP2 EQ PUSH2 0x392A JUMPI PUSH1 0x0 DUP1 REVERT JUMPDEST PUSH1 0x0 DUP1 PUSH1 0x0 DUP1 PUSH1 0x0 PUSH1 0xA0 DUP7 DUP9 SUB SLT ISZERO PUSH2 0x3C3E JUMPI PUSH1 0x0 DUP1 REVERT JUMPDEST DUP6 CALLDATALOAD PUSH2 0x3C49 DUP2 PUSH2 0x39C6 JUMP JUMPDEST SWAP5 POP PUSH1 0x20 DUP7 ADD CALLDATALOAD SWAP4 POP PUSH2 0x3C5E PUSH1 0x40 DUP8 ADD PUSH2 0x3C15 JUMP JUMPDEST SWAP3 POP PUSH2 0x3C6C PUSH1 0x60 DUP8 ADD PUSH2 0x3C15 JUMP JUMPDEST SWAP2 POP PUSH1 0x80 DUP7 ADD CALLDATALOAD PUSH8 0xFFFFFFFFFFFFFFFF DUP2 GT ISZERO PUSH2 0x3C88 JUMPI PUSH1 0x0 DUP1 REVERT JUMPDEST PUSH2 0x3C94 DUP9 DUP3 DUP10 ADD PUSH2 0x3B4B JUMP JUMPDEST SWAP2 POP POP SWAP3 SWAP6 POP SWAP3 SWAP6 SWAP1 SWAP4 POP JUMP JUMPDEST PUSH1 0x0 PUSH1 0x20 DUP1 DUP4 ADD DUP2 DUP5 MSTORE DUP1 DUP6 MLOAD DUP1 DUP4 MSTORE PUSH1 0x40 DUP7 ADD SWAP2 POP PUSH1 0x40 DUP2 PUSH1 0x5 SHL DUP8 ADD ADD SWAP3 POP DUP4 DUP8 ADD PUSH1 0x0 JUMPDEST DUP3 DUP2 LT ISZERO PUSH2 0x3CF6 JUMPI PUSH1 0x3F NOT DUP9 DUP7 SUB ADD DUP5 MSTORE PUSH2 0x3CE4 DUP6 DUP4 MLOAD PUSH2 0x3BA0 JUMP JUMPDEST SWAP5 POP SWAP3 DUP6 ADD SWAP3 SWAP1 DUP6 ADD SWAP1 PUSH1 0x1 ADD PUSH2 0x3CC8 JUMP JUMPDEST POP SWAP3 SWAP8 SWAP7 POP POP POP POP POP POP POP JUMP JUMPDEST PUSH1 0x0 PUSH1 0x20 DUP3 DUP5 SUB SLT ISZERO PUSH2 0x3D15 JUMPI PUSH1 0x0 DUP1 REVERT JUMPDEST PUSH2 0x21CB DUP3 PUSH2 0x3A07 JUMP JUMPDEST DUP6 DUP2 MSTORE DUP5 PUSH1 0x20 DUP3 ADD MSTORE DUP4 PUSH1 0x40 DUP3 ADD MSTORE PUSH1 0x1 DUP1 PUSH1 0xA0 SHL SUB DUP4 AND PUSH1 0x60 DUP3 ADD MSTORE PUSH1 0xA0 PUSH1 0x80 DUP3 ADD MSTORE PUSH1 0x0 PUSH2 0x3D51 PUSH1 0xA0 DUP4 ADD DUP5 PUSH2 0x396E JUMP JUMPDEST SWAP8 SWAP7 POP POP POP POP POP POP POP JUMP JUMPDEST PUSH1 0x0 DUP1 PUSH1 0x40 DUP4 DUP6 SUB SLT ISZERO PUSH2 0x3D6F JUMPI PUSH1 0x0 DUP1 REVERT JUMPDEST DUP3 CALLDATALOAD PUSH2 0x3D7A DUP2 PUSH2 0x39C6 JUMP JUMPDEST SWAP2 POP PUSH2 0x3D88 PUSH1 0x20 DUP5 ADD PUSH2 0x391A JUMP JUMPDEST SWAP1 POP SWAP3 POP SWAP3 SWAP1 POP JUMP JUMPDEST PUSH1 0x20 DUP1 DUP3 MSTORE DUP3 MLOAD DUP3 DUP3 ADD DUP2 SWAP1 MSTORE PUSH1 0x0 SWAP2 SWAP1 DUP5 DUP3 ADD SWAP1 PUSH1 0x40 DUP6 ADD SWAP1 DUP5 JUMPDEST DUP2 DUP2 LT ISZERO PUSH2 0x3DC9 JUMPI DUP4 MLOAD DUP4 MSTORE SWAP3 DUP5 ADD SWAP3 SWAP2 DUP5 ADD SWAP2 PUSH1 0x1 ADD PUSH2 0x3DAD JUMP JUMPDEST POP SWAP1 SWAP7 SWAP6 POP POP POP POP POP POP JUMP JUMPDEST PUSH1 0x0 DUP1 PUSH1 0x0 DUP1 PUSH1 0x80 DUP6 DUP8 SUB SLT ISZERO PUSH2 0x3DEB JUMPI PUSH1 0x0 DUP1 REVERT JUMPDEST DUP5 CALLDATALOAD PUSH2 0x3DF6 DUP2 PUSH2 0x39C6 JUMP JUMPDEST SWAP4 POP PUSH1 0x20 DUP6 ADD CALLDATALOAD PUSH2 0x3E06 DUP2 PUSH2 0x39C6 JUMP JUMPDEST SWAP3 POP PUSH1 0x40 DUP6 ADD CALLDATALOAD SWAP2 POP PUSH1 0x60 DUP6 ADD CALLDATALOAD PUSH8 0xFFFFFFFFFFFFFFFF DUP2 GT ISZERO PUSH2 0x3E29 JUMPI PUSH1 0x0 DUP1 REVERT JUMPDEST DUP6 ADD PUSH1 0x1F DUP2 ADD DUP8 SGT PUSH2 0x3E3A JUMPI PUSH1 0x0 DUP1 REVERT JUMPDEST PUSH2 0x3E49 DUP8 DUP3 CALLDATALOAD PUSH1 0x20 DUP5 ADD PUSH2 0x3AD5 JUMP JUMPDEST SWAP2 POP POP SWAP3 SWAP6 SWAP2 SWAP5 POP SWAP3 POP JUMP JUMPDEST PUSH1 0x0 DUP1 PUSH1 0x0 DUP1 PUSH1 0x80 DUP6 DUP8 SUB SLT ISZERO PUSH2 0x3E6B JUMPI PUSH1 0x0 DUP1 REVERT JUMPDEST DUP5 CALLDATALOAD SWAP4 POP PUSH1 0x20 DUP6 ADD CALLDATALOAD SWAP3 POP PUSH1 0x40 DUP6 ADD CALLDATALOAD SWAP2 POP PUSH1 0x60 DUP6 ADD CALLDATALOAD PUSH8 0xFFFFFFFFFFFFFFFF DUP2 GT ISZERO PUSH2 0x3E97 JUMPI PUSH1 0x0 DUP1 REVERT JUMPDEST PUSH2 0x3E49 DUP8 DUP3 DUP9 ADD PUSH2 0x3B4B JUMP JUMPDEST PUSH1 0x0 DUP2 MLOAD DUP1 DUP5 MSTORE PUSH1 0x20 DUP1 DUP6 ADD SWAP5 POP DUP1 DUP5 ADD PUSH1 0x0 JUMPDEST DUP4 DUP2 LT ISZERO PUSH2 0x3EF0 JUMPI DUP2 MLOAD DUP1 MLOAD PUSH1 0x1 PUSH1 0x1 PUSH1 0xA0 SHL SUB AND DUP9 MSTORE DUP4 ADD MLOAD PUSH1 0x1 PUSH1 0x1 PUSH1 0x60 SHL SUB AND DUP4 DUP9 ADD MSTORE PUSH1 0x40 SWAP1 SWAP7 ADD SWAP6 SWAP1 DUP3 ADD SWAP1 PUSH1 0x1 ADD PUSH2 0x3EB7 JUMP JUMPDEST POP SWAP5 SWAP6 SWAP5 POP POP POP POP POP JUMP JUMPDEST PUSH1 0x20 DUP2 MSTORE PUSH1 0x0 PUSH2 0x21CB PUSH1 0x20 DUP4 ADD DUP5 PUSH2 0x3EA3 JUMP JUMPDEST PUSH1 0x0 DUP1 PUSH1 0x40 DUP4 DUP6 SUB SLT ISZERO PUSH2 0x3F21 JUMPI PUSH1 0x0 DUP1 REVERT JUMPDEST DUP3 CALLDATALOAD PUSH2 0x3F2C DUP2 PUSH2 0x39C6 JUMP JUMPDEST SWAP2 POP PUSH1 0x20 DUP4 ADD CALLDATALOAD PUSH2 0x3F3C DUP2 PUSH2 0x39C6 JUMP JUMPDEST DUP1 SWAP2 POP POP SWAP3 POP SWAP3 SWAP1 POP JUMP JUMPDEST PUSH1 0x1 DUP2 DUP2 SHR SWAP1 DUP3 AND DUP1 PUSH2 0x3F5B JUMPI PUSH1 0x7F DUP3 AND SWAP2 POP JUMPDEST PUSH1 0x20 DUP3 LT DUP2 SUB PUSH2 0x1A82 JUMPI PUSH4 0x4E487B71 PUSH1 0xE0 SHL PUSH1 0x0 MSTORE PUSH1 0x22 PUSH1 0x4 MSTORE PUSH1 0x24 PUSH1 0x0 REVERT JUMPDEST PUSH4 0x4E487B71 PUSH1 0xE0 SHL PUSH1 0x0 MSTORE PUSH1 0x11 PUSH1 0x4 MSTORE PUSH1 0x24 PUSH1 0x0 REVERT JUMPDEST PUSH1 0x0 DUP2 PUSH1 0x0 NOT DIV DUP4 GT DUP3 ISZERO ISZERO AND ISZERO PUSH2 0x3FAB JUMPI PUSH2 0x3FAB PUSH2 0x3F7B JUMP JUMPDEST POP MUL SWAP1 JUMP JUMPDEST PUSH4 0x4E487B71 PUSH1 0xE0 SHL PUSH1 0x0 MSTORE PUSH1 0x32 PUSH1 0x4 MSTORE PUSH1 0x24 PUSH1 0x0 REVERT JUMPDEST PUSH1 0x20 DUP1 DUP3 MSTORE PUSH1 0x2E SWAP1 DUP3 ADD MSTORE PUSH32 0x4552433732313A2063616C6C6572206973206E6F7420746F6B656E206F776E65 PUSH1 0x40 DUP3 ADD MSTORE PUSH14 0x1C881B9BDC88185C1C1C9BDD9959 PUSH1 0x92 SHL PUSH1 0x60 DUP3 ADD MSTORE PUSH1 0x80 ADD SWAP1 JUMP JUMPDEST PUSH4 0x4E487B71 PUSH1 0xE0 SHL PUSH1 0x0 MSTORE PUSH1 0x12 PUSH1 0x4 MSTORE PUSH1 0x24 PUSH1 0x0 REVERT JUMPDEST PUSH1 0x0 DUP3 PUSH2 0x4039 JUMPI PUSH2 0x4039 PUSH2 0x4014 JUMP JUMPDEST POP DIV SWAP1 JUMP JUMPDEST PUSH1 0x1F DUP3 GT ISZERO PUSH2 0xD07 JUMPI PUSH1 0x0 DUP2 DUP2 MSTORE PUSH1 0x20 DUP2 KECCAK256 PUSH1 0x1F DUP6 ADD PUSH1 0x5 SHR DUP2 ADD PUSH1 0x20 DUP7 LT ISZERO PUSH2 0x4065 JUMPI POP DUP1 JUMPDEST PUSH1 0x1F DUP6 ADD PUSH1 0x5 SHR DUP3 ADD SWAP2 POP JUMPDEST DUP2 DUP2 LT ISZERO PUSH2 0x4084 JUMPI DUP3 DUP2 SSTORE PUSH1 0x1 ADD PUSH2 0x4071 JUMP JUMPDEST POP POP POP POP POP POP JUMP JUMPDEST DUP2 MLOAD PUSH8 0xFFFFFFFFFFFFFFFF DUP2 GT ISZERO PUSH2 0x40A6 JUMPI PUSH2 0x40A6 PUSH2 0x3ABF JUMP JUMPDEST PUSH2 0x40BA DUP2 PUSH2 0x40B4 DUP5 SLOAD PUSH2 0x3F47 JUMP JUMPDEST DUP5 PUSH2 0x403E JUMP JUMPDEST PUSH1 0x20 DUP1 PUSH1 0x1F DUP4 GT PUSH1 0x1 DUP2 EQ PUSH2 0x40EF JUMPI PUSH1 0x0 DUP5 ISZERO PUSH2 0x40D7 JUMPI POP DUP6 DUP4 ADD MLOAD JUMPDEST PUSH1 0x0 NOT PUSH1 0x3 DUP7 SWAP1 SHL SHR NOT AND PUSH1 0x1 DUP6 SWAP1 SHL OR DUP6 SSTORE PUSH2 0x4084 JUMP JUMPDEST PUSH1 0x0 DUP6 DUP2 MSTORE PUSH1 0x20 DUP2 KECCAK256 PUSH1 0x1F NOT DUP7 AND SWAP2 JUMPDEST DUP3 DUP2 LT ISZERO PUSH2 0x411E JUMPI DUP9 DUP7 ADD MLOAD DUP3 SSTORE SWAP5 DUP5 ADD SWAP5 PUSH1 0x1 SWAP1 SWAP2 ADD SWAP1 DUP5 ADD PUSH2 0x40FF JUMP JUMPDEST POP DUP6 DUP3 LT ISZERO PUSH2 0x413C JUMPI DUP8 DUP6 ADD MLOAD PUSH1 0x0 NOT PUSH1 0x3 DUP9 SWAP1 SHL PUSH1 0xF8 AND SHR NOT AND DUP2 SSTORE JUMPDEST POP POP POP POP POP PUSH1 0x1 SWAP1 DUP2 SHL ADD SWAP1 SSTORE POP JUMP JUMPDEST PUSH1 0x0 PUSH1 0xFF DUP3 AND PUSH1 0xFF DUP5 AND DUP2 PUSH1 0xFF DIV DUP2 GT DUP3 ISZERO ISZERO AND ISZERO PUSH2 0x416D JUMPI PUSH2 0x416D PUSH2 0x3F7B JUMP JUMPDEST MUL SWAP4 SWAP3 POP POP POP JUMP JUMPDEST DUP1 DUP3 ADD DUP1 DUP3 GT ISZERO PUSH2 0xB0D JUMPI PUSH2 0xB0D PUSH2 0x3F7B JUMP JUMPDEST PUSH1 0x0 PUSH1 0xFF DUP3 AND PUSH1 0xFF DUP2 SUB PUSH2 0x419E JUMPI PUSH2 0x419E PUSH2 0x3F7B JUMP JUMPDEST PUSH1 0x1 ADD SWAP3 SWAP2 POP POP JUMP JUMPDEST PUSH1 0x0 PUSH1 0x1 DUP3 ADD PUSH2 0x41B9 JUMPI PUSH2 0x41B9 PUSH2 0x3F7B JUMP JUMPDEST POP PUSH1 0x1 ADD SWAP1 JUMP JUMPDEST PUSH1 0x0 DUP3 PUSH2 0x41CF JUMPI PUSH2 0x41CF PUSH2 0x4014 JUMP JUMPDEST POP MOD SWAP1 JUMP JUMPDEST DUP2 DUP2 SUB DUP2 DUP2 GT ISZERO PUSH2 0xB0D JUMPI PUSH2 0xB0D PUSH2 0x3F7B JUMP JUMPDEST PUSH1 0x0 DUP4 MLOAD PUSH2 0x41F9 DUP2 DUP5 PUSH1 0x20 DUP9 ADD PUSH2 0x394A JUMP JUMPDEST DUP4 MLOAD SWAP1 DUP4 ADD SWAP1 PUSH2 0x420D DUP2 DUP4 PUSH1 0x20 DUP9 ADD PUSH2 0x394A JUMP JUMPDEST ADD SWAP5 SWAP4 POP POP POP POP JUMP JUMPDEST PUSH1 0x20 DUP1 DUP3 MSTORE PUSH1 0x32 SWAP1 DUP3 ADD MSTORE PUSH32 0x4552433732313A207472616E7366657220746F206E6F6E204552433732315265 PUSH1 0x40 DUP3 ADD MSTORE PUSH18 0x31B2B4BB32B91034B6B83632B6B2B73A32B9 PUSH1 0x71 SHL PUSH1 0x60 DUP3 ADD MSTORE PUSH1 0x80 ADD SWAP1 JUMP JUMPDEST DUP3 DUP2 MSTORE PUSH1 0x40 PUSH1 0x20 DUP3 ADD MSTORE PUSH1 0x0 PUSH2 0x2163 PUSH1 0x40 DUP4 ADD DUP5 PUSH2 0x3EA3 JUMP JUMPDEST PUSH1 0x1 PUSH1 0x1 PUSH1 0xA0 SHL SUB DUP6 DUP2 AND DUP3 MSTORE DUP5 AND PUSH1 0x20 DUP3 ADD MSTORE PUSH1 0x40 DUP2 ADD DUP4 SWAP1 MSTORE PUSH1 0x80 PUSH1 0x60 DUP3 ADD DUP2 SWAP1 MSTORE PUSH1 0x0 SWAP1 PUSH2 0x42B4 SWAP1 DUP4 ADD DUP5 PUSH2 0x396E JUMP JUMPDEST SWAP7 SWAP6 POP POP POP POP POP POP JUMP JUMPDEST PUSH1 0x0 PUSH1 0x20 DUP3 DUP5 SUB SLT ISZERO PUSH2 0x42D0 JUMPI PUSH1 0x0 DUP1 REVERT JUMPDEST DUP2 MLOAD PUSH2 0x21CB DUP2 PUSH2 0x38E7 JUMP JUMPDEST PUSH4 0x4E487B71 PUSH1 0xE0 SHL PUSH1 0x0 MSTORE PUSH1 0x31 PUSH1 0x4 MSTORE PUSH1 0x24 PUSH1 0x0 REVERT INVALID LOG2 PUSH5 0x6970667358 0x22 SLT KECCAK256 SELFDESTRUCT 0xF9 0xEF SWAP8 DIFFICULTY 0xAD SIGNEXTEND SWAP14 PUSH8 0xBDC7BF85B1025C41 GASPRICE RETURN SWAP7 0xBF STATICCALL 0xDA 0xAC NUMBER DUP10 CODESIZE 0xB7 0xAB PUSH31 0x3CD64736F6C63430008100033000000000000000000000000000000000000 "
		},
		"gasEstimates": {
			"creation": {
				"codeDepositCost": "3438200",
				"executionCost": "infinite",
				"totalCost": "infinite"
			},
			"external": {
				"QUAD_COLUMNS()": "328",
				"QUAD_ROWS()": "263",
				"SALE_OPEN()": "2367",
				"_whitelist(address)": "2581",
				"addToWhitelist(address)": "26901",
				"approve(address,uint256)": "infinite",
				"balanceOf(address)": "2695",
				"burn(uint256)": "infinite",
				"canMintCenter()": "2406",
				"canMintSpecial()": "2449",
				"flipSaleState()": "26681",
				"getApproved(uint256)": "4793",
				"getParcelData(uint256)": "infinite",
				"getParcels()": "infinite",
				"getParcelsCount()": "2382",
				"getRaribleV2Royalties(uint256)": "infinite",
				"getTokenIdsOfWallet(address)": "infinite",
				"isApprovedForAll(address,address)": "infinite",
				"isTransferable(bool)": "26811",
				"lockFreeStyleToggle()": "26672",
				"lockFreestyle()": "2428",
				"maxMint()": "2381",
				"maxSales()": "2404",
				"maxSupply()": "393",
				"mint(address,uint256,uint8,uint8,string)": "infinite",
				"name()": "infinite",
				"occupiedList()": "infinite",
				"owner()": "2444",
				"ownerOf(uint256)": "2606",
				"parcelCount()": "2385",
				"parcels(uint256)": "infinite",
				"paused()": "2444",
				"price(uint256)": "2602",
				"raised()": "304",
				"removeFromWhitelist(address)": "26853",
				"renounceOwnership()": "infinite",
				"royaltyInfo(uint256,uint256)": "infinite",
				"safeTransferFrom(address,address,uint256)": "infinite",
				"safeTransferFrom(address,address,uint256,bytes)": "infinite",
				"setApprovalForAll(address,bool)": "26774",
				"setBaseURI(string)": "infinite",
				"setCanMintCenter(bool)": "26786",
				"setCanMintSpecial(bool)": "26830",
				"setPrice(uint256)": "24600",
				"setRoyalties(uint256,address,uint96)": "infinite",
				"setRoyaltyBPS(uint96)": "26813",
				"startPreSale()": "50839",
				"startPublicSale()": "infinite",
				"supportsInterface(bytes4)": "infinite",
				"symbol()": "infinite",
				"tokenByIndex(uint256)": "6828",
				"tokenOfOwnerByIndex(address,uint256)": "5036",
				"tokenURI(uint256)": "infinite",
				"totalSupply()": "2350",
				"transferFrom(address,address,uint256)": "infinite",
				"transferOwnership(address)": "infinite",
				"transferable()": "2450",
				"updateParcelData(uint256,uint256,uint256,string)": "infinite",
				"withdrawAll()": "infinite"
			},
			"internal": {
				"_baseURI()": "infinite",
				"_beforeTokenTransfer(address,address,uint256)": "infinite",
				"_createParcel(address,uint256,uint256,uint256,string memory)": "infinite",
				"_mintAQuad(address payable,uint256)": "infinite",
				"_totalSupply()": "2138",
				"_widthdraw(address,uint256)": "infinite",
				"isAnyASpecialQuad(uint256,uint8,uint8)": "infinite",
				"isAnyInMiddle(uint256,uint8,uint8)": "infinite",
				"isInMiddle(uint256)": "270",
				"isInSpecial(uint256)": "747",
				"setInitialRoyalties(uint256,address payable)": "infinite"
			}
		},
		"methodIdentifiers": {
			"QUAD_COLUMNS()": "b8cb611d",
			"QUAD_ROWS()": "b91052f2",
			"SALE_OPEN()": "8e26d2aa",
			"_whitelist(address)": "cfdb63ac",
			"addToWhitelist(address)": "e43252d7",
			"approve(address,uint256)": "095ea7b3",
			"balanceOf(address)": "70a08231",
			"burn(uint256)": "42966c68",
			"canMintCenter()": "6ef5e012",
			"canMintSpecial()": "cf8f6b00",
			"flipSaleState()": "34918dfd",
			"getApproved(uint256)": "081812fc",
			"getParcelData(uint256)": "5a733f91",
			"getParcels()": "7e1e18a8",
			"getParcelsCount()": "8ef6a397",
			"getRaribleV2Royalties(uint256)": "cad96cca",
			"getTokenIdsOfWallet(address)": "eef62508",
			"isApprovedForAll(address,address)": "e985e9c5",
			"isTransferable(bool)": "04869c1d",
			"lockFreeStyleToggle()": "23848d5d",
			"lockFreestyle()": "99c4f9d6",
			"maxMint()": "7501f741",
			"maxSales()": "bfdf9b6e",
			"maxSupply()": "d5abeb01",
			"mint(address,uint256,uint8,uint8,string)": "77c2b203",
			"name()": "06fdde03",
			"occupiedList()": "a769cba9",
			"owner()": "8da5cb5b",
			"ownerOf(uint256)": "6352211e",
			"parcelCount()": "baf65743",
			"parcels(uint256)": "a0fa8ede",
			"paused()": "5c975abb",
			"price(uint256)": "26a49e37",
			"raised()": "f0ea4bfc",
			"removeFromWhitelist(address)": "8ab1d681",
			"renounceOwnership()": "715018a6",
			"royaltyInfo(uint256,uint256)": "2a55205a",
			"safeTransferFrom(address,address,uint256)": "42842e0e",
			"safeTransferFrom(address,address,uint256,bytes)": "b88d4fde",
			"setApprovalForAll(address,bool)": "a22cb465",
			"setBaseURI(string)": "55f804b3",
			"setCanMintCenter(bool)": "71c1fd70",
			"setCanMintSpecial(bool)": "d6f46336",
			"setPrice(uint256)": "91b7f5ed",
			"setRoyalties(uint256,address,uint96)": "143094db",
			"setRoyaltyBPS(uint96)": "96d74b98",
			"startPreSale()": "55dd574c",
			"startPublicSale()": "0c1c972a",
			"supportsInterface(bytes4)": "01ffc9a7",
			"symbol()": "95d89b41",
			"tokenByIndex(uint256)": "4f6ccce7",
			"tokenOfOwnerByIndex(address,uint256)": "2f745c59",
			"tokenURI(uint256)": "c87b56dd",
			"totalSupply()": "18160ddd",
			"transferFrom(address,address,uint256)": "23b872dd",
			"transferOwnership(address)": "f2fde38b",
			"transferable()": "92ff0d31",
			"updateParcelData(uint256,uint256,uint256,string)": "c6a4cd73",
			"withdrawAll()": "853828b6"
		}
	},
	"abi": [
		{
			"inputs": [
				{
					"internalType": "string",
					"name": "baseURI",
					"type": "string"
				}
			],
			"stateMutability": "nonpayable",
			"type": "constructor"
		},
		{
			"anonymous": false,
			"inputs": [
				{
					"indexed": true,
					"internalType": "address",
					"name": "owner",
					"type": "address"
				},
				{
					"indexed": true,
					"internalType": "address",
					"name": "approved",
					"type": "address"
				},
				{
					"indexed": true,
					"internalType": "uint256",
					"name": "tokenId",
					"type": "uint256"
				}
			],
			"name": "Approval",
			"type": "event"
		},
		{
			"anonymous": false,
			"inputs": [
				{
					"indexed": true,
					"internalType": "address",
					"name": "owner",
					"type": "address"
				},
				{
					"indexed": true,
					"internalType": "address",
					"name": "operator",
					"type": "address"
				},
				{
					"indexed": false,
					"internalType": "bool",
					"name": "approved",
					"type": "bool"
				}
			],
			"name": "ApprovalForAll",
			"type": "event"
		},
		{
			"anonymous": false,
			"inputs": [
				{
					"indexed": false,
					"internalType": "address",
					"name": "to",
					"type": "address"
				},
				{
					"indexed": true,
					"internalType": "uint256",
					"name": "id",
					"type": "uint256"
				}
			],
			"name": "NewParcel",
			"type": "event"
		},
		{
			"anonymous": false,
			"inputs": [
				{
					"indexed": true,
					"internalType": "address",
					"name": "previousOwner",
					"type": "address"
				},
				{
					"indexed": true,
					"internalType": "address",
					"name": "newOwner",
					"type": "address"
				}
			],
			"name": "OwnershipTransferred",
			"type": "event"
		},
		{
			"anonymous": false,
			"inputs": [
				{
					"indexed": false,
					"internalType": "address",
					"name": "account",
					"type": "address"
				}
			],
			"name": "Paused",
			"type": "event"
		},
		{
			"anonymous": false,
			"inputs": [
				{
					"indexed": false,
					"internalType": "address",
					"name": "to",
					"type": "address"
				},
				{
					"indexed": true,
					"internalType": "uint256",
					"name": "id",
					"type": "uint256"
				}
			],
			"name": "QuadMint",
			"type": "event"
		},
		{
			"anonymous": false,
			"inputs": [
				{
					"indexed": false,
					"internalType": "uint256",
					"name": "tokenId",
					"type": "uint256"
				},
				{
					"components": [
						{
							"internalType": "address payable",
							"name": "account",
							"type": "address"
						},
						{
							"internalType": "uint96",
							"name": "value",
							"type": "uint96"
						}
					],
					"indexed": false,
					"internalType": "struct LibPart.Part[]",
					"name": "royalties",
					"type": "tuple[]"
				}
			],
			"name": "RoyaltiesSet",
			"type": "event"
		},
		{
			"anonymous": false,
			"inputs": [
				{
					"indexed": true,
					"internalType": "address",
					"name": "from",
					"type": "address"
				},
				{
					"indexed": true,
					"internalType": "address",
					"name": "to",
					"type": "address"
				},
				{
					"indexed": true,
					"internalType": "uint256",
					"name": "tokenId",
					"type": "uint256"
				}
			],
			"name": "Transfer",
			"type": "event"
		},
		{
			"anonymous": false,
			"inputs": [
				{
					"indexed": false,
					"internalType": "address",
					"name": "account",
					"type": "address"
				}
			],
			"name": "Unpaused",
			"type": "event"
		},
		{
			"inputs": [],
			"name": "QUAD_COLUMNS",
			"outputs": [
				{
					"internalType": "uint256",
					"name": "",
					"type": "uint256"
				}
			],
			"stateMutability": "view",
			"type": "function"
		},
		{
			"inputs": [],
			"name": "QUAD_ROWS",
			"outputs": [
				{
					"internalType": "uint256",
					"name": "",
					"type": "uint256"
				}
			],
			"stateMutability": "view",
			"type": "function"
		},
		{
			"inputs": [],
			"name": "SALE_OPEN",
			"outputs": [
				{
					"internalType": "bool",
					"name": "",
					"type": "bool"
				}
			],
			"stateMutability": "view",
			"type": "function"
		},
		{
			"inputs": [
				{
					"internalType": "address",
					"name": "",
					"type": "address"
				}
			],
			"name": "_whitelist",
			"outputs": [
				{
					"internalType": "bool",
					"name": "",
					"type": "bool"
				}
			],
			"stateMutability": "view",
			"type": "function"
		},
		{
			"inputs": [
				{
					"internalType": "address",
					"name": "whiltelisted",
					"type": "address"
				}
			],
			"name": "addToWhitelist",
			"outputs": [],
			"stateMutability": "nonpayable",
			"type": "function"
		},
		{
			"inputs": [
				{
					"internalType": "address",
					"name": "to",
					"type": "address"
				},
				{
					"internalType": "uint256",
					"name": "tokenId",
					"type": "uint256"
				}
			],
			"name": "approve",
			"outputs": [],
			"stateMutability": "nonpayable",
			"type": "function"
		},
		{
			"inputs": [
				{
					"internalType": "address",
					"name": "owner",
					"type": "address"
				}
			],
			"name": "balanceOf",
			"outputs": [
				{
					"internalType": "uint256",
					"name": "",
					"type": "uint256"
				}
			],
			"stateMutability": "view",
			"type": "function"
		},
		{
			"inputs": [
				{
					"internalType": "uint256",
					"name": "tokenId",
					"type": "uint256"
				}
			],
			"name": "burn",
			"outputs": [],
			"stateMutability": "nonpayable",
			"type": "function"
		},
		{
			"inputs": [],
			"name": "canMintCenter",
			"outputs": [
				{
					"internalType": "bool",
					"name": "",
					"type": "bool"
				}
			],
			"stateMutability": "view",
			"type": "function"
		},
		{
			"inputs": [],
			"name": "canMintSpecial",
			"outputs": [
				{
					"internalType": "bool",
					"name": "",
					"type": "bool"
				}
			],
			"stateMutability": "view",
			"type": "function"
		},
		{
			"inputs": [],
			"name": "flipSaleState",
			"outputs": [],
			"stateMutability": "nonpayable",
			"type": "function"
		},
		{
			"inputs": [
				{
					"internalType": "uint256",
					"name": "tokenId",
					"type": "uint256"
				}
			],
			"name": "getApproved",
			"outputs": [
				{
					"internalType": "address",
					"name": "",
					"type": "address"
				}
			],
			"stateMutability": "view",
			"type": "function"
		},
		{
			"inputs": [
				{
					"internalType": "uint256",
					"name": "parcelId",
					"type": "uint256"
				}
			],
			"name": "getParcelData",
			"outputs": [
				{
					"components": [
						{
							"internalType": "uint256",
							"name": "coord",
							"type": "uint256"
						},
						{
							"internalType": "uint256",
							"name": "width",
							"type": "uint256"
						},
						{
							"internalType": "uint256",
							"name": "height",
							"type": "uint256"
						},
						{
							"internalType": "address",
							"name": "owner",
							"type": "address"
						},
						{
							"internalType": "string",
							"name": "uri",
							"type": "string"
						}
					],
					"internalType": "struct TMDW.Parcel",
					"name": "",
					"type": "tuple"
				}
			],
			"stateMutability": "view",
			"type": "function"
		},
		{
			"inputs": [],
			"name": "getParcels",
			"outputs": [
				{
					"components": [
						{
							"internalType": "uint256",
							"name": "coord",
							"type": "uint256"
						},
						{
							"internalType": "uint256",
							"name": "width",
							"type": "uint256"
						},
						{
							"internalType": "uint256",
							"name": "height",
							"type": "uint256"
						},
						{
							"internalType": "address",
							"name": "owner",
							"type": "address"
						},
						{
							"internalType": "string",
							"name": "uri",
							"type": "string"
						}
					],
					"internalType": "struct TMDW.Parcel[]",
					"name": "",
					"type": "tuple[]"
				}
			],
			"stateMutability": "view",
			"type": "function"
		},
		{
			"inputs": [],
			"name": "getParcelsCount",
			"outputs": [
				{
					"internalType": "uint256",
					"name": "",
					"type": "uint256"
				}
			],
			"stateMutability": "view",
			"type": "function"
		},
		{
			"inputs": [
				{
					"internalType": "uint256",
					"name": "id",
					"type": "uint256"
				}
			],
			"name": "getRaribleV2Royalties",
			"outputs": [
				{
					"components": [
						{
							"internalType": "address payable",
							"name": "account",
							"type": "address"
						},
						{
							"internalType": "uint96",
							"name": "value",
							"type": "uint96"
						}
					],
					"internalType": "struct LibPart.Part[]",
					"name": "",
					"type": "tuple[]"
				}
			],
			"stateMutability": "view",
			"type": "function"
		},
		{
			"inputs": [
				{
					"internalType": "address",
					"name": "_owner",
					"type": "address"
				}
			],
			"name": "getTokenIdsOfWallet",
			"outputs": [
				{
					"internalType": "uint256[]",
					"name": "",
					"type": "uint256[]"
				}
			],
			"stateMutability": "view",
			"type": "function"
		},
		{
			"inputs": [
				{
					"internalType": "address",
					"name": "owner",
					"type": "address"
				},
				{
					"internalType": "address",
					"name": "operator",
					"type": "address"
				}
			],
			"name": "isApprovedForAll",
			"outputs": [
				{
					"internalType": "bool",
					"name": "",
					"type": "bool"
				}
			],
			"stateMutability": "view",
			"type": "function"
		},
		{
			"inputs": [
				{
					"internalType": "bool",
					"name": "_choice",
					"type": "bool"
				}
			],
			"name": "isTransferable",
			"outputs": [],
			"stateMutability": "nonpayable",
			"type": "function"
		},
		{
			"inputs": [],
			"name": "lockFreeStyleToggle",
			"outputs": [],
			"stateMutability": "nonpayable",
			"type": "function"
		},
		{
			"inputs": [],
			"name": "lockFreestyle",
			"outputs": [
				{
					"internalType": "bool",
					"name": "",
					"type": "bool"
				}
			],
			"stateMutability": "view",
			"type": "function"
		},
		{
			"inputs": [],
			"name": "maxMint",
			"outputs": [
				{
					"internalType": "uint256",
					"name": "",
					"type": "uint256"
				}
			],
			"stateMutability": "view",
			"type": "function"
		},
		{
			"inputs": [],
			"name": "maxSales",
			"outputs": [
				{
					"internalType": "uint256",
					"name": "",
					"type": "uint256"
				}
			],
			"stateMutability": "view",
			"type": "function"
		},
		{
			"inputs": [],
			"name": "maxSupply",
			"outputs": [
				{
					"internalType": "uint256",
					"name": "",
					"type": "uint256"
				}
			],
			"stateMutability": "pure",
			"type": "function"
		},
		{
			"inputs": [
				{
					"internalType": "address payable",
					"name": "_to",
					"type": "address"
				},
				{
					"internalType": "uint256",
					"name": "tokenId",
					"type": "uint256"
				},
				{
					"internalType": "uint8",
					"name": "width",
					"type": "uint8"
				},
				{
					"internalType": "uint8",
					"name": "height",
					"type": "uint8"
				},
				{
					"internalType": "string",
					"name": "parcelUri",
					"type": "string"
				}
			],
			"name": "mint",
			"outputs": [],
			"stateMutability": "payable",
			"type": "function"
		},
		{
			"inputs": [],
			"name": "name",
			"outputs": [
				{
					"internalType": "string",
					"name": "",
					"type": "string"
				}
			],
			"stateMutability": "view",
			"type": "function"
		},
		{
			"inputs": [],
			"name": "occupiedList",
			"outputs": [
				{
					"internalType": "uint256[]",
					"name": "",
					"type": "uint256[]"
				}
			],
			"stateMutability": "view",
			"type": "function"
		},
		{
			"inputs": [],
			"name": "owner",
			"outputs": [
				{
					"internalType": "address",
					"name": "",
					"type": "address"
				}
			],
			"stateMutability": "view",
			"type": "function"
		},
		{
			"inputs": [
				{
					"internalType": "uint256",
					"name": "tokenId",
					"type": "uint256"
				}
			],
			"name": "ownerOf",
			"outputs": [
				{
					"internalType": "address",
					"name": "",
					"type": "address"
				}
			],
			"stateMutability": "view",
			"type": "function"
		},
		{
			"inputs": [],
			"name": "parcelCount",
			"outputs": [
				{
					"internalType": "uint256",
					"name": "",
					"type": "uint256"
				}
			],
			"stateMutability": "view",
			"type": "function"
		},
		{
			"inputs": [
				{
					"internalType": "uint256",
					"name": "",
					"type": "uint256"
				}
			],
			"name": "parcels",
			"outputs": [
				{
					"internalType": "uint256",
					"name": "coord",
					"type": "uint256"
				},
				{
					"internalType": "uint256",
					"name": "width",
					"type": "uint256"
				},
				{
					"internalType": "uint256",
					"name": "height",
					"type": "uint256"
				},
				{
					"internalType": "address",
					"name": "owner",
					"type": "address"
				},
				{
					"internalType": "string",
					"name": "uri",
					"type": "string"
				}
			],
			"stateMutability": "view",
			"type": "function"
		},
		{
			"inputs": [],
			"name": "paused",
			"outputs": [
				{
					"internalType": "bool",
					"name": "",
					"type": "bool"
				}
			],
			"stateMutability": "view",
			"type": "function"
		},
		{
			"inputs": [
				{
					"internalType": "uint256",
					"name": "_count",
					"type": "uint256"
				}
			],
			"name": "price",
			"outputs": [
				{
					"internalType": "uint256",
					"name": "",
					"type": "uint256"
				}
			],
			"stateMutability": "view",
			"type": "function"
		},
		{
			"inputs": [],
			"name": "raised",
			"outputs": [
				{
					"internalType": "uint256",
					"name": "",
					"type": "uint256"
				}
			],
			"stateMutability": "view",
			"type": "function"
		},
		{
			"inputs": [
				{
					"internalType": "address",
					"name": "whiltelisted",
					"type": "address"
				}
			],
			"name": "removeFromWhitelist",
			"outputs": [],
			"stateMutability": "nonpayable",
			"type": "function"
		},
		{
			"inputs": [],
			"name": "renounceOwnership",
			"outputs": [],
			"stateMutability": "nonpayable",
			"type": "function"
		},
		{
			"inputs": [
				{
					"internalType": "uint256",
					"name": "_tokenId",
					"type": "uint256"
				},
				{
					"internalType": "uint256",
					"name": "_salePrice",
					"type": "uint256"
				}
			],
			"name": "royaltyInfo",
			"outputs": [
				{
					"internalType": "address",
					"name": "receiver",
					"type": "address"
				},
				{
					"internalType": "uint256",
					"name": "royaltyAmount",
					"type": "uint256"
				}
			],
			"stateMutability": "view",
			"type": "function"
		},
		{
			"inputs": [
				{
					"internalType": "address",
					"name": "from",
					"type": "address"
				},
				{
					"internalType": "address",
					"name": "to",
					"type": "address"
				},
				{
					"internalType": "uint256",
					"name": "tokenId",
					"type": "uint256"
				}
			],
			"name": "safeTransferFrom",
			"outputs": [],
			"stateMutability": "nonpayable",
			"type": "function"
		},
		{
			"inputs": [
				{
					"internalType": "address",
					"name": "from",
					"type": "address"
				},
				{
					"internalType": "address",
					"name": "to",
					"type": "address"
				},
				{
					"internalType": "uint256",
					"name": "tokenId",
					"type": "uint256"
				},
				{
					"internalType": "bytes",
					"name": "data",
					"type": "bytes"
				}
			],
			"name": "safeTransferFrom",
			"outputs": [],
			"stateMutability": "nonpayable",
			"type": "function"
		},
		{
			"inputs": [
				{
					"internalType": "address",
					"name": "operator",
					"type": "address"
				},
				{
					"internalType": "bool",
					"name": "approved",
					"type": "bool"
				}
			],
			"name": "setApprovalForAll",
			"outputs": [],
			"stateMutability": "nonpayable",
			"type": "function"
		},
		{
			"inputs": [
				{
					"internalType": "string",
					"name": "baseURI",
					"type": "string"
				}
			],
			"name": "setBaseURI",
			"outputs": [],
			"stateMutability": "nonpayable",
			"type": "function"
		},
		{
			"inputs": [
				{
					"internalType": "bool",
					"name": "newCanMintCenter",
					"type": "bool"
				}
			],
			"name": "setCanMintCenter",
			"outputs": [],
			"stateMutability": "nonpayable",
			"type": "function"
		},
		{
			"inputs": [
				{
					"internalType": "bool",
					"name": "newCanMintSpecial",
					"type": "bool"
				}
			],
			"name": "setCanMintSpecial",
			"outputs": [],
			"stateMutability": "nonpayable",
			"type": "function"
		},
		{
			"inputs": [
				{
					"internalType": "uint256",
					"name": "_newPrice",
					"type": "uint256"
				}
			],
			"name": "setPrice",
			"outputs": [],
			"stateMutability": "nonpayable",
			"type": "function"
		},
		{
			"inputs": [
				{
					"internalType": "uint256",
					"name": "_tokenId",
					"type": "uint256"
				},
				{
					"internalType": "address payable",
					"name": "_royaltiesRecipientAddress",
					"type": "address"
				},
				{
					"internalType": "uint96",
					"name": "_percentageBasisPoints",
					"type": "uint96"
				}
			],
			"name": "setRoyalties",
			"outputs": [],
			"stateMutability": "nonpayable",
			"type": "function"
		},
		{
			"inputs": [
				{
					"internalType": "uint96",
					"name": "_newBPS",
					"type": "uint96"
				}
			],
			"name": "setRoyaltyBPS",
			"outputs": [],
			"stateMutability": "nonpayable",
			"type": "function"
		},
		{
			"inputs": [],
			"name": "startPreSale",
			"outputs": [],
			"stateMutability": "nonpayable",
			"type": "function"
		},
		{
			"inputs": [],
			"name": "startPublicSale",
			"outputs": [],
			"stateMutability": "nonpayable",
			"type": "function"
		},
		{
			"inputs": [
				{
					"internalType": "bytes4",
					"name": "interfaceId",
					"type": "bytes4"
				}
			],
			"name": "supportsInterface",
			"outputs": [
				{
					"internalType": "bool",
					"name": "",
					"type": "bool"
				}
			],
			"stateMutability": "view",
			"type": "function"
		},
		{
			"inputs": [],
			"name": "symbol",
			"outputs": [
				{
					"internalType": "string",
					"name": "",
					"type": "string"
				}
			],
			"stateMutability": "view",
			"type": "function"
		},
		{
			"inputs": [
				{
					"internalType": "uint256",
					"name": "index",
					"type": "uint256"
				}
			],
			"name": "tokenByIndex",
			"outputs": [
				{
					"internalType": "uint256",
					"name": "",
					"type": "uint256"
				}
			],
			"stateMutability": "view",
			"type": "function"
		},
		{
			"inputs": [
				{
					"internalType": "address",
					"name": "owner",
					"type": "address"
				},
				{
					"internalType": "uint256",
					"name": "index",
					"type": "uint256"
				}
			],
			"name": "tokenOfOwnerByIndex",
			"outputs": [
				{
					"internalType": "uint256",
					"name": "",
					"type": "uint256"
				}
			],
			"stateMutability": "view",
			"type": "function"
		},
		{
			"inputs": [
				{
					"internalType": "uint256",
					"name": "tokenId",
					"type": "uint256"
				}
			],
			"name": "tokenURI",
			"outputs": [
				{
					"internalType": "string",
					"name": "",
					"type": "string"
				}
			],
			"stateMutability": "view",
			"type": "function"
		},
		{
			"inputs": [],
			"name": "totalSupply",
			"outputs": [
				{
					"internalType": "uint256",
					"name": "",
					"type": "uint256"
				}
			],
			"stateMutability": "view",
			"type": "function"
		},
		{
			"inputs": [
				{
					"internalType": "address",
					"name": "from",
					"type": "address"
				},
				{
					"internalType": "address",
					"name": "to",
					"type": "address"
				},
				{
					"internalType": "uint256",
					"name": "tokenId",
					"type": "uint256"
				}
			],
			"name": "transferFrom",
			"outputs": [],
			"stateMutability": "nonpayable",
			"type": "function"
		},
		{
			"inputs": [
				{
					"internalType": "address",
					"name": "newOwner",
					"type": "address"
				}
			],
			"name": "transferOwnership",
			"outputs": [],
			"stateMutability": "nonpayable",
			"type": "function"
		},
		{
			"inputs": [],
			"name": "transferable",
			"outputs": [
				{
					"internalType": "bool",
					"name": "",
					"type": "bool"
				}
			],
			"stateMutability": "view",
			"type": "function"
		},
		{
			"inputs": [
				{
					"internalType": "uint256",
					"name": "parcelId",
					"type": "uint256"
				},
				{
					"internalType": "uint256",
					"name": "width",
					"type": "uint256"
				},
				{
					"internalType": "uint256",
					"name": "height",
					"type": "uint256"
				},
				{
					"internalType": "string",
					"name": "parcelUri",
					"type": "string"
				}
			],
			"name": "updateParcelData",
			"outputs": [
				{
					"internalType": "uint256",
					"name": "",
					"type": "uint256"
				}
			],
			"stateMutability": "payable",
			"type": "function"
		},
		{
			"inputs": [],
			"name": "withdrawAll",
			"outputs": [],
			"stateMutability": "payable",
			"type": "function"
		}
	]
}